:100000000C9429050C94C0170C9499170C94721732
:100010000C944B170C9451050C9451050C94241717
:100020000C9451050C9451050C94E7170C94561838
:100030000C9451050C9451050C9451050C945105E8
:100040000C9451050C9451050C9451050C945105D8
:100050000C9451050C9451050C9451050C94DA162E
:100060000C9451050C9451050C9451050C945105B8
:100070000C9451050C9451050C9451050C945105A8
:100080000C9451050C9451050C9451050C94510598
:100090000C9451050C9451050C9451050C94510588
:1000A0000C9451050C9451050C945105AED580A8C3
:1000B0001FD300408D142002A1C8DA02817FD9F13C
:1000C000DB40A4A6AF000008053009202020202036
:1000D000202020F82020202020202020F820202070
:1000E0002020202020F82020202020202020F82060
:1000F00020202020202020F8202020202020202028
:10010000F82020202020202020F82020202020203F
:100110002020F800030C0F30333C3FC0C3CCCFF09D
:10012000F3FCFF00000000000000000000000000E1
:100130000000002A002B0028000000000000000042
:1001400000000000000000000000000000000000AF
:10015000000000000000000000000000000000009F
:100160000000002C001E0234022002210222022480
:100170000234002602270225022E0236002D003707
:1001800000380027001E001F00200021002200234D
:10019000002400250026003302330036022E0037EB
:1001A0000238021F020402050206020702080209C1
:1001B000020A020B020C020D020E020F02100211C3
:1001C0000212021302140215021602170218021973
:1001D000021A021B021C021D022F003100300023F4
:1001E000022D023500040005000600070008000982
:1001F000000A000B000C000D000E000F0010001193
:100200000012001300140015001600170018001942
:10021000001A001B001C001D002F023102300235A5
:10022000020000080B0002020200000904000001A5
:10023000020200000524001001052401010104242C
:100240000206052406000107058103100040090489
:100250000100020A00000007050202400000070535
:1002600083024000000403090412010002EF0201AE
:100270004041233780000101020301417264756926
:100280006E6F204C4C430041726475696E6F204D57
:100290006963726F00AC001980200000000707300E
:1002A0000A38448280804438384482828240303820
:1002B00044828282440838448282020438384402EC
:1002C0000282443818048282824438204482828226
:1002D00044383840808282443838448282824438AC
:1002E000387CFEFEFE7C3800000507206000000020
:1002F000000000005F00000007000700147F147F6B
:1003000014242A7F2A122313086462364956205087
:100310000008070300001C2241000041221C002AA3
:100320001C7F1C2A08083E0808008070300008085E
:10033000080808000060600020100804023E5149CF
:10034000453E00427F400072494949462141494D9E
:10035000331814127F1027454545393C4A49493125
:1003600041211109073649494936464949291E00A4
:10037000001400000040340000000814224114144E
:10038000141414004122140802015909063E415D6B
:10039000594E7C1211127C7F494949363E414141F8
:1003A000227F4141413E7F494949417F0909090175
:1003B0003E414151737F0808087F00417F41002082
:1003C00040413F017F081422417F404040407F026E
:1003D0001C027F7F0408107F3E4141413E7F090996
:1003E00009063E4151215E7F09192946264949499E
:1003F0003203017F01033F4040403F1F2040201F48
:100400003F4038403F6314081463030478040361D9
:1004100059494D43007F41414102040810200041E9
:1004200041417F0402010204404040404000030774
:10043000080020545478407F2844443838444444C9
:1004400028384444287F385454541800087E090240
:1004500018A4A49C787F0804047800447D40002000
:1004600040403D007F1028440000417F40007C0454
:100470007804787C080404783844444438FC182410
:10048000241818242418FC7C0804040848545454E4
:100490002404043F44243C4040207C1C2040201C79
:1004A0003C4030403C44281028444C9090907C4480
:1004B00064544C44000836410000007700000041BD
:1004C00036080002010204023C2623263C19920A47
:1004D0000C206002010408060B0801030305070253
:1004E00004010506050606070606060606010207BC
:1004F0000707050A08060707060607070304060696
:10050000080708060807060707080B06070603057D
:10051000030808020606050606040606010305018F
:100520000906060606040505060509050505050173
:1005300005080900000000FE200700000700000079
:10054000008090F89690F89610003000003000007F
:10055000001824FF4444842020F02020101C222274
:100560001C80700CC22020C0000000201000001071
:10057000202010DC2222225C80600010202020201D
:100580001010200700F806011060800106F8806056
:10059000100A041F040A0000000000404040F84018
:1005A00040400000003000000000008070404040EB
:1005B000400000000000300000E01C0380700000DC
:1005C00000FC02020202FC1020202020100404FE85
:1005D000000020203020200C824242221C302020AB
:1005E0002020200402222222DC1020202020106063
:1005F000504844FE4040000000003000001E12122F
:100600001212E2102020202010F814121212E01012
:100610002020202010020282621A06002010000012
:1006200000DC22222222DC1020202020103C42422A
:100630004242FC002020201000183000188070403A
:10064000A0A01010080800000010102020505050EA
:10065000505050500000000000000008081010A08A
:10066000A040202010100000000402E2221C000024
:10067000200000F00C04F20A0AFA040CF00030200A
:100680004050505010100000E098868698E00030EE
:1006900000000000000030FE2222223CC03020205A
:1006A000202010F804020202020400102020202062
:1006B00010FE0202020204F830202020201000FE6A
:1006C0002222222222302020202020FE222222222A
:1006D00002300000000000F80402022222E40010B0
:1006E0002020202010FE2020202020FE30000000AE
:1006F00000003002FE02203020000202FE202020F6
:1007000010FE2050880402300000001020FE00007F
:10071000000000302020202020FE0638C0C038060F
:10072000FE3000000000000030FE061820C000FE71
:1007300030000000003030F8040202020204F80029
:1007400010202020201000FE424242423C30000097
:10075000000000F8040202020204F8001020202029
:10076000609080FE222262A21C0030000000001077
:10077000201C22222222C41020202020100202024B
:10078000FE02020200000030000000FE0000000037
:1007900000FE001020202010000638C00000C038E5
:1007A0000600000030300000001EE000C0380638AF
:1007B000C000E01E00003000000000003000000615
:1007C0008870708806300000000030020C10E010C5
:1007D0000C0200000030000000028262120A0630A3
:1007E0002020202020FF0101F08080031C60800079
:1007F00000000030C00101FF8080F01008040202F8
:1008000004081000000000000000000000000000CC
:100810000000008080808080808080010200008055
:1008200048484848F0102020202030FF10080808D1
:10083000F0302020202010F0080808101020202080
:1008400010F008080808FF102020201030F0484859
:1008500048487010202020201008FE0909003000B0
:1008600000F008080808F810A0A0A09070FF100879
:100870000808F0300000000030F9300008F98080EE
:1008800070FF40A010083000001020FF30F808086A
:1008900008F0080808F0300000003000000030F8D0
:1008A00010080808F0300000000030F008080808C0
:1008B000F0102020202010F810080808F0F0202068
:1008C000202010F008080808F81020202010F0F868
:1008D00010080830000000304848488820202020B8
:1008E0001008FE0808080010202020F80000000072
:1008F000F810202020103018E000E0180000300030
:100900000018E000E018E000E018000030000000EF
:1009100030000018A040A018300000003018E0009F
:10092000E018008070000008884828183020202037
:10093000202020DE01010000708080FFF00101DE38
:1009400020208080700000C0202040408080600017
:1009500000000000000000FE02020202020202FE8D
:1009600030202020202020203000000000230026FE
:100970000029002C002F000000000200090F0000D9
:10098000030401000C000000000000000000000053
:1009900000000000000000000000250028002B00DF
:1009A0002E00310000000000240027002A002D0046
:1009B00030000404040404030405020202020403D8
:1009C00002020202060606060606040402020204E9
:1009D000040408020110408040102040804080083C
:1009E00002040180402010020110801020404020AD
:1009F000070605040100080A0B0C0D09050109068C
:100A0000A1018502050719E029E7150025017501F7
:100A100095088102050C95017508150026FF00193F
:100A20000029FF8100050795067508150026E700D7
:100A3000190029E78100C0050C0901A101850415F1
:100A40000026FF0319002AFF03950475108100C0DA
:100A5000881A11241FBECFEFDAE0DEBFCDBF12E04F
:100A6000A0E0B1E0E0E5FAE402C005900D92A63006
:100A7000B107D9F723E0A6E0B2E001C01D92A93585
:100A8000B207E1F715E0C9E2D5E004C02197FE0105
:100A90000E94E624C832D107C9F70E94501B0C946B
:100AA00026250C9400009093530380935203FC017D
:100AB00024913196E491F22F319719F410924D035D
:100AC000089581E080934D0308951F93FC01708188
:100AD00041811281972F990F990F990F35E5292F91
:100AE000239F020E20E0211D1124822F672F6074A6
:100AF000572F507277FD72C061115EC0511105C051
:100B0000922F9095892F90E004C025E5280F90E062
:100B10008BEA4F3F09F424C0442309F480C08823A2
:100B200031F0382F349F030E30E0311D832F222304
:100B300021F0249F020E20E0211D992331F0392F4E
:100B4000349F030E30E0311D932F1124342F309544
:100B5000339F030E30E0311D1124830F230F930FB9
:100B60001F3F09F421C030E0112321F0119F312DE6
:100B700009F03F5F332309F456C0882331F0482F32
:100B8000439F040E40E0411D842F222321F0239F28
:100B9000020E20E0211D992331F0492F439F040EBE
:100BA00040E0411D942F11248093A6022093A702B8
:100BB0009093A8021F91089551110BC0392F2AEA72
:100BC000329F030E30E0311D11249BEA931B280F46
:100BD00099CF90E02095982F80E09BCF611112C0B3
:100BE00051110CC0392F2AEA329F030E30E0311D1B
:100BF00011242BEA231B95E5930FEECF922F9095AE
:100C000020E087CF511106C025E5280F9BEA981BED
:100C1000822FF6CF2AEA280F90E0932FF8CF9FEF8C
:100C20002FEF8FEF9DCF90E020E080E0BDCFE0EF91
:100C3000F9E0E49190917B008E2F880F880F8072ED
:100C40009F7D892B80937B00E770E064E0937C00BC
:100C500080917A00806480937A0080917A0086FD8A
:100C6000FCCF80917800909179000895CF93DF9325
:100C700090E0FC01EF52F64F24918E54964FFC0108
:100C800084918823C1F090E0880F991FFC01EC55F6
:100C9000F64FC591D491FC01EA56F64FA591B49157
:100CA0009FB7F8943881822F809583238883EC91B5
:100CB000E22BEC939FBFDF91CF910895FC018091CF
:100CC000A502882311F13FB7F89482E08093E900F0
:100CD0002091F200822F90E01816190614F481E09A
:100CE00090E0882339F0289A44E64093A40240918A
:100CF000F1004083222339F02091F200211103C03A
:100D00002BE62093E8003FBF08958FEF9FEF0895F3
:100D1000CF93DF931F92CDB7DEB76983DC01ED91EE
:100D2000FC910280F381E02D41E050E0BE016F5F55
:100D30007F4F09950F90DF91CF91089583E08093C5
:100D4000E9008091F200882319F08AE38093E8009B
:100D50000895CF93DF931F92CDB7DEB7FC01848552
:100D6000958597FD08C02FEF3FEF358724870F90BB
:100D7000DF91CF910895CE0101960E945E06019702
:100D800019F4898190E0F3CF8FEF9FEFF0CF0F93AD
:100D90001F93CF93DF931F92CDB7DEB78C01FC0179
:100DA0008485958597FF0BC0CE0101960E945E0653
:100DB000019771F4898190E0F80195878487F801A3
:100DC000848595850F90DF91CF911F910F910895A4
:100DD0008FEF9FEFF1CFFC018485958597FD0BC0C8
:100DE0009FB7F89482E08093E9008091F2009FBF62
:100DF00090E0019608959FB7F89482E08093E9000F
:100E00008091F2009FBF90E00895282F30E0F90113
:100E1000E958F64F9491F901EF52F64F84912E5410
:100E2000364FF9012491222309F45BC09923E9F09C
:100E300091509F30D0F4E92FF0E0EF5DF84F0C9423
:100E4000E6244C07500730074407480735073507A5
:100E50003507530759075D076107670735076B07B4
:100E6000909180009F7790938000E22FF0E0EE0F4A
:100E7000FF1FE759F64FA591B491EC91E82381E06B
:100E800090E089F580E00895909180009F7DEBCF00
:100E900090918000977FE7CF94B59F7794BDE5CF81
:100EA00094B59F7DFBCF909190009F779093900099
:100EB000DCCF909190009F7DF9CF90919000977F2B
:100EC000F5CF9091C0009F779093C000CECF9091C6
:100ED000C0009F7DF9CF9091C200977F9093C20090
:100EE000C4CF80E090E008953FB7F8948091A002CD
:100EF0009091A102A091A202B091A30226B5A89B55
:100F000005C02F3F19F00196A11DB11D3FBFBA2F9B
:100F1000A92F982F8827BC01CD01620F711D811D5B
:100F2000911D42E0660F771F881F991F4A95D1F7E0
:100F300008958F929F92AF92BF92CF92DF92EF92DD
:100F4000FF924B015C010E9474076B017C010E94BF
:100F500074076C197D098E099F09683E73408105ED
:100F60009105A8F321E0821A9108A108B10888EE42
:100F7000C80E83E0D81EE11CF11C81149104A10469
:100F8000B10429F7FF90EF90DF90CF90BF90AF9022
:100F90009F908F9008952FB7F89460919C02709164
:100FA0009D0280919E0290919F022FBF08954F92C3
:100FB0005F926F927F929F92AF92BF92CF92DF9299
:100FC000EF92FF920F931F93CF93DF9300D01F9266
:100FD000CDB7DEB7F82E8091080390910903A09158
:100FE0000A03B0910B03892B8A2B8B2BD9F00E941B
:100FF00074070091B1021091B2022091B3023091B6
:10100000B402601B710B820B930B009108031091CB
:10101000090320910A0330910B03601771078207BF
:101020009307C8F20E9474076093B1027093B202F2
:101030008093B3029093B402E0911003F0911103F6
:10104000309759F040910C0350910D0360910E03BD
:1010500070910F038F2D0995F82E0091AF0210911A
:10106000B0024F2C512C712C612C0115110509F483
:101070005EC0D8011C96EC901C978091060390915D
:1010800007038436910510F41C961C92D801ED914B
:10109000FC91A280B38019821A821B82FF2089F101
:1010A000F8013696D12CC12C2191222319F192807E
:1010B000992001F130E050E040E02F5F3F4F4F4F6B
:1010C0005F4FC301B2010E94A0249B01AC01892D96
:1010D00090E0B0E0A0E0BC01CD016F5F7F4F8F4F8B
:1010E0009F4F0E94A024A1E0B0E0AC0FBD1FAC0D4B
:1010F000BD1D8C93BFEFCB1ADB0A83E0C816D10469
:1011000099F6D8011D964D915C911E9712966D919E
:101110007C919E012F5F3F4FC801F5010995D801D1
:101120001C96EC921C9714960D911C919ECF809169
:10113000AD029091AE028C010F5F1F4F1093AE0273
:101140000093AD0249978CF10E94CB079B01AC0143
:1011500088EE93E0089FB001099F700D189F700DF5
:101160001124072E000C880B990BC090A902D09077
:10117000AA02E090AB02F090AC022C193D094E0996
:101180005F090E94C4243093070320930603109242
:10119000AE021092AD020E94CB076093A902709339
:1011A000AA028093AB029093AC020F900F900F9025
:1011B000DF91CF911F910F91FF90EF90DF90CF9033
:1011C000BF90AF909F907F906F905F904F900895E9
:1011D00080E991E0089508954091320250913302E0
:1011E000209130023091310242175307B4F49091AC
:1011F000E8009570E1F39091E80092FD19C08093AA
:10120000F100809132029091330201968F739927F9
:10121000892B19F48EEF8093E8008091320290912F
:1012200033020196909333028093320281E0089555
:1012300080E00895EF92FF920F931F93CF93DF9377
:10124000F82E192FE62E042F81E0860F880F0E94BA
:10125000EC0883E00E94EC08CF2DD12FEC0EFD2E80
:10126000F11CCE15DF05B9F007FF13C0FE01849114
:101270000E94EC08182F80E00E94EC088123219640
:101280008111EFCFDF91CF911F910F91FF90EF90E0
:1012900008958881EDCF81E0F5CFDF92EF92FF9244
:1012A0000F931F93CF93DF93D82E8A01EB017B011D
:1012B000E40EF51ECE15DF0559F0D7FE12C0FE0173
:1012C00084910E94EC0821968111F4CF0FEF1FEF5B
:1012D000C801DF91CF911F910F91FF90EF90DF90A8
:1012E00008958881EECF2FB7F89487708093E90036
:1012F0009091E800892F807295FF04C09091F200D0
:1013000080E4891B2FBF089583E00E94730990E059
:1013100008957F928F929F92AF92BF92CF92DF9269
:10132000EF92FF920F931F93CF93DF93C82E8B0101
:101330007A018091A502811110C08FEF9FEFDF919C
:10134000CF911F910F91FF90EF90DF90CF90BF90C2
:10135000AF909F908F907F9008958091360280FF8C
:1013600005C08091E00082608093E000CE2DDF2DEB
:10137000D12C8AEFB82E8C2D8770982E8C2D8072F0
:10138000882E8C2D8074782E9AE3A92E209719F43C
:10139000DD2009F452C08C2D0E94730981110AC00E
:1013A000BA94BB2051F261E070E080E090E00E94CE
:1013B0009907ECCF8C171D0611F00CF08C2F9FB7FE
:1013C000F8949092E9002091E80025FD02C09FBFAB
:1013D000DDCF282F30E0C21BD30B882029F08150AD
:1013E000A0F01092F100FBCFF801C7FC0AC08150B9
:1013F00050F041914093F100FACF44914093F100B5
:1014000031968150D0F7020F131FDD2021F0A092FA
:10141000E800D12CDCCF8091E80085FD07C0A092C8
:10142000E800DD24D394209791F2F3CF209779F64A
:10143000772069F2A092E800CACF5D9A84E6809393
:101440003502C7017CCFCF93DF93EC0180911C0163
:10145000882331F083E00E9489091816190634F0B8
:1014600081E090E09B838A8380E090E0DF91CF91E0
:101470000895615030F02091F100FC012083019625
:10148000F8CF289A84E68093A4020895AF92BF9281
:10149000CF92DF92EF92FF920F931F93CF93DF9340
:1014A0006C017B018B01040F151FEB015E01AE186F
:1014B000BF08C017D10759F06991D601ED91FC9191
:1014C0000190F081E02DC6010995892B79F7C501BE
:1014D000DF91CF911F910F91FF90EF90DF90CF9010
:1014E000BF90AF9008958091280281110DC082E0D5
:1014F0008093240284E080932502109227021092A8
:10150000260281E08093280284E292E008950F93FE
:101510001F93CF93DF931F92CDB7DEB782E089830D
:1015200042E450E063E272E080E80E944D090E94CC
:10153000730ADC0112960D911C910115110589F0B9
:10154000D801ED91FC910280F381E02DBE016F5F27
:101550007F4FC801099597FD04C0F80100851185EA
:10156000ECCF89810F90DF91CF911F910F9108955A
:10157000DC01FB0112962C9112978481958128172A
:10158000190641F491818081813A31F49D7F81E097
:10159000913009F080E008958132E1F79B3029F421
:1015A00082811F968C9381E008959A3099F7828109
:1015B00050968C93F8CFAF92BF92CF92DF92EF927A
:1015C000FF920F931F93CF93DF931F92CDB7DEB798
:1015D0007C0169836A01590141E050E0BE016F5FFF
:1015E0007F4FFC0183810E9489098C0197FD0BC00C
:1015F000F7018381A501B60180640E948909080F63
:10160000191F97FD8C01C8010F90DF91CF911F9199
:101610000F91FF90EF90DF90CF90BF90AF90089523
:10162000DC01FB0188E4808389E4818384E4828394
:101630001D969C911D979F709F5B93831D968D9126
:101640009C9124E0969587952A95E1F78F708F5BA2
:10165000848385E00895EF92FF920F931F93CF93B9
:10166000DF93FB012081213871F52381223259F566
:10167000DC0112964C91248135814217130619F52D
:10168000EC010B851C85F12CE12C0115110589F06D
:10169000F801448155816281738180E80E944D097F
:1016A0008F3F980749F0E80EF91ED8010D911C9163
:1016B000ECCF81E08F87C701DF91CF911F910F9110
:1016C000FF90EF90089590E080E0F6CFCF93DF9306
:1016D000CDB7DEB769970FB6F894DEBF0FBECDBFAA
:1016E000FC01DB018C918F5F8C939E012D5F3F4F3E
:1016F0008DE0D9011D928A95E9F729E0298384E0DC
:101700008A8391E09D8383E08E832A8721E22B8761
:101710009C879D879F8722E2288B27E02B8B25E0E3
:101720002C8B8E8B20E430E0388F2F8B998F828129
:101730008B8395858685998B8A8B838180688D8B39
:1017400049E150E0BE016F5F7F4F80E00E944D098C
:1017500069960FB6F894DEBF0FBECDBFDF91CF9173
:101760000895CF93DF9380911C02811167C081E0BF
:1017700080930F028093100225E132E03093120231
:1017800020931102109214021092130221E231E010
:1017900030930C0220930B02109217021092160243
:1017A000109219021092180280931A0280931B0261
:1017B00081EC809315020E94730AFC018181909153
:1017C0000F02482F490F5527551F483051059CF5EA
:1017D000A281B381109709F52BE032E03383228395
:1017E000208120930D0280930E0280911002820FBF
:1017F000808320911102A22FB09112028A2F821BA6
:101800008917C8F481813D91C82FD0E0C050DF4FC7
:1018100038838F5F8183F2CFD90118962D913C9147
:10182000199721153105C1F72BE032E019963C9349
:101830002E931897D5CF81E080931C028BE092E025
:10184000DF91CF910895CF93DF93EC010E94B10B0C
:10185000AE014C5F5F4F28E030E062E0DF91CF9156
:101860000C94DB0ACF92DF92FF920F931F93CF93DA
:10187000DF938C01F42EE62FF0E0EE0FFF1FED5DFD
:10188000FE4FC590D490D801ED91FC910484F5856C
:10189000E02D6C2DC8010995EC01892B11F4F11094
:1018A00070C0D0FE0CC0D801ED91FC910484F58588
:1018B000E02D4F2D60EEC8010995C82BD92BD1FE24
:1018C0000CC0D801ED91FC910484F585E02D4F2DDD
:1018D00061EEC8010995C82BD92BD2FE0CC0D801E6
:1018E000ED91FC910484F585E02D4F2D62EEC80149
:1018F0000995C82BD92BD3FE0CC0D801ED91FC91D2
:101900000484F585E02D4F2D63EEC8010995C82BA1
:10191000D92BD4FE0CC0D801ED91FC910484F5853F
:10192000E02D4F2D64EEC8010995C82BD92BD5FEAB
:101930000CC0D801ED91FC910484F585E02D4F2D6C
:1019400065EEC8010995C82BD92BD6FE0CC0D8016D
:10195000ED91FC910484F585E02D4F2D66EEC801D4
:101960000995C82BD92BD7FE0CC0D801ED91FC915D
:101970000484F585E02D4F2D67EEC8010995C82B2D
:10198000D92BCE01DF91CF911F910F91FF90DF9066
:10199000CF900895FF920F931F93CF93DF93EC01A5
:1019A000F62E41E00E94320C8C01892BA9F0E881CF
:1019B000F9810284F385E02DCE01099540E06F2D79
:1019C000CE010E94320C892B39F0E881F981028422
:1019D000F385E02DCE010995C801DF91CF911F91CC
:1019E0000F91FF9008950F931F93CF93DF93EB0117
:1019F0008A010E94B10B9801AE0164E0DF91CF91A2
:101A00001F910F910C94DB0ACF93DF93EC01ECE371
:101A1000F3E090E080E0219131910196232B41F594
:101A2000880F991FFC01E65CFC4FD183C08348E01E
:101A300050E06CE373E08AE393E00E94F30CEAE386
:101A4000F3E082E493E022813381C217D30711F4DB
:101A50001382128232968E179F07A9F748E050E052
:101A60006CE373E08AE393E0DF91CF910C94F30C85
:101A70008430910581F6DBCFCF93DF93EC018D8528
:101A8000882329F081508D87DF91CF9108959C8123
:101A90008E819817C8F788896827E881F9810084C2
:101AA000F185E02D42E0CE0109958C818F5F8C831A
:101AB000EBCFDC01ED91FC910084F185E02D40E05D
:101AC00009940F931F93CF938C01FC016483C0850D
:101AD000C60F6C2F6F700E94590D6C2F62956F703E
:101AE0006061C801CF911F910F910C94590DFC01B9
:101AF0002781269526952695621738F465832385D8
:101B0000620F6770606B0C94590D08951F93CF930B
:101B1000DF93EC01142F8E81681718F4CE010E9418
:101B2000610D612FCE01DF91CF911F910C94770D44
:101B3000CF92DF92EF92FF920F931F93CF93DF9399
:101B4000EC01F62EC42ED22E1D868F8186958695A9
:101B50008695081710F00FEF080F1D2D011780F064
:101B6000412F6F2DCE010E94860DEF2CCE1430F048
:101B70006889CE010E943C0DE394F8CF1F5FEECF41
:101B80004D2D6F2DCE01DF91CF911F910F91FF90C1
:101B9000EF90DF90CF900C94860D0F93DC0115969B
:101BA0002C9115971E96ED91FC911F9700E03097B0
:101BB00079F03396E491F0E0379683E0F595E79578
:101BC0008A95E1F751960C9151970E9F002D1124A3
:101BD000EFEFE20F0E0F16964C91169741501496A8
:101BE0006C911497CD010E94980D0F9108952F923A
:101BF0003F924F925F926F927F928F929F92AF929D
:101C0000BF92CF92DF92EF92FF920F931F93CF93E9
:101C1000DF9300D000D000D0CDB7DEB7FC01268521
:101C200037852115310509F44AC19E838D83F90159
:101C30003296649031964491E42EF12CF7E0EF0E49
:101C4000F11C53E0F594E7945A95E1F7E982F90124
:101C5000349654913196E491651748F08E2F90E0B8
:101C6000FC01E50FF11D6E171F060CF469C06D3005
:101C700031F5ED81FE81868181111BC081E090E00C
:101C800026960FB6F894DEBF0FBECDBFDF91CF9181
:101C90001F910F91FF90EF90DF90CF90BF90AF908A
:101CA0009F908F907F906F905F904F903F902F907C
:101CB000089560E08D819E810E94610DDFCF6A30C2
:101CC00009F0FDC0ED81FE818681882321F060E06E
:101CD000CF010E94610DED81FE8181898E9DE02CF6
:101CE000112465816E0D8485882349F0978196952E
:101CF000969596958E2D891B860F18162CF08D8142
:101D00009E810E94770DBACFED81FE812385820FDF
:101D1000877083879E199583CF010E94CD0DED8139
:101D2000FE818485813009F0A9CF6385660F660F37
:101D3000660F6F7362876064CF010E94590D9ECF5A
:101D400089010A5F1F4F651BED81FE8171855189F5
:101D5000759F502D11245C83F90154912F5F3F4FE3
:101D6000F9012491352F2230310508F06AC06E9CAC
:101D7000C0016F9C900D1124689FF001699FF00DC8
:101D800011240E0F1F1F512CED81FE81F481FA8367
:101D9000ED81FE812580F585FB83862C912CAA247C
:101DA000A394B12C312C8981381608F086C0412CBF
:101DB000ED81FE818189481608F078C08B81858786
:101DC000311002C0442041F0ED81FE8145814F5F1A
:101DD0006A81CF010E94860DD12CC12CC61408F057
:101DE00058C0F801EC0DFD1D7490552061F0EA1407
:101DF000FB0449F4E72DF0E0052C02C0F595E795CA
:101E00000A94E2F77E2EED81FE818189823081F491
:101E1000442009F43AC072948FE07822E72DF0E074
:101E2000ED5EFE4F7490672D8D819E810E943C0D6A
:101E3000672D8D819E810E943C0D8FEFC81AD80AB4
:101E4000CDCF477028E0522E541A411101C0512CB9
:101E5000F801612C30E020E0661631F04491240F47
:101E6000311D63943196F8CF600E712E711CF30111
:101E70006490E29EF001E39EF00DF29EF00D1124BD
:101E80008E0F9F1F080F191F7FCFF72DFF707F2E1A
:101E9000C5CFD12CEC81DE1639F060E08D819E81BA
:101EA0000E943C0DD394F6CF439482CF3394080D17
:101EB000191DFFEFAF1ABF0A76CF622D20CF90E039
:101EC00080E0DECE0F93CF93DF93EC011B861A8662
:101ED00060E40E94590D0F81069506950695015004
:101EE0004E81415020E060E0CE010E94980DDF91CC
:101EF000CF910F9108950F931F93CF93DF9320916C
:101F00000A022F5F322F377030930A0220FF2BC056
:101F100020E831FD2064347009F02062205FFC016C
:101F2000EC01239600E011E06485662329F070E05F
:101F3000C8010E94B0246F5F6187322F369F030E65
:101F400030E0311D1124311110C01682662311F0CA
:101F5000615061873196EC17FD0731F7DF91CF9122
:101F60001F910F91089520E0D4CF31503683EECFEA
:101F70004F925F926F927F928F92AF92BF92CF9269
:101F8000DF92EF920F931F93CF93DF933C01EB010E
:101F90000E947407F30127853089621B730B6A3036
:101FA0007105B0F3F894E881F98175B1706265B19B
:101FB0006F7D65B9C9848E812C2D281B822F2E83BD
:101FC000BF844A805B801C850D85DE841F5F0F5FA8
:101FD000D3949F813885AA84EB844081D20120E08C
:101FE000C32F522F322F3081442788943111380F5C
:101FF00008F43FEF8195889410FD430F479588942E
:1020000011FD430F4795889412FD430F479588941F
:1020100013FD430F4795889414FD430F479588940B
:1020200015FD430F4795889416FD430F47958894F7
:1020300017FD430F47958894232F1111242F8C0DE2
:10204000422F002C75B900C047FF65B931812227A6
:10205000889400C000C0002C65B93111390F00C050
:10206000002C75B900C046FF65B908F43FEF9195A3
:10207000889400C000C0002C65B900FD230F00C08B
:10208000002C75B900C045FF65B92795889401FDFE
:10209000230F00C000C0002C65B92795889400C0AC
:1020A000002C75B900C044FF65B902FD230F2795C8
:1020B000889400C000C0002C65B903FD230F00C048
:1020C000002C75B900C043FF65B92795889404FDBD
:1020D000230F00C000C0002C65B92795889400C06C
:1020E000002C75B900C042FF65B905FD230F279587
:1020F000889400C000C0002C65B906FD230F00C005
:10210000002C75B900C041FF65B92795889407FD7B
:10211000230F00C000C0002C65B92795889400C02B
:10212000002C75B900C040FF65B9432F0111422F43
:102130009A0D00C000C0002C65B900C000C0002C82
:1021400075B900C047FF65B932812227889400C065
:1021500000C0002C65B931113C0F00C0002C75B9CE
:1021600000C046FF65B908F43FEFEB0DF11D00C05C
:1021700000C0002C65B9D0FC230F00C0002C75B93D
:1021800000C045FF65B927958894D1FC230F00C096
:1021900000C0002C65B92795889400C0002C75B943
:1021A00000C044FF65B9D2FC230F2795889400C076
:1021B00000C0002C65B9D3FC230F00C0002C75B9FA
:1021C00000C043FF65B927958894D4FC230F00C055
:1021D00000C0002C65B92795889400C0002C75B903
:1021E00000C042FF65B9D5FC230F2795889400C035
:1021F00000C0002C65B9D6FC230F00C0002C75B9B7
:1022000000C041FF65B927958894D7FC230F00C013
:1022100000C0002C65B92795889400C0002C75B9C2
:1022200000C040FF65B9432FD110422FC19500C0B7
:1022300000C0002C65B9CE0D00C000C075B900C04B
:1022400047FF65B930812227889400C000C0002C68
:1022500065B93111380F00C0002C75B900C046FFB8
:1022600065B908F43FEF8195889400C000C0002C48
:1022700065B910FD230F00C0002C75B900C045FFE3
:1022800065B92795889411FD230F00C000C0002C6C
:1022900065B92795889400C0002C75B900C044FF2B
:1022A00065B912FD230F2795889400C000C0002C4B
:1022B00065B913FD230F00C0002C75B900C043FFA2
:1022C00065B92795889414FD230F00C000C0002C29
:1022D00065B92795889400C0002C75B900C042FFED
:1022E00065B915FD230F2795889400C000C0002C08
:1022F00065B916FD230F00C0002C75B900C041FF61
:1023000065B92795889417FD230F00C000C0002CE5
:1023100065B92795889400C0002C75B900C040FFAE
:1023200065B9432F1111422F8C0D00C000C0002C45
:1023300065B9119709F086CE20EE31E0D2010E94F6
:10234000EC24DC01CB01F4E0B695A7959795879531
:10235000FA95D1F730E020E0B901EAE94E9E040C8D
:10236000611D5E9E600D711D1124650D711D860F2E
:10237000971FA11DB11D893E43E09407A105B1053A
:1023800008F434C0885E9340A109B10942E0B695D3
:10239000A795979587954A95D1F747E0849F080EB2
:1023A000211D949F200D311D1124290F311D609195
:1023B000090270E0860F971F820F931F40919C02C5
:1023C00050919D0260919E0270919F02292F3327A8
:1023D000420F531F611D711D40939C0250939D023B
:1023E00060939E0270939F028093090278940E94EA
:1023F0007407F301708B6787DF91CF911F910F9165
:10240000EF90DF90CF90BF90AF908F907F906F90C4
:102410005F904F900895259A08950F931F93CF933F
:10242000DF93CDB7DEB762970FB6F894DEBF0FBE6D
:10243000CDBF8C01F901DC011C968C917A836983F4
:102440005C834B835E834D8390819D8791819E87C2
:1024500092819F878130F1F4CE0101960E947B0F1B
:1024600083E0888B1A8A198AD801ED91FC91048443
:10247000F585E02DBE016F5F7F4FC801099562961B
:102480000FB6F894DEBF0FBECDBFDF91CF911F9185
:102490000F9108951C861B861A86198618861F823E
:1024A000DFCF0F931F93CF93DF93CDB7DEB7629744
:1024B0000FB6F894DEBF0FBECDBF8C01F901DC0171
:1024C0001C968C917A8369835C834B835E834D83F6
:1024D00090819D8791819E8792819F878130E9F4C9
:1024E000CE0101960E947B0F188A1A8A198AD80198
:1024F000ED91FC910484F585E02DBE016F5F7F4F67
:10250000C801099562960FB6F894DEBF0FBECDBF25
:10251000DF91CF911F910F9108951C861B861A861B
:10252000198618861F82E0CF90E080E00895FC01B4
:10253000858596850895CF93DF9300D000D000D095
:10254000CDB7DEB7AB011C821D821E82DC01ED918E
:10255000FC910190F081E02D19821A821B829E016C
:102560002F5F3F4FBE016C5F7F4F099526960FB6D8
:10257000F894DEBF0FBECDBFDF91CF910895FC016F
:102580009C01285F3F4F90E080E04481411101961B
:1025900014823196E217F307C1F70895CF93DF93C2
:1025A00080E293E00E94BF12EC01892B21F080E2CF
:1025B00093E00E94230CCE01DF91CF910895CF9339
:1025C000DF93DC0190E2960F9830B0F414968C9172
:1025D000149721E030E001C0220F9A95EAF74423D6
:1025E00041F0282B14962C9381E090E0DF91CF915D
:1025F000089520952823F6CFFD0136964423D1F087
:10260000CD010C96EF012991621771F3C817D90714
:10261000D1F790E080E02191211105C0A80FB91FEA
:1026200016966C93E1CF019686309105A1F790E064
:1026300080E0DCCF90E080E02191621305C0A80F1C
:10264000B91F16961C92D0CF019686309105A1F73E
:10265000EECFCF93DF9341E0682F80E293E00E94BA
:10266000DF12EC01892B21F080E293E00E94230C21
:10267000CE01DF91CF9108951F93CF93DF93182F51
:102680000E942913EC01892B61F040E0612F80E268
:1026900093E00E94DF12892B21F080E293E00E94F8
:1026A000230CCE01DF91CF911F9108958F929F92BD
:1026B000AF92BF92CF92DF92EF92FF92CF93DF93D0
:1026C0000E94CB076B017C01809187029091880268
:1026D000A0918902B0918A0246015701881A990A8D
:1026E000AA0ABB0A8EE088169104A104B104A8F1DD
:1026F00087E00E940507EC0181E00E940507209118
:102700000602C817D90709F049C0211106C08EE793
:1027100088169104A104B104A8F0809161029091FF
:1027200062020196909362028093610280917D0221
:1027300090917E020097E1F482E70E943C1381E0D1
:102740008093060281E080937C02C0928702D0923F
:102750008802E0928902F0928A02DF91CF91FF9085
:10276000EF90DF90CF90BF90AF909F908F900895A3
:102770008130910511F48FE4E0CF029701F780EEEC
:102780000E9429138CE10E94291361E170E080E02E
:1027900090E00E9499070E94CE12D1CF222331F0FF
:1027A0008EE788169104A104B10460F28091610261
:1027B00090916202019790936202809361028091EE
:1027C0007D0290917E02009731F481E70E943C13D4
:1027D00010920602B7CF8130910511F480E5F6CF53
:1027E0000297B1F780EE0E9429138DE10E94291310
:1027F00061E170E080E090E00E9499070E94CE12B3
:10280000E7CFFC016093BC008091BC0087FFFCCF48
:102810009091B900987F90830895DF92EF92FF9294
:102820000F931F93CF93DF93EC01D62EF42E8C8958
:10283000882351F0411108C084E98093BC00809145
:10284000BC0084FDFCCF1C8A8E010E5E1F4F8C895C
:1028500081111AC0EB8864EAC8010E9401148A89B8
:10286000883011F0803139F4EE0CE092BB0064E85E
:10287000C8010E94011480E0F11080E48093BB0045
:1028800064E8C8010E940114D092BB0064E8C8014A
:102890000E94011482E0F8120BC08C898F5F8C8B30
:1028A000DF91CF911F910F91FF90EF90DF900895EE
:1028B00084E98093BC008091BC0084FDFCCF1C8A1D
:1028C000EFCF089590E080E008958F929F92AF92AD
:1028D000BF920F931F93CF93DF93CDB7DEB7A1972E
:1028E0000FB6F894DEBF0FBECDBF19A2423008F478
:1028F0004AE08E010F5D1F4F842E912CB12CA12C2C
:10290000A50194010E94C424E62FB901CA01EA304E
:1029100044F5E05DD801EE938D01232B242B252B6C
:1029200079F790E080E0109769F0FD0101900020B8
:10293000E9F73197AF014A1B5B0BBD0184E493E0DB
:102940000E94460AA1960FB6F894DEBF0FBECDBF17
:10295000DF91CF911F910F91BF90AF909F908F907B
:102960000895E95CD7CFFC0101900020E9F7319789
:10297000AF01481B590BBC0184E493E00C94460A58
:10298000CF92DF92EF92FF92CF93DF936C01990F7A
:10299000EE08FF08F7FE19C06DE284E493E00E94A0
:1029A000F70DEC0166277727CB016C197D098E099D
:1029B0009F094AE00E9465148C0F9D1FDF91CF9103
:1029C000FF90EF90DF90CF9008954AE0C701B601E5
:1029D000DF91CF91FF90EF90DF90CF900C94651432
:1029E000CF93DF93EC0142E060E084E493E00E9447
:1029F000860D8BE992E00E945305CE0168E070E0FD
:102A00000E94B02497FD0896DF91CF910C94C014DA
:102A1000AF92BF92CF92DF92EF92FF920F931F93EC
:102A2000CF93DF934F3F540709F45CC07A016B01E9
:102A3000EC0140E060E084E493E00E94860D85ECC8
:102A400090E00E94530510924D038E01D7FF02C003
:102A5000015C1F4F36E0159507953A95E1F7B12CCB
:102A6000A12CA016B10644F483E891E00E94B314AF
:102A70008FEFA81AB80AF5CFD7FD2796CE0123E02D
:102A8000959587952A95E1F768E070E00E94B0245B
:102A900001960E94C0140F5F1F4F003111052CF4E6
:102AA00083E891E00E94B314F6CFEF28D9F487EEC3
:102AB00092E00E94530541E062E384E493E00E94C7
:102AC000860DC6010E94C01485E891E0DF91CF9188
:102AD0001F910F91FF90EF90DF90CF90BF90AF903C
:102AE0000C94B314DF91CF911F910F91FF90EF9051
:102AF000DF90CF90BF90AF9008950F931F93CF9327
:102B0000DF9300D01F92CDB7DEB78C010F3F1007C7
:102B100091F48091770281110EC028985D9884E429
:102B200093E00E94620F0F900F900F90DF91CF9172
:102B30001F910F910895289A5D9A0F3F100779F31E
:102B400080917702811197C08AE5089F802D11241A
:102B5000865F89838FEF8A8380E48B83CE01019621
:102B60000E946505809105030E94D70787EE92E0D9
:102B70000E94530541E060E084E493E00E94860DEA
:102B800084E493E00E94CD0D8AE891E001151105DF
:102B900051F082E991E00130110529F00230110570
:102BA00021F487E991E00E94B31442E06AE084E4F2
:102BB00093E00E94860D84E493E00E94CD0D81EAAB
:102BC00091E00115110551F08EEA91E001301105F7
:102BD00029F00230110521F487EB91E00E94B31433
:102BE00043E06AE084E493E00E94860D84E493E08D
:102BF0000E94CD0D83EC91E00115110551F088EC98
:102C000091E00130110529F00230110521F48EEC1C
:102C100091E00E94B31443E06AE484E493E00E94EC
:102C2000860D86ED91E00115110551F08DED91E0D5
:102C30000130110529F00230110521F482EE91E0F6
:102C40000E94B3148BE992E00E94530543E060E0D8
:102C500084E493E00E94860D89E090E00E94C01415
:102C600043E060E484E493E00E94860D89E090E014
:102C70000E94C01458CF19821A821B826FCF0E9403
:102C800021254F925F926F927F928F929F92AF9287
:102C9000BF92CF92DF92EF92FF92CF93DF93C091DA
:102CA0005D02D0915E026091070270910802C53FFB
:102CB00081E0D8070CF069C0BE010D2E000C880B16
:102CC000990B0E9423236B017C0160915902709142
:102CD0005A0280915B0290915C020E942323A7011B
:102CE00096010E9479224B015C016091550270911E
:102CF000560280915702909158020E942323A70107
:102D000096010E9479222B013C01A5019401C50185
:102D1000B4010E94B4239B01AC01C301B2010E9423
:102D20000C22A70196010E94B4236B017C01BE0115
:102D300061507109072E000C880B990B0E94232308
:102D40009B01AC01C701B6010E9479220E94272491
:102D500020E030E048EC52E40E94B4236B017C0197
:102D600020E030E0A9010E94AF2320E030E040E005
:102D70005FE387FD1AC0C701B6010E940D220E94C1
:102D8000EB227093080260930702CB01DF91CF9191
:102D9000FF90EF90DF90CF90BF90AF909F908F907B
:102DA0007F906F905F904F900895C701B6010E9489
:102DB0000C22E5CF1F920F920FB60F9211242F9382
:102DC0003F938F939F93AF93BF9380919C02909179
:102DD0009D02A0919E02B0919F0230919B0223E040
:102DE000230F2D3758F50196A11DB11D20939B028D
:102DF00080939C0290939D02A0939E02B0939F02A9
:102E00008091A0029091A102A091A202B091A30290
:102E10000196A11DB11D8093A0029093A102A093E1
:102E2000A202B093A302BF91AF919F918F913F9166
:102E30002F910F900FBE0F901F90189526E8230F2B
:102E40000296A11DB11DD2CF1F920F920FB60F9205
:102E500011242F933F934F935F936F937F938F939F
:102E60009F93AF93BF93EF93FF93E0911301F09182
:102E700014010995FF91EF91BF91AF919F918F91AF
:102E80007F916F915F914F913F912F910F900FBE66
:102E90000F901F9018951F920F920FB60F9211244A
:102EA0002F933F934F935F936F937F938F939F9352
:102EB000AF93BF93EF93FF93E0911101F091120153
:102EC0000995FF91EF91BF91AF919F918F917F9164
:102ED0006F915F914F913F912F910F900FBE0F9087
:102EE0001F9018951F920F920FB60F9211242F93D7
:102EF0003F934F935F936F937F938F939F93AF9382
:102F0000BF93EF93FF93E0910F01F09110010995AA
:102F1000FF91EF91BF91AF919F918F917F916F91B1
:102F20005F914F913F912F910F900FBE0F901F9087
:102F300018951F920F920FB60F9211242F933F9363
:102F40004F935F936F937F938F939F93AF93BF93B1
:102F5000EF93FF93E0910D01F0910E010995FF9120
:102F6000EF91BF91AF919F918F917F916F915F9101
:102F70004F913F912F910F900FBE0F901F9018957A
:102F80001F920F920FB60F9211242F933F934F93DE
:102F90005F936F937F938F939F93AF93BF93EF93C1
:102FA000FF93E0910B01F0910C010995FF91EF91D6
:102FB000BF91AF919F918F917F916F915F914F9151
:102FC0003F912F910F900FBE0F901F9018951F9259
:102FD0000F920FB60F9211248F939F938091E1006F
:102FE0009091E100937F9093E10083FF0FC01092D6
:102FF000E90091E09093EB001092EC0092E3909343
:10300000ED001092A50298E09093F00082FF22C09C
:1030100093E09093E9009091F200992319F09AE3DC
:103020009093E80090913502992341F090913502F8
:10303000915090933502911101C05D989091A40236
:10304000992341F09091A40291509093A402911180
:1030500001C0289884FF18C08091E2008E7E8160B4
:103060008093E2008091E1008F7E8093E100809167
:1030700036028E7E8061809336029F918F910F90F1
:103080000FBE0F901F90189580FFF7CF8091E20040
:103090008E7E80618093E2008091E1008E7E80933D
:1030A000E100809136028E7E8160E5CF1F920F9203
:1030B0000FB60F921124CF92DF92EF92FF920F93EF
:1030C0001F932F933F934F935F936F937F938F93B0
:1030D0009F93AF93BF93EF93FF93CF93DF93CDB7BE
:1030E000DEB76C97DEBFCDBF1092E9008091E8009B
:1030F00083FF25C068E0CE0145960E94390A82EF21
:103100008093E8008D8987FF39C09091E80090FF97
:10311000FCCF982F907609F034C19E894F89588D45
:103120002F89F88C911131C0803861F58091370278
:103130008093F1001092F1008EEF8093E8006C967E
:103140000FB6F894DEBF0FBECDBFDF91CF91FF91D8
:10315000EF91BF91AF919F918F917F916F915F910F
:103160004F913F912F911F910F91FF90EF90DF9022
:10317000CF900F900FBE0F901F9018959EEF9093D9
:10318000E800C7CF1092F100D5CF913059F48111EA
:10319000D3CF4130510581F6809137028D7F8093E6
:1031A0003702CACF933049F48111C6CF413051055F
:1031B00019F6809137028260F2CF953041F4809108
:1031C000E80080FFFCCF20682093E300B5CF963065
:1031D00009F0A9C00B8D1C8D22E01092E90010921D
:1031E000330210923202F2122EC01092310210926B
:1031F00030020E94870A1F8299E09983FA8291E047
:103200009E8390EA98879AEF9987209132023091B5
:103210003302275F3F4F3C832B838D831092E9005D
:103220001092330210923202109331020093300256
:1032300049E050E0BE016F5F7F4F80E00E944D0982
:103240000E94870A79CF10933102009330020E94C6
:10325000730ADC0112960D911C910115110509F4F8
:1032600051C1D801ED91FC910480F581E02DBE01A2
:103270006B5E7F4FC8010995009709F03EC1F801C8
:1032800000851185EACFF3E0FF120EC08F898823F5
:1032900009F440C0823061F440E86DE087E892E0D4
:1032A0000E941A09811148CF81E28093EB0047CF39
:1032B000813029F440E86BE08BE792E0F1CF833076
:1032C00099F70E94730ADC011296ED90FC908E0132
:1032D0000F5F1F4F6801E114F10479F0D701ED9100
:1032E000FC910680F781E02DB801C7010995080F10
:1032F000111DF701E084F184EECFD8011C92F60194
:1033000001900020E9F73197BF016C197D0940E079
:10331000C601C6CF65E672E0FB01449150E080E84B
:103320000E944D0909CF973009F4BECF983021F49F
:1033300081E08093F10000CF993009F0FDCE8370D9
:1033400009F0B2CFE1E0F1E081E031E096E32191D4
:10335000222371F08093E9003093EB00DF01119795
:103360002C912093EC009093ED008F5F873079F7DC
:103370008EE78093EA001092EA008F898093A5027D
:10338000DBCE8B8D9C8D1092E9001092330210924F
:1033900032029093310280933002898D811192C064
:1033A0008E899D89913A49F4813209F07DCF47E0B9
:1033B00050E065E171E080E0B3CF913209F074CF65
:1033C000833269F48F89988DB0E0A0E08093070183
:1033D00090930801A0930901B0930A01ADCE803209
:1033E00069F48091E80082FFFCCF67E085E191E01D
:1033F0000E94390A8BEF8093E8009ECE823209F05A
:103400009BCE8F8980931C01EEEFFFE7859194910D
:103410008B3F9C4D51F1E0E0F8E0809115019091D7
:103420001601A0911701B0911801803B9440A105AD
:10343000B105F1F480911C0180FD1AC0EE3F8AE0D5
:10344000F80789F587E797E791838083809160008B
:103450008093340288E19BE00FB6F894A89580939E
:1034600060000FBE9093600067CEEEEFFAE0D5CF1C
:10347000808191818737974709F05ECEA89580912A
:1034800060008861809360008091340280936000C6
:10349000EE3F2AE0F20789F08091FE0A9091FF0A40
:1034A0009183808349CE808191818737980751F23B
:1034B0009093FF0A8093FE0AC5CF1092FF0A1092E4
:1034C000FE0A3ACE0E94730ADC0112960D911C91FD
:1034D0000115110509F4E8CED801ED91FC91019098
:1034E000F081E02DBE016B5E7F4FC801099581110F
:1034F00023CEF80100851185EBCF181619060CF4C0
:103500001BCED2CEF1E0FF12BECE69E672E004CF50
:103510001092B8021092B70288EE93E0A0E0B0E0FB
:103520008093B9029093BA02A093BB02B093BC02FD
:103530008FE491E09093B6028093B5028FEF9FEFF6
:103540009093C2028093C1028093050310920703F7
:103550001092060310921103109210038FEF9FEF49
:10356000DC0180930C0390930D03A0930E03B093A2
:103570000F03109223031092220381E691E09093AF
:1035800021038093200380911803811113C01092AE
:103590001303109212038CEF99E09093150380931C
:1035A00014038BE390E0909317038093160381E05C
:1035B000809318030E94B10BFC01A385B48510977A
:1035C00009F059C082E193E09487838785859685C9
:1035D0002091160330911703820F931F96878587DA
:1035E00083E791E090933B0380933A038091320309
:1035F000811113C010922D0310922C0387E39AE0DF
:1036000090932F0380932E0389E190E090933103F0
:103610008093300381E0809332030E94B10BFC0160
:10362000A385B485109791F58CE293E09487838706
:10363000858596852091300330913103820F931F49
:103640009687858710924703109246031092500385
:10365000109251031092530310925203109254038C
:1036600081E08093550389E791E09093450380932F
:1036700044030895DC018D919C9111970097D1F737
:1036800082E193E08D939C93A1CFDC018D919C917D
:1036900011970097D1F78CE293E08D939C93C8CF5C
:1036A000CF93DF9300D000D01F92CDB7DEB77894D0
:1036B00084B5826084BD84B5816084BD85B5826037
:1036C00085BD85B5816085BD80916E0081608093E8
:1036D0006E00109281008091810082608093810051
:1036E0008091810081608093810080918000816061
:1036F00080938000809191008260809391008091FE
:10370000910081608093910080919000816080930E
:1037100090008091C10084608093C1008091C100BD
:1037200082608093C1008091C10081608093C1005C
:103730008091C30081608093C3008091C00082604B
:103740008093C0008091C20081608093C20080910C
:103750007A00846080937A0080917A0082608093FE
:103760007A0080917A00816080937A0080917A005B
:10377000806880937A001092A5021092370210920E
:1037800036028091D70081608093D70080EA8093D1
:10379000D80089B5806189BD89B5826089BD09B4C9
:1037A00000FEFDCF61E070E080E090E00E949907AC
:1037B0008091D8008F7C80618093D8008091E00058
:1037C000807F8093E0008091E1008E7E8093E10015
:1037D0008DE08093E200559A209A5D98289880E2C7
:1037E00093E00E94BF1280E293E00E94230C1092AB
:1037F00058038CE3809357031092B9008CE08093B8
:10380000B8001092480310924903E5E9F2E085916F
:103810009491E82EE7E9F2E0F490E8E9F2E0E4912F
:10382000E0934A03E9E9F2E0E491E0934B03EAE92B
:10383000F2E0E491E0934C038C01802F8E198F15F8
:1038400048F4F801649184E493E00E94590D0F5FFD
:103850001F4FF3CF84E493E00E94620F60EA84E498
:1038600093E00E94590D60EC84E493E00E94590DAE
:1038700066EA84E493E00E94590D81E00E943606D6
:1038800087E00E94360686E593E1909312018093CB
:103890001101809169008F7380936900EB9A86E033
:1038A0000E94360685E00E94360684E00E943606B5
:1038B00080914B02811145C010923D0210923C0252
:1038C0008FEF809340028093410280934202809365
:1038D0004302809344028093450281E08093460234
:1038E000109248021092470210923F0210923E023C
:1038F0008091AF029091B002892B31F48AE392E07B
:103900009093B0028093AF02E0913802F0913902B7
:10391000309721F08AE392E0958384838AE392E0F2
:10392000909339028093380210924A021092490211
:103930008DE391E090933B0280933A0281E0809383
:103940004B02259A86EA92E090933D0280933C02D6
:1039500081E090E0909348028093470280910803B1
:1039600090910903A0910A03B0910B03843CF9E004
:103970009F07A105B10520F484EC99E0A0E0B0E038
:103980008093080390930903A0930A03B0930B0359
:1039900019821A821B82CE0101960E9465050E943F
:1039A000170690936C0280936B02BC01990F880BF1
:1039B000990B0E94232320E030E048EC5DE30E9455
:1039C000B42320E030E040E05FE30E94B4236B01C9
:1039D0007C0120E030E0A9010E94AF2320E030E02C
:1039E00040E05FE387FDB3C1C701B6010E940D222D
:1039F0000E94EB22660F771F70937402609373022C
:103A0000E0906F02F09070020091650210916602E2
:103A100084E493E00E94620F90E080E00E947D15B4
:103A200050E040E0B701C8010E94081580917D0276
:103A300090917E02019621F090E080E00E94F014C7
:103A400044E6842E912C0E94CB0760937F027093F2
:103A50008002809381029093820286E00E94050793
:103A6000892B09F055C000917D0210917E020E94C1
:103A7000CB07C0908B02D0908C02E0908D02F0902A
:103A80008E026C197D098E099F096D327140810586
:103A90009105F0F10E94CB0760938B0270938C022A
:103AA00080938D0290938E02023011050CF054C168
:103AB0000F5F1F4F10937E0200937D0280917D0265
:103AC00090917E02009709F04EC100916102109121
:103AD0006202C0907302D0907402E0906302F09092
:103AE000640284E493E00E94620F90E080E00E9410
:103AF0007D1550E040E0B601C7010E940815809195
:103B00007D0290917E02019619F0C8010E94F01486
:103B100085E00E94050700917D0210917E02892BAD
:103B200071F50E94CB07C0908F02D0909002E09078
:103B30009102F09092026C197D098E099F096D32F5
:103B4000714081059105D8F00E94CB0760938F02E8
:103B500070939002809391029093920283E70115F3
:103B6000110529F00130110509F000C181E50E941D
:103B70003C1385E090E090937B0280937A0284E08E
:103B80000E940507892B59F50E94CB07C09093022C
:103B9000D0909402E0909502F09096026C197D0905
:103BA0008E099F096D32714081059105C0F00E9418
:103BB000CB07609393027093940280939502909345
:103BC00096020115110509F002C18FE70E943C130E
:103BD00035E0E32EF12CF0927902E0927802009128
:103BE0006F02109170021093720200937102E090C4
:103BF0006D02F0906E02F0927002E0926F02C0903F
:103C00006B02D0906C02D0926E02C0926D020E9444
:103C1000170690936C0280936B02880F991F8C0D8E
:103C20009D1D8E0D9F1D800F911F65E070E00E940D
:103C3000B0248B0170937602609375026034710535
:103C40000CF0FDC0000F111F000F111F1093640234
:103C500000936302B801012E000C880B990B0E949F
:103C600023232B013C01AC019B0160E070E080E06C
:103C700094E40E940C2220E030E040EA51E40E94EB
:103C800079226B017C0120E030E0A9010E94AF2382
:103C900020E030E040E05FE387FD0DC1C701B601E1
:103CA0000E940D220E94EB227093660260936502CF
:103CB0008091670290916802861B970B9093540243
:103CC000809353028091690290916A02801B910B4C
:103CD0004896C19720F41092540210925302A0907B
:103CE0005302B0905402A114B10409F451C1312C13
:103CF000212CCC24DD24CA18DB08DD82CC82E090A4
:103D00007D02F0907E02C0907302D0907402C501D3
:103D1000B7FE02C08C819D81281639060CF0F5C0D3
:103D20001A141B040CF0DAC0E114F10409F0C8C045
:103D300089EE90E00E94040D22E0C20ED11CD092C8
:103D40007402C09273022FEF221A320AD8CFC70131
:103D5000B6010E940C224CCE8FEF9FEF90937E0213
:103D600080937D02ABCE0E947D15D2CE023011052C
:103D700091F480EE0E94291382EE0E94291388E1BB
:103D80000E94291361E170E080E090E00E949907B1
:103D90000E94CE12EECE0F3F100709F0EACE10922D
:103DA0005E0210925D021092590210925A02109215
:103DB0005B0210925C021092550210925602109211
:103DC00057021092580231E030935F02D2CE013098
:103DD0001105C1F482E50E943C1361E170E080E0CE
:103DE00090E00E94990780EE0E94291387E20E94CA
:103DF000291361E170E080E090E00E9499070E9441
:103E0000CE12E6CE0230110529F480EE0E9429136D
:103E10008BE0EDCF0F3F1F4F09F0DACE80916002AB
:103E2000CC24C3948C2580936002809177028C25EA
:103E30008093770284E493E00E94620FC9CE072E3C
:103E4000000C880B990B0E9423230F3B13400CF5A9
:103E50002AE534E64BE15FE30E94B42323E333E336
:103E600049E553E40E940D226B017C0120E030E023
:103E7000A9010E94AF2320E030E040E05FE387FD2E
:103E800015C0C701B6010E940D220E94EB228B01D2
:103E9000DDCE2CE53FE842E650E40E94B42326E65E
:103EA00036E642E255E40E940C22DECFC701B6019D
:103EB0000E940C22EACFC701B6010E940C22F2CE6A
:103EC0008EE231E0E316F10431F082E0E816F1040D
:103ED00009F039CF82E50E943C1335CFE114F1049B
:103EE00041F48AEE90E00E94040D92E0C91AD108D4
:103EF00026CF8DE2E1E0EE16F10469F3F2E0EF1671
:103F0000F10409F020CF81E5E6CF35E6C316D104F0
:103F100038F120E030E048EC5DE3C301B2010E94DB
:103F2000B42320E030E040E05FE30E94B4232B01A3
:103F30003C0120E030E0A9010E94AF2320E030E006
:103F400040E05FE387FDC5C1C301B2010E940D22BD
:103F50000E94EB22660F771F7093740260937302C6
:103F60006091730270917402A701C8010E94081544
:103F70008091650290916602909368028093670237
:103F8000809163029091640290936A028093690227
:103F90000E94CB0760938302709384028093850212
:103FA0009093860200917D0210917E0280917C02A6
:103FB000882359F00F3F100741F0809161029091E2
:103FC00062020E94F01410927C0280917A02909119
:103FD0007B02009709F082C10F3F100771F08BE957
:103FE00092E00E94530543E060E484E493E00E9481
:103FF000860D89E090E00E94C01480917802909133
:104000007902009709F090C10F3F1F4F71F08BE9C3
:1040100092E00E94530543E060E084E493E00E9454
:10402000860D89E090E00E94C01480917D029091FD
:104030007E02019609F03DC10E94CB076093970272
:10404000709398028093990290939A02209177023C
:10405000211190C12091630230916402A901440FA3
:10406000551F240F351F37FF02C0215F3F4FF4E07B
:1040700035952795FA95E1F710E4120F009161024A
:104080002AE030E040E050E00E94C42429830A8303
:104090001B83CE0101960E946505809105030E9455
:1040A000D70780916002811104C18DEC94E00E94D9
:1040B000530540E060E084E493E00E94860D89EEC1
:1040C00091E00E94B31487EE92E00E94530540E015
:1040D0006DE384E493E00E94860D809175029091D7
:1040E0007602883E934024F488E891E00E94B3145D
:1040F00080917502909176020E94C0148FEE91E03B
:104100000E94B3148091630290916402883E9340B0
:1041100024F488E891E00E94B314809163029091A6
:1041200064020E94C01441E06DE684E493E00E94C2
:10413000860D8091610290916202845691098933C3
:104140009F4F20F088E891E00E94B31480916102B3
:1041500090916202181619060CF010C183EF91E0DD
:104160000E94B31480916102909162020E94C01477
:1041700080915F02882399F180915D0290915E02A7
:10418000843F11E091070CF4FFC010925F0242E0FF
:104190006FE484E493E00E94860D85EF91E00E9435
:1041A000B3140E944116B4010E94B024CB010E94B6
:1041B000C0148AEF91E00E94B3140E944116B4012A
:1041C0000E94B0240A9724F483E891E00E94B3147B
:1041D0000E944116B4010E94B0240E94C01443E022
:1041E00063E484E493E00E94860D0E94CB07AB0158
:1041F000BC0180917F0290918002A0918102B091D8
:104200008202C12CD12C7601C394C81AD90AEA0AB9
:10421000FB0AD701C601840F951FA61FB71F0A9777
:10422000A105B10520F488E891E00E94B3140E9432
:10423000CB0700917F021091800220918102309182
:104240008202C12CD12C7601C394C01AD10AE20A91
:10425000F30A97018601600F711F821F931F4AE0C6
:104260000E9465148CEF91E00E94B3148FEF91E0EF
:104270000E94B31460919702709198028091990204
:1042800090919A026F5F7F4F8F4F9F4F00917F02F7
:10429000109180022091810230918202601B710B8B
:1042A000820B930B4AE00E94651482E092E00E9428
:1042B000B31461E070E080E090E00E94990780E034
:1042C000E82E80E0F82EEF2809F4BDCB0E94000014
:1042D000BACBC301B2010E940C223ACE18161906BD
:1042E0000CF08BCE0F3F100709F487CE8BE992E0DC
:1042F0000E94530543E060E484E493E00E94860D4D
:1043000088E090E00E94C01485E00E940507892B98
:1043100009F473CE80917A0290917B020197909379
:104320007B0280937A0269CE181619060CF07DCEB6
:104330000F3F1F4F09F479CE8BE992E00E9453059D
:1043400043E060E084E493E00E94860D88E090E022
:104350000E94C01484E00E940507892B09F465CEF1
:1043600080917802909179020197909379028093DD
:1043700078025BCE19821A821B828BCE892B09F0C0
:10438000F1CE88E891E0ECCE609163027091640216
:10439000019690935E0280935D02072E000C880BBD
:1043A000990B0091590210915A0220915B023091B1
:1043B0005C02060F171F281F391F00935902109324
:1043C0005A0220935B0230935C020E9423236B010C
:1043D0007C01609155027091560280915702909134
:1043E00058020E9423232B013C01A7019601C7011B
:1043F000B6010E94B4239B01AC01C301B2010E942B
:104400000D220E94EB226093550270935602809316
:10441000570290935802BBCE5058BB27AA270E9440
:1044200024220C9475230E94672338F00E946E2387
:1044300020F039F49F3F19F426F40C9464230EF411
:10444000E095E7FB0C945E23E92F0E94862358F346
:10445000BA17620773078407950720F079F4A6F569
:104460000C94A8230EF4E0950B2EBA2FA02D0B016F
:10447000B90190010C01CA01A0011124FF27591BA9
:1044800099F0593F50F4503E68F11A16F040A22FAF
:10449000232F342F4427585FF3CF46953795279520
:1044A000A795F0405395C9F77EF41F16BA0B620B1F
:1044B000730B840BBAF09150A1F0FF0FBB1F661F66
:1044C000771F881FC2F70EC0BA0F621F731F841FA9
:1044D00048F4879577956795B795F7959E3F08F0CF
:1044E000B0CF9395880F08F09927EE0F9795879591
:1044F00008950E948D220C9475230E946E2358F01B
:104500000E94672340F029F45F3F29F00C945E235A
:1045100051110C94A9230C9464230E94862368F300
:104520009923B1F3552391F3951B550BBB27AA276C
:1045300062177307840738F09F5F5F4F220F331FA6
:10454000441FAA1FA9F335D00E2E3AF0E0E832D06E
:1045500091505040E695001CCAF72BD0FE2F29D071
:10456000660F771F881FBB1F261737074807AB0743
:10457000B0E809F0BB0B802DBF01FF2793585F4FB8
:104580003AF09E3F510578F00C945E230C94A923D9
:104590005F3FE4F3983ED4F3869577956795B7959A
:1045A000F7959F5FC9F7880F911D9695879597F9A5
:1045B0000895E1E0660F771F881FBB1F621773071E
:1045C0008407BA0720F0621B730B840BBA0BEE1F33
:1045D00088F7E09508950E94F2226894B1110C9436
:1045E000A92308950E948E2388F09F5798F0B92F31
:1045F0009927B751B0F0E1F0660F771F881F991F18
:104600001AF0BA95C9F714C0B13091F00E94A823EE
:10461000B1E008950C94A823672F782F8827B85FFE
:1046200039F0B93FCCF3869577956795B395D9F76F
:104630003EF490958095709561957F4F8F4F9F4F79
:104640000895E89409C097FB3EF490958095709585
:1046500061957F4F8F4F9F4F9923A9F0F92F96E9CE
:10466000BB279395F695879577956795B795F11143
:10467000F8CFFAF4BB0F11F460FF1BC06F5F7F4FE0
:104680008F4F9F4F16C0882311F096E911C07723F2
:1046900021F09EE8872F762F05C0662371F096E8FB
:1046A000862F70E060E02AF09A95660F771F881FCA
:1046B000DAF7880F9695879597F9089597F99F6788
:1046C00080E870E060E008959FEF80EC089500249A
:1046D0000A941616170618060906089500240A9467
:1046E00012161306140605060895092E0394000CED
:1046F00011F4882352F0BB0F40F4BF2B11F460FF7C
:1047000004C06F5F7F4F8F4F9F4F089557FD9058A4
:10471000440F551F59F05F3F71F04795880F97FB85
:10472000991F61F09F3F79F087950895121613063F
:104730001406551FF2CF4695F1DF08C0161617066E
:104740001806991FF1CF86957105610508940895A3
:10475000E894BB2766277727CB0197F908950E9435
:10476000672408F48FEF08950E94C7230C947523E3
:104770000E94672338F00E946E2320F0952311F0E9
:104780000C945E230C94642311240C94A9230E949E
:10479000862370F3959FC1F3950F50E0551F629FDC
:1047A000F001729FBB27F00DB11D639FAA27F00D8A
:1047B000B11DAA1F649F6627B00DA11D661F829FB1
:1047C0002227B00DA11D621F739FB00DA11D621F96
:1047D000839FA00D611D221F749F3327A00D611DB3
:1047E000231F849F600D211D822F762F6A2F112495
:1047F0009F5750409AF0F1F088234AF0EE0FFF1FC8
:10480000BB1F661F771F881F91505040A9F79E3F1E
:10481000510580F00C945E230C94A9235F3FE4F3D0
:10482000983ED4F3869577956795B795F795E79574
:104830009F5FC1F7FE2B880F911D9695879597F97D
:10484000089519F416F40C9464230C948B240E949C
:104850008E23B8F39923C9F3B6F39F57550B87FFFF
:104860000E9499240024A0E640EA900180585695C1
:10487000979528F4805C660F771F881F20F0261715
:104880003707480730F4621B730B840B202931294A
:104890004A2BA69517940794202531254A2758F7C7
:1048A000660F771F881F20F026173707480730F458
:1048B000620B730B840B200D311D411DA09581F7F8
:1048C000B901842F9158880F969587950895990F6F
:1048D0000008550FAA0BE0E8FEEF16161706E807CA
:1048E000F907C0F012161306E407F50798F0621BEB
:1048F000730B840B950B39F40A2661F0232B242BC0
:10490000252B21F408950A2609F4A140A6958FEFDE
:10491000811D811D08959F3F31F0915020F48795AE
:1049200077956795B795880F911D9695879597F917
:10493000089591505040660F771F881FD2F7089551
:10494000DB018F939F930E94F324BF91AF91A29FAD
:10495000800D911DA39F900DB29F900D112408957D
:1049600097FB072E16F4009407D077FD09D00E941C
:10497000FE2407FC05D03EF4909581959F4F089545
:10498000709561957F4F0895A1E21A2EAA1BBB1B5B
:10499000FD010DC0AA1FBB1FEE1FFF1FA217B3070B
:1049A000E407F50720F0A21BB30BE40BF50B661F21
:1049B000771F881F991F1A9469F7609570958095E5
:1049C00090959B01AC01BD01CF010895EE0FFF1F33
:1049D0000590F491E02D09940E941225B7FF0895E7
:1049E000821B930B08950E941225A59F900DB49FE2
:1049F000900DA49F800D911D11240895AA1BBB1B2F
:104A000051E107C0AA1FBB1FA617B70710F0A61BCE
:104A1000B70B881F991F5A95A9F780959095BC01EF
:104A2000CD010895A29FB001B39FC001A39F700D57
:104A3000811D1124911DB29F700D811D1124911DA6
:104A4000089581E090E0F8940C942625F894FFCF27
:104A500000C18081000000FFFFFFFFEB08EB08EBC7
:104A600008EB08EB0800E100000000000000000077
:104A700000B80A660B2B0B100B000000003F163F1E
:104A8000163F169B12971294120000000051120D4F
:104A9000120B129B129712E808B80F000000008852
:104AA00006230A84099E06EB06A906C70600000035
:104AB00000CA0C460A62146114BF12230CDF1200F4
:104AC000000000F30C00000000F70D460A621461BC
:104AD000140D1430002520202000566F6C756D6574
:104AE0003A005A6F6F6D005570202F20446F776E1B
:104AF000004D6564696120566F6C756D6500526F7D
:104B0000746174696F6E00556E646F202F2052655A
:104B1000646F004D7574650052657365740052656D
:104B2000706C616365004F757470757400466C69D4
:104B3000700055706C6F6164004465627567002099
:104B40002F20002B0073643A20002E006D7300208C
:064B500028006D7329002E
:00000001FF
