:100000000C9429050C942D170C9406170C94DF16EC
:100010000C94B8160C9451050C9451050C9491163F
:100020000C9451050C9451050C9454170C94C3175F
:100030000C9451050C9451050C9451050C945105E8
:100040000C9451050C9451050C9451050C945105D8
:100050000C9451050C9451050C9451050C944716C1
:100060000C9451050C9451050C9451050C945105B8
:100070000C9451050C9451050C9451050C945105A8
:100080000C9451050C9451050C9451050C94510598
:100090000C9451050C9451050C9451050C94510588
:1000A0000C9451050C9451050C945105AED580A8C3
:1000B0001FD300408D142002A1C8DA02817FD9F13C
:1000C000DB40A4A6AF000008053009202020202036
:1000D000202020F82020202020202020F820202070
:1000E0002020202020F82020202020202020F82060
:1000F00020202020202020F8202020202020202028
:10010000F82020202020202020F82020202020203F
:100110002020F800030C0F30333C3FC0C3CCCFF09D
:10012000F3FCFF00000000000000000000000000E1
:100130000000002A002B0028000000000000000042
:1001400000000000000000000000000000000000AF
:10015000000000000000000000000000000000009F
:100160000000002C001E0234022002210222022480
:100170000234002602270225022E0236002D003707
:1001800000380027001E001F00200021002200234D
:10019000002400250026003302330036022E0037EB
:1001A0000238021F020402050206020702080209C1
:1001B000020A020B020C020D020E020F02100211C3
:1001C0000212021302140215021602170218021973
:1001D000021A021B021C021D022F003100300023F4
:1001E000022D023500040005000600070008000982
:1001F000000A000B000C000D000E000F0010001193
:100200000012001300140015001600170018001942
:10021000001A001B001C001D002F023102300235A5
:10022000020000080B0002020200000904000001A5
:10023000020200000524001001052401010104242C
:100240000206052406000107058103100040090489
:100250000100020A00000007050202400000070535
:1002600083024000000403090412010002EF0201AE
:100270004041233780000101020301417264756926
:100280006E6F204C4C430041726475696E6F204D57
:100290006963726F00AC001980200000000707300E
:1002A0000A38448280804438384482828240303820
:1002B00044828282440838448282020438384402EC
:1002C0000282443818048282824438204482828226
:1002D00044383840808282443838448282824438AC
:1002E000387CFEFEFE7C3800000507206000000020
:1002F000000000005F00000007000700147F147F6B
:1003000014242A7F2A122313086462364956205087
:100310000008070300001C2241000041221C002AA3
:100320001C7F1C2A08083E0808008070300008085E
:10033000080808000060600020100804023E5149CF
:10034000453E00427F400072494949462141494D9E
:10035000331814127F1027454545393C4A49493125
:1003600041211109073649494936464949291E00A4
:10037000001400000040340000000814224114144E
:10038000141414004122140802015909063E415D6B
:10039000594E7C1211127C7F494949363E414141F8
:1003A000227F4141413E7F494949417F0909090175
:1003B0003E414151737F0808087F00417F41002082
:1003C00040413F017F081422417F404040407F026E
:1003D0001C027F7F0408107F3E4141413E7F090996
:1003E00009063E4151215E7F09192946264949499E
:1003F0003203017F01033F4040403F1F2040201F48
:100400003F4038403F6314081463030478040361D9
:1004100059494D43007F41414102040810200041E9
:1004200041417F0402010204404040404000030774
:10043000080020545478407F2844443838444444C9
:1004400028384444287F385454541800087E090240
:1004500018A4A49C787F0804047800447D40002000
:1004600040403D007F1028440000417F40007C0454
:100470007804787C080404783844444438FC182410
:10048000241818242418FC7C0804040848545454E4
:100490002404043F44243C4040207C1C2040201C79
:1004A0003C4030403C44281028444C9090907C4480
:1004B00064544C44000836410000007700000041BD
:1004C00036080002010204023C2623263C19920A47
:1004D0000C206002010408060B0801030305070253
:1004E00004010506050606070606060606010207BC
:1004F0000707050A08060707060607070304060696
:10050000080708060807060707080B06070603057D
:10051000030808020606050606040606010305018F
:100520000906060606040505060509050505050173
:1005300005080900000000FE200700000700000079
:10054000008090F89690F89610003000003000007F
:10055000001824FF4444842020F02020101C222274
:100560001C80700CC22020C0000000201000001071
:10057000202010DC2222225C80600010202020201D
:100580001010200700F806011060800106F8806056
:10059000100A041F040A0000000000404040F84018
:1005A00040400000003000000000008070404040EB
:1005B000400000000000300000E01C0380700000DC
:1005C00000FC02020202FC1020202020100404FE85
:1005D000000020203020200C824242221C302020AB
:1005E0002020200402222222DC1020202020106063
:1005F000504844FE4040000000003000001E12122F
:100600001212E2102020202010F814121212E01012
:100610002020202010020282621A06002010000012
:1006200000DC22222222DC1020202020103C42422A
:100630004242FC002020201000183000188070403A
:10064000A0A01010080800000010102020505050EA
:10065000505050500000000000000008081010A08A
:10066000A040202010100000000402E2221C000024
:10067000200000F00C04F20A0AFA040CF00030200A
:100680004050505010100000E098868698E00030EE
:1006900000000000000030FE2222223CC03020205A
:1006A000202010F804020202020400102020202062
:1006B00010FE0202020204F830202020201000FE6A
:1006C0002222222222302020202020FE222222222A
:1006D00002300000000000F80402022222E40010B0
:1006E0002020202010FE2020202020FE30000000AE
:1006F00000003002FE02203020000202FE202020F6
:1007000010FE2050880402300000001020FE00007F
:10071000000000302020202020FE0638C0C038060F
:10072000FE3000000000000030FE061820C000FE71
:1007300030000000003030F8040202020204F80029
:1007400010202020201000FE424242423C30000097
:10075000000000F8040202020204F8001020202029
:10076000609080FE222262A21C0030000000001077
:10077000201C22222222C41020202020100202024B
:10078000FE02020200000030000000FE0000000037
:1007900000FE001020202010000638C00000C038E5
:1007A0000600000030300000001EE000C0380638AF
:1007B000C000E01E00003000000000003000000615
:1007C0008870708806300000000030020C10E010C5
:1007D0000C0200000030000000028262120A0630A3
:1007E0002020202020FF0101F08080031C60800079
:1007F00000000030C00101FF8080F01008040202F8
:1008000004081000000000000000000000000000CC
:100810000000008080808080808080010200008055
:1008200048484848F0102020202030FF10080808D1
:10083000F0302020202010F0080808101020202080
:1008400010F008080808FF102020201030F0484859
:1008500048487010202020201008FE0909003000B0
:1008600000F008080808F810A0A0A09070FF100879
:100870000808F0300000000030F9300008F98080EE
:1008800070FF40A010083000001020FF30F808086A
:1008900008F0080808F0300000003000000030F8D0
:1008A00010080808F0300000000030F008080808C0
:1008B000F0102020202010F810080808F0F0202068
:1008C000202010F008080808F81020202010F0F868
:1008D00010080830000000304848488820202020B8
:1008E0001008FE0808080010202020F80000000072
:1008F000F810202020103018E000E0180000300030
:100900000018E000E018E000E018000030000000EF
:1009100030000018A040A018300000003018E0009F
:10092000E018008070000008884828183020202037
:10093000202020DE01010000708080FFF00101DE38
:1009400020208080700000C0202040408080600017
:1009500000000000000000FE02020202020202FE8D
:1009600030202020202020203000000000230026FE
:100970000029002C002F000000000200090F0000D9
:10098000030401000C000000000000000000000053
:1009900000000000000000000000250028002B00DF
:1009A0002E00310000000000240027002A002D0046
:1009B00030000404040404030405020202020403D8
:1009C00002020202060606060606040402020204E9
:1009D000040408020110408040102040804080083C
:1009E00002040180402010020110801020404020AD
:1009F000070605040100080A0B0C0D09050109068C
:100A0000A1018502050719E029E7150025017501F7
:100A100095088102050C95017508150026FF00193F
:100A20000029FF8100050795067508150026E700D7
:100A3000190029E78100C0050C0901A101850415F1
:100A40000026FF0319002AFF03950475108100C0DA
:100A5000F51911241FBECFEFDAE0DEBFCDBF12E0E3
:100A6000A0E0B1E0E6EBF9E402C005900D92A830F9
:100A7000B107D9F723E0A8E0B2E001C01D92A0358C
:100A8000B207E1F715E0C9E2D5E004C02197FE0105
:100A90000E949924C832D107C9F70E94BD1A0C944C
:100AA000D9240C94000090934A0380934903FC01DD
:100AB00024913196E491F22F319719F41092440366
:100AC000089581E08093440308951F93FC01708191
:100AD00041811281972F990F990F990F35E5292F91
:100AE000239F020E20E0211D1124822F672F6074A6
:100AF000572F507277FD72C061115EC0511105C051
:100B0000922F9095892F90E004C025E5280F90E062
:100B10008BEA4F3F09F424C0442309F480C08823A2
:100B200031F0382F349F030E30E0311D832F222304
:100B300021F0249F020E20E0211D992331F0392F4E
:100B4000349F030E30E0311D932F1124342F309544
:100B5000339F030E30E0311D1124830F230F930FB9
:100B60001F3F09F421C030E0112321F0119F312DE6
:100B700009F03F5F332309F456C0882331F0482F32
:100B8000439F040E40E0411D842F222321F0239F28
:100B9000020E20E0211D992331F0492F439F040EBE
:100BA00040E0411D942F112480939D0220939E02CA
:100BB00090939F021F91089551110BC0392F2AEA7B
:100BC000329F030E30E0311D11249BEA931B280F46
:100BD00099CF90E02095982F80E09BCF611112C0B3
:100BE00051110CC0392F2AEA329F030E30E0311D1B
:100BF00011242BEA231B95E5930FEECF922F9095AE
:100C000020E087CF511106C025E5280F9BEA981BED
:100C1000822FF6CF2AEA280F90E0932FF8CF9FEF8C
:100C20002FEF8FEF9DCF90E020E080E0BDCFE0EF91
:100C3000F9E0E49190917B008E2F880F880F8072ED
:100C40009F7D892B80937B00E770E064E0937C00BC
:100C500080917A00806480937A0080917A0086FD8A
:100C6000FCCF80917800909179000895CF93DF9325
:100C700090E0FC01EF52F64F24918E54964FFC0108
:100C800084918823C1F090E0880F991FFC01EC55F6
:100C9000F64FC591D491FC01EA56F64FA591B49157
:100CA0009FB7F8943881822F809583238883EC91B5
:100CB000E22BEC939FBFDF91CF910895FC018091CF
:100CC0009C02882311F13FB7F89482E08093E900F9
:100CD0002091F200822F90E01816190614F481E09A
:100CE00090E0882339F0289A44E640939B02409193
:100CF000F1004083222339F02091F200211103C03A
:100D00002BE62093E8003FBF08958FEF9FEF0895F3
:100D1000CF93DF931F92CDB7DEB76983DC01ED91EE
:100D2000FC910280F381E02D41E050E0BE016F5F55
:100D30007F4F09950F90DF91CF91089583E08093C5
:100D4000E9008091F200882319F08AE38093E8009B
:100D50000895CF93DF931F92CDB7DEB7FC01848552
:100D6000958597FD08C02FEF3FEF358724870F90BB
:100D7000DF91CF910895CE0101960E945E06019702
:100D800019F4898190E0F3CF8FEF9FEFF0CF0F93AD
:100D90001F93CF93DF931F92CDB7DEB78C01FC0179
:100DA0008485958597FF0BC0CE0101960E945E0653
:100DB000019771F4898190E0F80195878487F801A3
:100DC000848595850F90DF91CF911F910F910895A4
:100DD0008FEF9FEFF1CFFC018485958597FD0BC0C8
:100DE0009FB7F89482E08093E9008091F2009FBF62
:100DF00090E0019608959FB7F89482E08093E9000F
:100E00008091F2009FBF90E00895282F30E0F90113
:100E1000E958F64F9491F901EF52F64F84912E5410
:100E2000364FF9012491222309F45BC09923E9F09C
:100E300091509F30D0F4E92FF0E0EF5DF84F0C9423
:100E400099244C07500730074407480735073507F2
:100E50003507530759075D076107670735076B07B4
:100E6000909180009F7790938000E22FF0E0EE0F4A
:100E7000FF1FE759F64FA591B491EC91E82381E06B
:100E800090E089F580E00895909180009F7DEBCF00
:100E900090918000977FE7CF94B59F7794BDE5CF81
:100EA00094B59F7DFBCF909190009F779093900099
:100EB000DCCF909190009F7DF9CF90919000977F2B
:100EC000F5CF9091C0009F779093C000CECF9091C6
:100ED000C0009F7DF9CF9091C200977F9093C20090
:100EE000C4CF80E090E008953FB7F89480919702D6
:100EF00090919802A0919902B0919A0226B5A89B70
:100F000005C02F3F19F00196A11DB11D3FBFBA2F9B
:100F1000A92F982F8827BC01CD01620F711D811D5B
:100F2000911D42E0660F771F881F991F4A95D1F7E0
:100F300008958F929F92AF92BF92CF92DF92EF92DD
:100F4000FF924B015C010E9474076B017C010E94BF
:100F500074076C197D098E099F09683E73408105ED
:100F60009105A8F321E0821A9108A108B10888EE42
:100F7000C80E83E0D81EE11CF11C81149104A10469
:100F8000B10429F7FF90EF90DF90CF90BF90AF9022
:100F90009F908F9008952FB7F8946091930270916D
:100FA000940280919502909196022FBF08954F92DE
:100FB0005F926F927F929F92AF92BF92CF92DF9299
:100FC000EF92FF920F931F93CF93DF9300D01F9266
:100FD000CDB7DEB7F82E8091FF0290910003A0916B
:100FE0000103B0910203892B8A2B8B2BD9F00E942D
:100FF00074070091A8021091A9022091AA023091D1
:10100000AB02601B710B820B930B0091FF021091DE
:1010100000032091010330910203601771078207DA
:101020009307C8F20E9474076093A8027093A90204
:101030008093AA029093AB02E0910703F09108031A
:10104000309759F0409103035091040360910503D8
:10105000709106038F2D0995F82E0091A60210912C
:10106000A7024F2C512C712C612C0115110509F48C
:101070005EC0D8011C96EC901C978091FD02909167
:10108000FE028436910510F41C961C92D801ED9155
:10109000FC91A280B38019821A821B82FF2089F101
:1010A000F8013696D12CC12C2191222319F192807E
:1010B000992001F130E050E040E02F5F3F4F4F4F6B
:1010C0005F4FC301B2010E9453249B01AC01892DE3
:1010D00090E0B0E0A0E0BC01CD016F5F7F4F8F4F8B
:1010E0009F4F0E945324A1E0B0E0AC0FBD1FAC0D98
:1010F000BD1D8C93BFEFCB1ADB0A83E0C816D10469
:1011000099F6D8011D964D915C911E9712966D919E
:101110007C919E012F5F3F4FC801F5010995D801D1
:101120001C96EC921C9714960D911C919ECF809169
:10113000A4029091A5028C010F5F1F4F1093A5028E
:101140000093A40249978CF10E94CB079B01AC014C
:1011500088EE93E0089FB001099F700D189F700DF5
:101160001124072E000C880B990BC090A002D09080
:10117000A102E090A202F090A3022C193D094E09B1
:101180005F090E9477243093FE022093FD021092A3
:10119000A5021092A4020E94CB076093A002709354
:1011A000A1028093A2029093A3020F900F900F9040
:1011B000DF91CF911F910F91FF90EF90DF90CF9033
:1011C000BF90AF909F907F906F905F904F900895E9
:1011D00080E991E0089508954091320250913302E0
:1011E000209130023091310242175307B4F49091AC
:1011F000E8009570E1F39091E80092FD19C08093AA
:10120000F100809132029091330201968F739927F9
:10121000892B19F48EEF8093E8008091320290912F
:1012200033020196909333028093320281E0089555
:1012300080E00895EF92FF920F931F93CF93DF9377
:10124000F82E192FE62E042F81E0860F880F0E94BA
:10125000EC0883E00E94EC08CF2DD12FEC0EFD2E80
:10126000F11CCE15DF05B9F007FF13C0FE01849114
:101270000E94EC08182F80E00E94EC088123219640
:101280008111EFCFDF91CF911F910F91FF90EF90E0
:1012900008958881EDCF81E0F5CFDF92EF92FF9244
:1012A0000F931F93CF93DF93D82E8A01EB017B011D
:1012B000E40EF51ECE15DF0559F0D7FE12C0FE0173
:1012C00084910E94EC0821968111F4CF0FEF1FEF5B
:1012D000C801DF91CF911F910F91FF90EF90DF90A8
:1012E00008958881EECF2FB7F89487708093E90036
:1012F0009091E800892F807295FF04C09091F200D0
:1013000080E4891B2FBF089583E00E94730990E059
:1013100008957F928F929F92AF92BF92CF92DF9269
:10132000EF92FF920F931F93CF93DF93C82E8B0101
:101330007A0180919C02811110C08FEF9FEFDF91A5
:10134000CF911F910F91FF90EF90DF90CF90BF90C2
:10135000AF909F908F907F9008958091360280FF8C
:1013600005C08091E00082608093E000CE2DDF2DEB
:10137000D12C8AEFB82E8C2D8770982E8C2D8072F0
:10138000882E8C2D8074782E9AE3A92E209719F43C
:10139000DD2009F452C08C2D0E94730981110AC00E
:1013A000BA94BB2051F261E070E080E090E00E94CE
:1013B0009907ECCF8C171D0611F00CF08C2F9FB7FE
:1013C000F8949092E9002091E80025FD02C09FBFAB
:1013D000DDCF282F30E0C21BD30B882029F08150AD
:1013E000A0F01092F100FBCFF801C7FC0AC08150B9
:1013F00050F041914093F100FACF44914093F100B5
:1014000031968150D0F7020F131FDD2021F0A092FA
:10141000E800D12CDCCF8091E80085FD07C0A092C8
:10142000E800DD24D394209791F2F3CF209779F64A
:10143000772069F2A092E800CACF5D9A84E6809393
:101440003502C7017CCFCF93DF93EC0180911C0163
:10145000882331F083E00E9489091816190634F0B8
:1014600081E090E09B838A8380E090E0DF91CF91E0
:101470000895615030F02091F100FC012083019625
:10148000F8CF289A84E680939B020895AF92BF928A
:10149000CF92DF92EF92FF920F931F93CF93DF9340
:1014A0006C017B018B01040F151FEB015E01AE186F
:1014B000BF08C017D10759F06991D601ED91FC9191
:1014C0000190F081E02DC6010995892B79F7C501BE
:1014D000DF91CF911F910F91FF90EF90DF90CF9010
:1014E000BF90AF9008958091280281110DC082E0D5
:1014F0008093240284E080932502109227021092A8
:10150000260281E08093280284E292E008950F93FE
:101510001F93CF93DF931F92CDB7DEB782E089830D
:1015200042E450E063E272E080E80E944D090E94CC
:10153000730ADC0112960D911C910115110589F0B9
:10154000D801ED91FC910280F381E02DBE016F5F27
:101550007F4FC801099597FD04C0F80100851185EA
:10156000ECCF89810F90DF91CF911F910F9108955A
:10157000DC01FB0112962C9112978481958128172A
:10158000190641F491818081813A31F49D7F81E097
:10159000913009F080E008958132E1F79B3029F421
:1015A00082811F968C9381E008959A3099F7828109
:1015B00050968C93F8CFAF92BF92CF92DF92EF927A
:1015C000FF920F931F93CF93DF931F92CDB7DEB798
:1015D0007C0169836A01590141E050E0BE016F5FFF
:1015E0007F4FFC0183810E9489098C0197FD0BC00C
:1015F000F7018381A501B60180640E948909080F63
:10160000191F97FD8C01C8010F90DF91CF911F9199
:101610000F91FF90EF90DF90CF90BF90AF90089523
:10162000DC01FB0188E4808389E4818384E4828394
:101630001D969C911D979F709F5B93831D968D9126
:101640009C9124E0969587952A95E1F78F708F5BA2
:10165000848385E00895EF92FF920F931F93CF93B9
:10166000DF93FB012081213871F52381223259F566
:10167000DC0112964C91248135814217130619F52D
:10168000EC010B851C85F12CE12C0115110589F06D
:10169000F801448155816281738180E80E944D097F
:1016A0008F3F980749F0E80EF91ED8010D911C9163
:1016B000ECCF81E08F87C701DF91CF911F910F9110
:1016C000FF90EF90089590E080E0F6CFCF93DF9306
:1016D000CDB7DEB769970FB6F894DEBF0FBECDBFAA
:1016E000FC01DB018C918F5F8C939E012D5F3F4F3E
:1016F0008DE0D9011D928A95E9F729E0298384E0DC
:101700008A8391E09D8383E08E832A8721E22B8761
:101710009C879D879F8722E2288B27E02B8B25E0E3
:101720002C8B8E8B20E430E0388F2F8B998F828129
:101730008B8395858685998B8A8B838180688D8B39
:1017400049E150E0BE016F5F7F4F80E00E944D098C
:1017500069960FB6F894DEBF0FBECDBFDF91CF9173
:101760000895CF93DF9380911C02811167C081E0BF
:1017700080930F028093100225E132E03093120231
:1017800020931102109214021092130221E231E010
:1017900030930C0220930B02109217021092160243
:1017A000109219021092180280931A0280931B0261
:1017B00081EC809315020E94730AFC018181909153
:1017C0000F02482F490F5527551F483051059CF5EA
:1017D000A281B381109709F52BE032E03383228395
:1017E000208120930D0280930E0280911002820FBF
:1017F000808320911102A22FB09112028A2F821BA6
:101800008917C8F481813D91C82FD0E0C050DF4FC7
:1018100038838F5F8183F2CFD90118962D913C9147
:10182000199721153105C1F72BE032E019963C9349
:101830002E931897D5CF81E080931C028BE092E025
:10184000DF91CF910895CF93DF93EC010E94B10B0C
:10185000AE014C5F5F4F28E030E062E0DF91CF9156
:101860000C94DB0ACF92DF92FF920F931F93CF93DA
:10187000DF938C01F42EE62FF0E0EE0FFF1FED5DFD
:10188000FE4FC590D490D801ED91FC910484F5856C
:10189000E02D6C2DC8010995EC01892B11F4F11094
:1018A00070C0D0FE0CC0D801ED91FC910484F58588
:1018B000E02D4F2D60EEC8010995C82BD92BD1FE24
:1018C0000CC0D801ED91FC910484F585E02D4F2DDD
:1018D00061EEC8010995C82BD92BD2FE0CC0D801E6
:1018E000ED91FC910484F585E02D4F2D62EEC80149
:1018F0000995C82BD92BD3FE0CC0D801ED91FC91D2
:101900000484F585E02D4F2D63EEC8010995C82BA1
:10191000D92BD4FE0CC0D801ED91FC910484F5853F
:10192000E02D4F2D64EEC8010995C82BD92BD5FEAB
:101930000CC0D801ED91FC910484F585E02D4F2D6C
:1019400065EEC8010995C82BD92BD6FE0CC0D8016D
:10195000ED91FC910484F585E02D4F2D66EEC801D4
:101960000995C82BD92BD7FE0CC0D801ED91FC915D
:101970000484F585E02D4F2D67EEC8010995C82B2D
:10198000D92BCE01DF91CF911F910F91FF90DF9066
:10199000CF900895FF920F931F93CF93DF93EC01A5
:1019A000F62E41E00E94320C8C01892BA9F0E881CF
:1019B000F9810284F385E02DCE01099540E06F2D79
:1019C000CE010E94320C892B39F0E881F981028422
:1019D000F385E02DCE010995C801DF91CF911F91CC
:1019E0000F91FF9008950F931F93CF93DF93EB0117
:1019F0008A010E94B10B9801AE0164E0DF91CF91A2
:101A00001F910F910C94DB0ACF93DF93EC01E3E37A
:101A1000F3E090E080E0219131910196232B41F594
:101A2000880F991FFC01EF5CFC4FD183C08348E015
:101A300050E063E373E081E393E00E94F30CE1E3A1
:101A4000F3E089E393E022813381C217D30711F4D5
:101A50001382128232968E179F07A9F748E050E052
:101A600063E373E081E393E0DF91CF910C94F30C97
:101A70008430910581F6DBCFCF93DF93EC018D8528
:101A8000882329F081508D87DF91CF9108959C8123
:101A90008E819817C8F788896827E881F9810084C2
:101AA000F185E02D42E0CE0109958C818F5F8C831A
:101AB000EBCFDC01ED91FC910084F185E02D40E05D
:101AC00009940F931F93CF938C01FC016483C0850D
:101AD000C60F6C2F6F700E94590D6C2F62956F703E
:101AE0006061C801CF911F910F910C94590DFC01B9
:101AF0002781269526952695621738F465832385D8
:101B0000620F6770606B0C94590D08951F93CF930B
:101B1000DF93EC01142F8E81681718F4CE010E9418
:101B2000610D612FCE01DF91CF911F910C94770D44
:101B3000CF92DF92EF92FF920F931F93CF93DF9399
:101B4000EC01F62EC42ED22E1D868F8186958695A9
:101B50008695081710F00FEF080F1D2D011780F064
:101B6000412F6F2DCE010E94860DEF2CCE1430F048
:101B70006889CE010E943C0DE394F8CF1F5FEECF41
:101B80004D2D6F2DCE01DF91CF911F910F91FF90C1
:101B9000EF90DF90CF900C94860D0F93DC0115969B
:101BA0002C9115971E96ED91FC911F9700E03097B0
:101BB00079F03396E491F0E0379683E0F595E79578
:101BC0008A95E1F751960C9151970E9F002D1124A3
:101BD000EFEFE20F0E0F16964C91169741501496A8
:101BE0006C911497CD010E94980D0F9108952F923A
:101BF0003F924F925F926F927F928F929F92AF929D
:101C0000BF92CF92DF92EF92FF920F931F93CF93E9
:101C1000DF9300D000D000D0CDB7DEB7FC01268521
:101C200037852115310509F44AC19E838D83F90159
:101C30003296649031964491E42EF12CF7E0EF0E49
:101C4000F11C53E0F594E7945A95E1F7E982F90124
:101C5000349654913196E491651748F08E2F90E0B8
:101C6000FC01E50FF11D6E171F060CF469C06D3005
:101C700031F5ED81FE81868181111BC081E090E00C
:101C800026960FB6F894DEBF0FBECDBFDF91CF9181
:101C90001F910F91FF90EF90DF90CF90BF90AF908A
:101CA0009F908F907F906F905F904F903F902F907C
:101CB000089560E08D819E810E94610DDFCF6A30C2
:101CC00009F0FDC0ED81FE818681882321F060E06E
:101CD000CF010E94610DED81FE8181898E9DE02CF6
:101CE000112465816E0D8485882349F0978196952E
:101CF000969596958E2D891B860F18162CF08D8142
:101D00009E810E94770DBACFED81FE812385820FDF
:101D1000877083879E199583CF010E94CD0DED8139
:101D2000FE818485813009F0A9CF6385660F660F37
:101D3000660F6F7362876064CF010E94590D9ECF5A
:101D400089010A5F1F4F651BED81FE8171855189F5
:101D5000759F502D11245C83F90154912F5F3F4FE3
:101D6000F9012491352F2230310508F06AC06E9CAC
:101D7000C0016F9C900D1124689FF001699FF00DC8
:101D800011240E0F1F1F512CED81FE81F481FA8367
:101D9000ED81FE812580F585FB83862C912CAA247C
:101DA000A394B12C312C8981381608F086C0412CBF
:101DB000ED81FE818189481608F078C08B81858786
:101DC000311002C0442041F0ED81FE8145814F5F1A
:101DD0006A81CF010E94860DD12CC12CC61408F057
:101DE00058C0F801EC0DFD1D7490552061F0EA1407
:101DF000FB0449F4E72DF0E0052C02C0F595E795CA
:101E00000A94E2F77E2EED81FE818189823081F491
:101E1000442009F43AC072948FE07822E72DF0E074
:101E2000ED5EFE4F7490672D8D819E810E943C0D6A
:101E3000672D8D819E810E943C0D8FEFC81AD80AB4
:101E4000CDCF477028E0522E541A411101C0512CB9
:101E5000F801612C30E020E0661631F04491240F47
:101E6000311D63943196F8CF600E712E711CF30111
:101E70006490E29EF001E39EF00DF29EF00D1124BD
:101E80008E0F9F1F080F191F7FCFF72DFF707F2E1A
:101E9000C5CFD12CEC81DE1639F060E08D819E81BA
:101EA0000E943C0DD394F6CF439482CF3394080D17
:101EB000191DFFEFAF1ABF0A76CF622D20CF90E039
:101EC00080E0DECE0F93CF93DF93EC011B861A8662
:101ED00060E40E94590D0F81069506950695015004
:101EE0004E81415020E060E0CE010E94980DDF91CC
:101EF000CF910F9108950F931F93CF93DF9320916C
:101F00000A022F5F322F377030930A0220FF2BC056
:101F100020E831FD2064347009F02062205FFC016C
:101F2000EC01239600E011E06485662329F070E05F
:101F3000C8010E9463246F5F6187322F369F030EB2
:101F400030E0311D1124311110C01682662311F0CA
:101F5000615061873196EC17FD0731F7DF91CF9122
:101F60001F910F91089520E0D4CF31503683EECFEA
:101F70004F925F926F927F928F92AF92BF92CF9269
:101F8000DF92EF920F931F93CF93DF933C01EB010E
:101F90000E947407F30127853089621B730B6A3036
:101FA0007105B0F3F894E881F98175B1706265B19B
:101FB0006F7D65B9C9848E812C2D281B822F2E83BD
:101FC000BF844A805B801C850D85DE841F5F0F5FA8
:101FD000D3949F813885AA84EB844081D20120E08C
:101FE000C32F522F322F3081442788943111380F5C
:101FF00008F43FEF8195889410FD430F479588942E
:1020000011FD430F4795889412FD430F479588941F
:1020100013FD430F4795889414FD430F479588940B
:1020200015FD430F4795889416FD430F47958894F7
:1020300017FD430F47958894232F1111242F8C0DE2
:10204000422F002C75B900C047FF65B931812227A6
:10205000889400C000C0002C65B93111390F00C050
:10206000002C75B900C046FF65B908F43FEF9195A3
:10207000889400C000C0002C65B900FD230F00C08B
:10208000002C75B900C045FF65B92795889401FDFE
:10209000230F00C000C0002C65B92795889400C0AC
:1020A000002C75B900C044FF65B902FD230F2795C8
:1020B000889400C000C0002C65B903FD230F00C048
:1020C000002C75B900C043FF65B92795889404FDBD
:1020D000230F00C000C0002C65B92795889400C06C
:1020E000002C75B900C042FF65B905FD230F279587
:1020F000889400C000C0002C65B906FD230F00C005
:10210000002C75B900C041FF65B92795889407FD7B
:10211000230F00C000C0002C65B92795889400C02B
:10212000002C75B900C040FF65B9432F0111422F43
:102130009A0D00C000C0002C65B900C000C0002C82
:1021400075B900C047FF65B932812227889400C065
:1021500000C0002C65B931113C0F00C0002C75B9CE
:1021600000C046FF65B908F43FEFEB0DF11D00C05C
:1021700000C0002C65B9D0FC230F00C0002C75B93D
:1021800000C045FF65B927958894D1FC230F00C096
:1021900000C0002C65B92795889400C0002C75B943
:1021A00000C044FF65B9D2FC230F2795889400C076
:1021B00000C0002C65B9D3FC230F00C0002C75B9FA
:1021C00000C043FF65B927958894D4FC230F00C055
:1021D00000C0002C65B92795889400C0002C75B903
:1021E00000C042FF65B9D5FC230F2795889400C035
:1021F00000C0002C65B9D6FC230F00C0002C75B9B7
:1022000000C041FF65B927958894D7FC230F00C013
:1022100000C0002C65B92795889400C0002C75B9C2
:1022200000C040FF65B9432FD110422FC19500C0B7
:1022300000C0002C65B9CE0D00C000C075B900C04B
:1022400047FF65B930812227889400C000C0002C68
:1022500065B93111380F00C0002C75B900C046FFB8
:1022600065B908F43FEF8195889400C000C0002C48
:1022700065B910FD230F00C0002C75B900C045FFE3
:1022800065B92795889411FD230F00C000C0002C6C
:1022900065B92795889400C0002C75B900C044FF2B
:1022A00065B912FD230F2795889400C000C0002C4B
:1022B00065B913FD230F00C0002C75B900C043FFA2
:1022C00065B92795889414FD230F00C000C0002C29
:1022D00065B92795889400C0002C75B900C042FFED
:1022E00065B915FD230F2795889400C000C0002C08
:1022F00065B916FD230F00C0002C75B900C041FF61
:1023000065B92795889417FD230F00C000C0002CE5
:1023100065B92795889400C0002C75B900C040FFAE
:1023200065B9432F1111422F8C0D00C000C0002C45
:1023300065B9119709F086CE20EE31E0D2010E94F6
:102340009F24DC01CB01F4E0B695A795979587957E
:10235000FA95D1F730E020E0B901EAE94E9E040C8D
:10236000611D5E9E600D711D1124650D711D860F2E
:10237000971FA11DB11D893E43E09407A105B1053A
:1023800008F434C0885E9340A109B10942E0B695D3
:10239000A795979587954A95D1F747E0849F080EB2
:1023A000211D949F200D311D1124290F311D609195
:1023B000090270E0860F971F820F931F40919302CE
:1023C000509194026091950270919602292F3327C3
:1023D000420F531F611D711D40939302509394024D
:1023E00060939502709396028093090278940E94FC
:1023F0007407F301708B6787DF91CF911F910F9165
:10240000EF90DF90CF90BF90AF908F907F906F90C4
:102410005F904F900895259A08950F931F93CF933F
:10242000DF93CDB7DEB762970FB6F894DEBF0FBE6D
:10243000CDBF8C01F901DC011C968C917A836983F4
:102440005C834B835E834D8390819D8791819E87C2
:1024500092819F878130F1F4CE0101960E947B0F1B
:1024600083E0888B1A8A198AD801ED91FC91048443
:10247000F585E02DBE016F5F7F4FC801099562961B
:102480000FB6F894DEBF0FBECDBFDF91CF911F9185
:102490000F9108951C861B861A86198618861F823E
:1024A000DFCF0F931F93CF93DF93CDB7DEB7629744
:1024B0000FB6F894DEBF0FBECDBF8C01F901DC0171
:1024C0001C968C917A8369835C834B835E834D83F6
:1024D00090819D8791819E8792819F878130E9F4C9
:1024E000CE0101960E947B0F188A1A8A198AD80198
:1024F000ED91FC910484F585E02DBE016F5F7F4F67
:10250000C801099562960FB6F894DEBF0FBECDBF25
:10251000DF91CF911F910F9108951C861B861A861B
:10252000198618861F82E0CF90E080E00895FC01B4
:10253000858596850895CF93DF9300D000D000D095
:10254000CDB7DEB7AB011C821D821E82DC01ED918E
:10255000FC910190F081E02D19821A821B829E016C
:102560002F5F3F4FBE016C5F7F4F099526960FB6D8
:10257000F894DEBF0FBECDBFDF91CF910895FC016F
:102580009C01285F3F4F90E080E04481411101961B
:1025900014823196E217F307C1F70895CF93DF93C2
:1025A00087E193E00E94BF12EC01892B21F087E1C3
:1025B00093E00E94230CCE01DF91CF910895CF9339
:1025C000DF93DC0190E2960F9830B0F414968C9172
:1025D000149721E030E001C0220F9A95EAF74423D6
:1025E00041F0282B14962C9381E090E0DF91CF915D
:1025F000089520952823F6CFFD0136964423D1F087
:10260000CD010C96EF012991621771F3C817D90714
:10261000D1F790E080E02191211105C0A80FB91FEA
:1026200016966C93E1CF019686309105A1F790E064
:1026300080E0DCCF90E080E02191621305C0A80F1C
:10264000B91F16961C92D0CF019686309105A1F73E
:10265000EECFCF93DF9341E0682F87E193E00E94B4
:10266000DF12EC01892B21F087E193E00E94230C1B
:10267000CE01DF91CF9108951F93CF93DF93182F51
:102680000E942913EC01892B61F040E0612F87E162
:1026900093E00E94DF12892B21F087E193E00E94F2
:1026A000230CCE01DF91CF911F910895CF92DF923D
:1026B000EF92FF92CF93DF930E94CB076B017C01D7
:1026C0008091900290919102A7019601281B390BED
:1026D00041095109DA01C9010E97A105B105E0F1DF
:1026E00087E00E940507EC0181E00E940507209128
:1026F0000802C817D90709F04CC0211111C08091F8
:10270000900290919102A7019601281B390B410973
:102710005109DA01C90187399105A105B105A8F070
:102720008091630290916402019690936402809379
:10273000630280917C0290917D020097A1F482E770
:102740000E943C1381E08093080281E080936A023A
:10275000D0929102C0929002DF91CF91FF90EF90C2
:10276000DF90CF9008958130910511F48FE4E8CF88
:10277000029741F780EE0E9429138CE10E942913F1
:1027800061E170E080E090E00E9499070E94CE1223
:10279000D9CF222389F08091900290919102A701D4
:1027A0009601281B390B41095109DA01C901873902
:1027B0009105A105B10548F28091630290916402F0
:1027C0000197909364028093630280917C029091C0
:1027D0007D02009731F481E70E943C1310920802B9
:1027E000B4CF8130910511F480E5F6CF0297B1F7AF
:1027F00080EE0E9429138DE10E94291361E170E0AF
:1028000080E090E00E9499070E94CE12E7CFFC0181
:102810006093BC008091BC0087FFFCCF9091B90011
:10282000987F90830895DF92EF92FF920F931F930A
:10283000CF93DF93EC01D62EF42E8C89882351F0B0
:10284000411108C084E98093BC008091BC0084FDE4
:10285000FCCF1C8A8E010E5E1F4F8C8981111AC01D
:10286000EB8864EAC8010E9407148A89883011F055
:10287000803139F4EE0CE092BB0064E8C8010E949C
:10288000071480E0F11080E48093BB0064E8C80185
:102890000E940714D092BB0064E8C8010E9407148C
:1028A00082E0F8120BC08C898F5F8C8BDF91CF9107
:1028B0001F910F91FF90EF90DF90089584E980932E
:1028C000BC008091BC0084FDFCCF1C8AEFCF089532
:1028D00090E080E008958F929F92AF92BF920F9305
:1028E0001F93CF93DF93CDB7DEB7A1970FB6F894C0
:1028F000DEBF0FBECDBF19A2423008F44AE08E0100
:102900000F5D1F4F842E912CB12CA12CA501940199
:102910000E947724E62FB901CA01EA3044F5E05D50
:10292000D801EE938D01232B242B252B79F790E0F2
:1029300080E0109769F0FD0101900020E9F73197E0
:10294000AF014A1B5B0BBD018BE393E00E94460A7B
:10295000A1960FB6F894DEBF0FBECDBFDF91CF9129
:102960001F910F91BF90AF909F908F900895E95C59
:10297000D7CFFC0101900020E9F73197AF01481B48
:10298000590BBC018BE393E00C94460ACF92DF9283
:10299000EF92FF92CF93DF936C01990FEE08FF083F
:1029A000F7FE19C06DE28BE393E00E94F70DEC0196
:1029B00066277727CB016C197D098E099F094AE0AC
:1029C0000E946B148C0F9D1FDF91CF91FF90EF90B1
:1029D000DF90CF9008954AE0C701B601DF91CF9113
:1029E000FF90EF90DF90CF900C946B14CF93DF9318
:1029F000EC0142E060E08BE393E00E94860D8BE9FE
:102A000092E00E945305CE0168E070E00E946324CA
:102A100097FD0896DF91CF910C94C614AF92BF92A8
:102A2000CF92DF92EF92FF920F931F93CF93DF939A
:102A30004F3F540709F45CC07A016B01EC0140E0A0
:102A400060E08BE393E00E94860D85EC90E00E94AD
:102A50005305109244038E01D7FF02C0015C1F4F43
:102A600036E0159507953A95E1F7B12CA12CA01603
:102A7000B10644F483E891E00E94B9148FEFA81ADC
:102A8000B80AF5CFD7FD2796CE0123E09595879517
:102A90002A95E1F768E070E00E94632401960E94A5
:102AA000C6140F5F1F4F003111052CF483E891E02D
:102AB0000E94B914F6CFEF28D9F487EE92E00E9475
:102AC000530541E062E38BE393E00E94860DC6016B
:102AD0000E94C61485E891E0DF91CF911F910F917C
:102AE000FF90EF90DF90CF90BF90AF900C94B9140F
:102AF000DF91CF911F910F91FF90EF90DF90CF90DA
:102B0000BF90AF9008950F931F93CF93DF9300D0A2
:102B10001F92CDB7DEB78C010F3F100791F4809163
:102B2000650281110EC028985D988BE393E00E94A6
:102B3000620F0F900F900F90DF91CF911F910F9127
:102B40000895289A5D9A0F3F100779F380916502E6
:102B5000811197C08AE5089F802D1124865F8983A3
:102B60008FEF8A8380E48B83CE0101960E946505F6
:102B70008091FC020E94D70787EE92E00E945305E5
:102B800041E060E08BE393E00E94860D8BE393E0ED
:102B90000E94CD0D8AE891E00115110551F082E9FE
:102BA00091E00130110529F00230110521F487E987
:102BB00091E00E94B91442E06AE08BE393E00E9446
:102BC000860D8BE393E00E94CD0D81EA91E0011523
:102BD000110551F08EEA91E00130110529F0023023
:102BE000110521F487EB91E00E94B91443E06AE0FB
:102BF0008BE393E00E94860D8BE393E00E94CD0D62
:102C000083EC91E00115110551F088EC91E0013061
:102C1000110529F00230110521F48EEC91E00E949B
:102C2000B91443E06AE48BE393E00E94860D86EDDD
:102C300091E00115110551F08DED91E00130110584
:102C400029F00230110521F482EE91E00E94B914BE
:102C50008BE992E00E94530543E060E08BE393E050
:102C60000E94860D89E090E00E94C61443E060E473
:102C70008BE393E00E94860D89E090E00E94C614E9
:102C800058CF19821A821B826FCF0E94D4241F92C0
:102C90000F920FB60F9211242F933F938F939F9310
:102CA000AF93BF938091930290919402A09195026B
:102CB000B09196023091920223E0230F2D3758F500
:102CC0000196A11DB11D20939202809393029093CF
:102CD0009402A0939502B0939602809197029091EE
:102CE0009802A0919902B0919A020196A11DB11D7E
:102CF0008093970290939802A0939902B0939A02BE
:102D0000BF91AF919F918F913F912F910F900FBEE7
:102D10000F901F90189526E8230F0296A11DB11D54
:102D2000D2CF1F920F920FB60F9211242F933F9381
:102D30004F935F936F937F938F939F93AF93BF93C3
:102D4000EF93FF93E0911301F09114010995FF9126
:102D5000EF91BF91AF919F918F917F916F915F9113
:102D60004F913F912F910F900FBE0F901F9018958C
:102D70001F920F920FB60F9211242F933F934F93F0
:102D80005F936F937F938F939F93AF93BF93EF93D3
:102D9000FF93E0911101F09112010995FF91EF91DC
:102DA000BF91AF919F918F917F916F915F914F9163
:102DB0003F912F910F900FBE0F901F9018951F926B
:102DC0000F920FB60F9211242F933F934F935F935F
:102DD0006F937F938F939F93AF93BF93EF93FF93E3
:102DE000E0910F01F09110010995FF91EF91BF91D2
:102DF000AF919F918F917F916F915F914F913F9193
:102E00002F910F900FBE0F901F9018951F920F9249
:102E10000FB60F9211242F933F934F935F936F93AD
:102E20007F938F939F93AF93BF93EF93FF93E09123
:102E30000D01F0910E010995FF91EF91BF91AF91B6
:102E40009F918F917F916F915F914F913F912F91C2
:102E50000F900FBE0F901F9018951F920F920FB6F4
:102E60000F9211242F933F934F935F936F937F9310
:102E70008F939F93AF93BF93EF93FF93E0910B01D9
:102E8000F0910C010995FF91EF91BF91AF919F9146
:102E90008F917F916F915F914F913F912F910F9003
:102EA0000FBE0F901F9018951F920F920FB60F92A2
:102EB00011248F939F938091E1009091E100937F83
:102EC0009093E10083FF0FC01092E90091E090938E
:102ED000EB001092EC0092E39093ED0010929C02B4
:102EE00098E09093F00082FF22C093E09093E90075
:102EF0009091F200992319F09AE39093E800909151
:102F00003502992341F0909135029150909335020A
:102F1000911101C05D9890919B02992341F090918D
:102F20009B02915090939B02911101C0289884FFBD
:102F300018C08091E2008E7E81608093E2008091D3
:102F4000E1008F7E8093E100809136028E7E806169
:102F5000809336029F918F910F900FBE0F901F901C
:102F6000189580FFF7CF8091E2008E7E806180937C
:102F7000E2008091E1008E7E8093E1008091360234
:102F80008E7E8160E5CF1F920F920FB60F921124B3
:102F9000CF92DF92EF92FF920F931F932F933F9365
:102FA0004F935F936F937F938F939F93AF93BF9351
:102FB000EF93FF93CF93DF93CDB7DEB76C97DEBF70
:102FC000CDBF1092E9008091E80083FF25C068E042
:102FD000CE0145960E94390A82EF8093E8008D89E0
:102FE00087FF39C09091E80090FFFCCF982F907632
:102FF00009F034C19E894F89588D2F89F88C911121
:1030000031C0803861F5809137028093F1001092D1
:10301000F1008EEF8093E8006C960FB6F894DEBF57
:103020000FBECDBFDF91CF91FF91EF91BF91AF91D7
:103030009F918F917F916F915F914F913F912F91D0
:103040001F910F91FF90EF90DF90CF900F900FBEE8
:103050000F901F9018959EEF9093E800C7CF1092A5
:10306000F100D5CF913059F48111D3CF41305105C2
:1030700081F6809137028D7F80933702CACF9330DB
:1030800049F48111C6CF4130510519F680913702BC
:103090008260F2CF953041F48091E80080FFFCCF50
:1030A00020682093E300B5CF963009F0A9C00B8DBE
:1030B0001C8D22E01092E90010923302109232022D
:1030C000F2122EC010923102109230020E94870A32
:1030D0001F8299E09983FA8291E09E8390EA988713
:1030E0009AEF99872091320230913302275F3F4F48
:1030F0003C832B838D831092E9001092330210924F
:103100003202109331020093300249E050E0BE01D8
:103110006F5F7F4F80E00E944D090E94870A79CF40
:1031200010933102009330020E94730ADC01129660
:103130000D911C910115110509F451C1D801ED91B2
:10314000FC910480F581E02DBE016B5E7F4FC801CC
:103150000995009709F03EC1F80100851185EACF75
:10316000F3E0FF120EC08F89882309F440C082303B
:1031700061F440E86DE087E892E00E941A0981114D
:1031800048CF81E28093EB0047CF813029F440E8BB
:103190006BE08BE792E0F1CF833099F70E94730ADE
:1031A000DC011296ED90FC908E010F5F1F4F6801BD
:1031B000E114F10479F0D701ED91FC910680F781DB
:1031C000E02DB801C7010995080F111DF701E08432
:1031D000F184EECFD8011C92F60101900020E9F7AE
:1031E0003197BF016C197D0940E0C601C6CF65E685
:1031F00072E0FB01449150E080E80E944D0909CF44
:10320000973009F4BECF983021F481E08093F1002B
:1032100000CF993009F0FDCE837009F0B2CFE1E024
:10322000F1E081E031E096E32191222371F0809377
:10323000E9003093EB00DF0111972C912093EC0013
:103240009093ED008F5F873079F78EE78093EA00E7
:103250001092EA008F8980939C02DBCE8B8D9C8D2F
:103260001092E900109233021092320290933102D0
:1032700080933002898D811192C08E899D89913A07
:1032800049F4813209F07DCF47E050E065E171E01B
:1032900080E0B3CF913209F074CF833269F48F8923
:1032A000988DB0E0A0E08093070190930801A0936F
:1032B0000901B0930A01ADCE803269F48091E80033
:1032C00082FFFCCF67E085E191E00E94390A8BEF35
:1032D0008093E8009ECE823209F09BCE8F89809346
:1032E0001C01EEEFFFE7859194918B3F9C4D51F1CE
:1032F000E0E0F8E08091150190911601A09117018E
:10330000B0911801803B9440A105B105F1F4809182
:103310001C0180FD1AC0EE3F8AE0F80789F587E7B7
:1033200097E791838083809160008093340288E1E5
:103330009BE00FB6F894A895809360000FBE909321
:10334000600067CEEEEFFAE0D5CF808191818737BC
:10335000974709F05ECEA8958091600088618093C0
:1033600060008091340280936000EE3F2AE0F20713
:1033700089F08091FE0A9091FF0A9183808349CE63
:10338000808191818737980751F29093FF0A80934B
:10339000FE0AC5CF1092FF0A1092FE0A3ACE0E9492
:1033A000730ADC0112960D911C910115110509F4A7
:1033B000E8CED801ED91FC910190F081E02DBE01A5
:1033C0006B5E7F4FC8010995811123CEF8010085FE
:1033D0001185EBCF181619060CF41BCED2CEF1E0F6
:1033E000FF12BECE69E672E004CF1092AF021092D7
:1033F000AE0288EE93E0A0E0B0E08093B00290933C
:10340000B102A093B202B093B3028FE491E0909323
:10341000AD028093AC028FEF9FEF9093B90280933F
:10342000B8028093FC021092FE021092FD021092EC
:103430000803109207038FEF9FEFDC0180930303D3
:1034400090930403A0930503B093060310921A030C
:103450001092190381E691E090931803809317036B
:1034600080910F03811113C010920A031092090377
:103470008CEF99E090930C0380930B038BE390E027
:1034800090930E0380930D0381E080930F030E94BD
:10349000B10BFC01A385B485109709F059C089E0F0
:1034A00093E0948783878585968520910D033091DD
:1034B0000E03820F931F9687858783E791E0909391
:1034C00032038093310380912903811113C010923C
:1034D00024031092230387E39AE0909326038093BA
:1034E000250389E190E0909328038093270381E0EE
:1034F000809329030E94B10BFC01A385B48510972A
:1035000091F583E293E09487838785859685209162
:10351000270330912803820F931F96878587109287
:103520003E0310923D0310924703109248031092FD
:103530004A031092490310924B0381E080934C039D
:1035400089E791E090933C0380933B030895DC016D
:103550008D919C9111970097D1F789E093E08D931D
:103560009C93A1CFDC018D919C9111970097D1F78D
:1035700083E293E08D939C93C8CFCF93DF9300D0E9
:1035800000D000D01F92CDB7DEB7789484B58260AA
:1035900084BD84B5816084BD85B5826085BD85B5F7
:1035A000816085BD80916E00816080936E00109275
:1035B00081008091810082608093810080918100F0
:1035C0008160809381008091800081608093800081
:1035D0008091910082608093910080919100816040
:1035E0008093910080919000816080939000809101
:1035F000C10084608093C1008091C100826080938B
:10360000C1008091C10081608093C1008091C3009E
:1036100081608093C3008091C00082608093C0006D
:103620008091C20081608093C20080917A008460A2
:1036300080937A0080917A00826080937A008091F2
:103640007A00816080937A0080917A00806880930C
:103650007A0010929C0210923702109236028091EA
:10366000D70081608093D70080EA8093D80089B525
:10367000806189BD89B5826089BD09B400FEFDCF36
:1036800061E070E080E090E00E9499078091D800AE
:103690008F7C80618093D8008091E000807F809350
:1036A000E0008091E1008E7E8093E1008DE08093C8
:1036B000E200559A209A5D98289887E193E00E944D
:1036C000BF1287E193E00E94230C10924F038CE31A
:1036D00080934E031092B9008CE08093B800109252
:1036E0003F0310924003E5E9F2E085919491E82EC2
:1036F000E7E9F2E0F490E8E9F2E0E491E0934103D5
:10370000E9E9F2E0E491E0934203EAE9F2E0E491CE
:10371000E09343038C01802F8E198F1548F4F80134
:1037200064918BE393E00E94590D0F5F1F4FF3CF1D
:103730008BE393E00E94620F60EA8BE393E00E94C8
:10374000590D60EC8BE393E00E94590D66EA8BE320
:1037500093E00E94590D81E00E94360687E00E94A6
:10376000360686E593E190931201809311018091D2
:1037700069008F7380936900EB9A86E00E94360699
:1037800085E00E94360684E00E94360680914B0256
:10379000811145C010923D0210923C028FEF809340
:1037A00040028093410280934202809343028093BF
:1037B00044028093450281E08093460210924802C1
:1037C0001092470210923F0210923E028091A60290
:1037D0009091A702892B31F48AE392E09093A7029B
:1037E0008093A602E0913802F0913902309721F0DF
:1037F0008AE392E0958384838AE392E0909339028E
:103800008093380210924A02109249028DE391E0AF
:1038100090933B0280933A0281E080934B02259A79
:103820008DE992E090933D0280933C0281E090E02C
:1038300090934802809347028091FF029091000389
:10384000A0910103B0910203843CF9E09F07A10518
:10385000B10520F484EC99E0A0E0B0E08093FF0291
:1038600090930003A0930103B093020319821A827C
:103870001B82CE0101960E9465050E9417067C01FD
:1038800090936C0280936B02BC01990F880B990B8B
:103890000E94D62220E030E048EC5DE30E946723DE
:1038A00020E030E040E05FE30E9467232B013C0111
:1038B00020E030E0A9010E94622320E030E040E0F7
:1038C0005FE387FD89C1C301B2010E94C0210E944C
:1038D0009E22162F110F10937B028BE393E00E9420
:1038E000620F90E080E00E948315612F70E050E04D
:1038F00040E0C7010E940E1580917C0290917D02EC
:10390000019621F090E080E00E94F61474E6A72E64
:10391000B12CE0E08E2EE0E09E2EF5E02F2E312C33
:103920000E94CB0760937E0270937F028093800297
:103930009093810286E00E940507892B09F04BC015
:103940000E94CB0720918A0230918B02621B730B7D
:10395000810991096B3F710581059105E0F10E9494
:10396000CB0770938B0260938A0280917C029091C6
:103970007D02823091050CF034C1019690937D0256
:1039800080937C0280917C0290917D02009709F0E7
:103990002BC1E0906302F090640200917B0210E082
:1039A000C0907302D09074028BE393E00E94620F88
:1039B00090E080E00E94831550E040E0B801C6012D
:1039C0000E940E1580917C0290917D02019619F063
:1039D000C7010E94F61485E00E940507892B19F59E
:1039E0000E94CB0720918C0230918D02621B730BD9
:1039F000810991096B3F710581059105A0F00E9435
:103A0000CB0770938D0260938C0280917C02909121
:103A10007D02009709F0EBC083E70E943C133092CF
:103A200069022092680284E00E940507892B19F53B
:103A30000E94CB0720918E0230918F02621B730B84
:103A4000810991096B3F710581059105A0F00E94E4
:103A5000CB0770938F0260938E0280917C029091CD
:103A60007D02009709F0F8C08FE70E943C13309266
:103A700067022092660200917C0210917D02809183
:103A80006F02909170029093720280937102809104
:103A90006D0290916E029093700280936F028091FC
:103AA0006B0290916C0290936E0280936D020E9463
:103AB000170690936C0280936B02880F991F2091D8
:103AC0006D0230916E02820F931F20916F02309130
:103AD0007002820F931F2091710230917202820F47
:103AE000931F65E070E00E9463247B01709376026F
:103AF00060937502603471050CF0E4C0EE0CFF1C9D
:103B0000EE0CFF1CF0927402E0927302B7010F2CCE
:103B1000000C880B990B0E94D6229B01AC0160E03F
:103B200070E080E094E40E94BF2120E030E040EAB1
:103B300051E40E942C222B013C0120E030E0A9013D
:103B40000E94622320E030E040E05FE387FDF8C0A0
:103B5000C301B2010E94C0210E949E22609379029B
:103B600080917A02861B990B9093540280935302A2
:103B700080917702909178028E199F094896C1979B
:103B800020F41092540210925302E0905302F090ED
:103B90005402E114F10409F43EC1D12CC12C662475
:103BA00077246E187F08C701F7FCC301C816D90631
:103BB0000CF0EDC01E141F040CF0D3C0011511054C
:103BC00009F0C3C089EE90E00E94040D80917B0251
:103BD0008E5F80937B02C1C0C301B2010E94BF21EE
:103BE00076CE8FEF9FEFCACE0E948315F4CE813040
:103BF000910511F481E511CF8230910591F480EEA9
:103C00000E94291382EE0E94291388E10E94291341
:103C100061E170E080E090E00E9499070E94CE127E
:103C2000FECE019609F0FBCE10925702109256027A
:103C300010925A0210925B0210925C0210925D0286
:103C400010925E0210925F02109260021092610266
:103C500021E020935502E3CE81309105C1F482E545
:103C60000E943C1361E170E080E090E00E949907BF
:103C700080EE0E94291387E20E94291361E170E01F
:103C800080E090E00E9499070E94CE12F0CE823030
:103C9000910529F480EE0E9429138BE0EDCF019667
:103CA00009F0E5CE80916202F1E08F2780936202F5
:103CB000809165028F27809365028BE393E00E94D9
:103CC000620FD5CE072E000C880B990B0E94D622CE
:103CD000EFEBEE16E3E0FE060CF52AE534E64BE1E9
:103CE0005FE30E94672323E333E349E553E40E9443
:103CF000C0216B017C0120E030E0A9010E94622319
:103D000020E030E040E05FE387FD15C0C701B60169
:103D10000E94C0210E949E227B01F4CE2CE53FE848
:103D200042E650E40E94672326E636E642E255E486
:103D30000E94BF21DECFC701B6010E94BF21EACF9A
:103D4000C301B2010E94BF2107CF8EE201301105ED
:103D5000D9F082E502301105B9F0FFEFCF1ADF0A82
:103D600022CF0115110541F48AEE90E00E94040D66
:103D700080917B0282502DCF8DE20130110521F020
:103D80000230110551F781E50E943C13E6CFE09027
:103D90007302F090740280917B02853648F1B7017E
:103DA0000F2C000C880B990B0E94D62220E030E0EB
:103DB00048EC5DE30E94672320E030E040E05FE3F1
:103DC0000E9467232B013C0120E030E0A9010E9402
:103DD000622320E030E040E05FE387FD28C2C301BA
:103DE000B2010E94C0210E949E22660F60937B0256
:103DF00060917B0270E0A801C7010E940E158091BE
:103E0000730290917402909378028093770280916C
:103E1000790280937A020E94CB07609382027093AA
:103E20008302809384029093850200917C0210911A
:103E30007D0280916A02882359F00F3F100741F0FC
:103E400080916302909164020E94F61410926A02BB
:103E50008091680290916902009709F0EDC10F3FCF
:103E6000100771F08BE992E00E94530543E060E493
:103E70008BE393E00E94860D89E090E00E94C614D7
:103E80008091660290916702009709F0FBC10F3F95
:103E90001F4F71F08BE992E00E94530543E060E010
:103EA0008BE393E00E94860D89E090E00E94C614A7
:103EB00080917C0290917D02019609F0ABC10E9435
:103EC000CB07609386027093870280938802909359
:103ED0008902209165022111FBC12091730230916A
:103EE0007402E7E0E29FA001E39F500D112457FF09
:103EF00002C0415E5F4F9A0145E0359527954A958E
:103F0000E1F710E2120F009163022AE030E040E096
:103F100050E00E94772429830A831B83CE010196F7
:103F20000E9465058091FC020E94D7078091620281
:103F3000811170C18DEC94E00E94530540E060E077
:103F40008BE393E00E94860D89EE91E00E94B91404
:103F500087EE92E00E94530540E06DE38BE393E02F
:103F60000E94860D8091750290917602883E934062
:103F700024F488E891E00E94B91480917502909130
:103F800076020E94C6148FEE91E00E94B9148091CF
:103F9000730290917402883E934024F488E891E083
:103FA0000E94B91480917302909174020E94C61409
:103FB00041E06DE68BE393E00E94860D8091630201
:103FC000909164028456910989339F4F20F088E8CC
:103FD00091E00E94B91480916302909164021816D6
:103FE00019060CF079C183EF91E00E94B914809119
:103FF0006302909164020E94C61480915502882346
:1040000009F4ABC08091560290915702843FF1E0D1
:104010009F070CF467C1109255020091560210914F
:104020005702053F21E012070CF06DC0B801012EC8
:10403000000C880B990B0E94D6226B017C016091C9
:104040005A0270915B0280915C0290915D020E9425
:10405000D622A70196010E942C222B013C016091DF
:104060005E0270915F0280916002909161020E94F5
:10407000D622A70196010E942C226C837D838E8319
:104080009F83A3019201C301B2010E9467239B0198
:10409000AC016C817D818E819F810E94BF21A7012F
:1040A00096010E9467236B017C01B8016150710980
:1040B000072E000C880B990B0E94D6229B01AC01A5
:1040C000C701B6010E942C220E94DA2320E030E0D2
:1040D00048EC52E40E9467236B017C0120E030E051
:1040E000A9010E94622320E030E040E05FE387FD09
:1040F00041C1C701B6010E94C0210E949E22709357
:1041000059026093580242E06FE48BE393E00E940F
:10411000860D85EF91E00E94B9148091580290912C
:1041200059020E94C6148AEF91E00E94B91480914E
:10413000580290915902B5010E9463240A9724F411
:1041400083E891E00E94B91480915802909159023D
:10415000B5010E9463240E94C61443E06DE38BE323
:1041600093E00E94860D8091860290918702A09133
:104170008802B09189020196A11DB11D40917E0275
:1041800050917F026091800270918102841B950B97
:10419000A60BB70B0A97A105B10520F488E891E0BA
:1041A0000E94B91460918602709187028091880202
:1041B000909189026F5F7F4F8F4F9F4F00917E02DA
:1041C00010917F022091800230918102601B710B5F
:1041D000820B930B4AE00E946B148CEF91E00E94DB
:1041E000B9148FEF91E00E94B9140E94CB0700919F
:1041F0008602109187022091880230918902601B0B
:10420000710B820B930B4AE00E946B1482E092E0E8
:104210000E94B91461E070E080E090E00E9499078C
:104220008114910409F47CCB0E94000079CBC30176
:10423000B2010E94BF21D7CD181619060CF020CE6E
:104240000F3F100709F41CCE8BE992E00E94530542
:1042500043E060E48BE393E00E94860D88E090E009
:104260000E94C61485E00E940507892B09F408CE38
:1042700080916802909169020197909369028093FE
:104280006802FECD181619060CF012CE0F3F1F4F14
:1042900009F40ECE8BE992E00E94530543E060E002
:1042A0008BE393E00E94860D88E090E00E94C614A4
:1042B00084E00E940507892B09F4FACD80916602FB
:1042C0009091670201979093670280936602F0CD08
:1042D00019821A821B8222CE892B09F088CE88E8A7
:1042E00091E083CE60917302709174020196909375
:1042F000570280935602072E000C880B990B0091F1
:104300005A0210915B0220915C0230915D02060F0F
:10431000171F281F391F00935A0210935B02209326
:104320005C0230935D020E94D6226B017C01609199
:104330005E0270915F0280916002909161020E9422
:10434000D6222B013C01A7019601C701B6010E94AC
:1043500067239B01AC01C301B2010E94C0210E94EE
:104360009E2260935E0270935F028093600290933E
:10437000610253CEC701B6010E94BF21BECE505884
:10438000BB27AA270E94D7210C9428230E941A2316
:1043900038F00E94212320F039F49F3F19F426F4CD
:1043A0000C9417230EF4E095E7FB0C941123E92FEE
:1043B0000E94392358F3BA176207730784079507D9
:1043C00020F079F4A6F50C945B230EF4E0950B2E07
:1043D000BA2FA02D0B01B90190010C01CA01A00157
:1043E0001124FF27591B99F0593F50F4503E68F1B2
:1043F0001A16F040A22F232F342F4427585FF3CFF3
:10440000469537952795A795F0405395C9F77EF4C3
:104410001F16BA0B620B730B840BBAF09150A1F00C
:10442000FF0FBB1F661F771F881FC2F70EC0BA0F92
:10443000621F731F841F48F4879577956795B7951A
:10444000F7959E3F08F0B0CF9395880F08F0992715
:10445000EE0F9795879508950E9440220C9428238B
:104460000E94212358F00E941A2340F029F45F3F54
:1044700029F00C94112351110C945C230C941723F4
:104480000E94392368F39923B1F3552391F3951BC7
:10449000550BBB27AA2762177307840738F09F5F65
:1044A0005F4F220F331F441FAA1FA9F335D00E2ED2
:1044B0003AF0E0E832D091505040E695001CCAF73F
:1044C0002BD0FE2F29D0660F771F881FBB1F261702
:1044D00037074807AB07B0E809F0BB0B802DBF01D9
:1044E000FF2793585F4F3AF09E3F510578F00C94A8
:1044F00011230C945C235F3FE4F3983ED4F386953C
:1045000077956795B795F7959F5FC9F7880F911DC8
:104510009695879597F90895E1E0660F771F881FB4
:10452000BB1F621773078407BA0720F0621B730B67
:10453000840BBA0BEE1F88F7E09508950E94A52220
:104540006894B1110C945C2308950E94412388F073
:104550009F5798F0B92F9927B751B0F0E1F0660F47
:10456000771F881F991F1AF0BA95C9F714C0B13088
:1045700091F00E945B23B1E008950C945B23672FB8
:10458000782F8827B85F39F0B93FCCF386957795B7
:104590006795B395D9F73EF49095809570956195A0
:1045A0007F4F8F4F9F4F0895E89409C097FB3EF4CB
:1045B00090958095709561957F4F8F4F9F4F992370
:1045C000A9F0F92F96E9BB279395F69587957795EE
:1045D0006795B795F111F8CFFAF4BB0F11F460FFAE
:1045E0001BC06F5F7F4F8F4F9F4F16C0882311F006
:1045F00096E911C0772321F09EE8872F762F05C01A
:10460000662371F096E8862F70E060E02AF09A95B4
:10461000660F771F881FDAF7880F9695879597F9A9
:10462000089597F99F6780E870E060E008959FEF34
:1046300080EC089500240A94161617061806090639
:10464000089500240A941216130614060506089508
:10465000092E0394000C11F4882352F0BB0F40F490
:10466000BF2B11F460FF04C06F5F7F4F8F4F9F4FD0
:10467000089557FD9058440F551F59F05F3F71F052
:104680004795880F97FB991F61F09F3F79F08795B9
:104690000895121613061406551FF2CF4695F1DF42
:1046A00008C0161617061806991FF1CF86957105D2
:1046B000610508940895E894BB2766277727CB0106
:1046C00097F908950E941A2408F48FEF08950E9424
:1046D0007A230C9428230E941A2338F00E94212365
:1046E00020F0952311F00C9411230C94172311241E
:1046F0000C945C230E94392370F3959FC1F3950FAE
:1047000050E0551F629FF001729FBB27F00DB11D55
:10471000639FAA27F00DB11DAA1F649F6627B00DE5
:10472000A11D661F829F2227B00DA11D621F739FCE
:10473000B00DA11D621F839FA00D611D221F749FDC
:104740003327A00D611D231F849F600D211D822F23
:10475000762F6A2F11249F5750409AF0F1F088234A
:104760004AF0EE0FFF1FBB1F661F771F881F915077
:104770005040A9F79E3F510580F00C9411230C94F2
:104780005C235F3FE4F3983ED4F386957795679575
:10479000B795F795E7959F5FC1F7FE2B880F911DA1
:1047A0009695879597F9089519F416F40C941723A4
:1047B0000C943E240E944123B8F39923C9F3B6F325
:1047C0009F57550B87FF0E944C240024A0E640EA27
:1047D000900180585695979528F4805C660F771F56
:1047E000881F20F026173707480730F4621B730B29
:1047F000840B202931294A2BA6951794079420254C
:1048000031254A2758F7660F771F881F20F0261793
:104810003707480730F4620B730B840B200D311DF2
:10482000411DA09581F7B901842F9158880F969565
:1048300087950895990F0008550FAA0BE0E8FEEF41
:1048400016161706E807F907C0F012161306E40754
:10485000F50798F0621B730B840B950B39F40A264D
:1048600061F0232B242B252B21F408950A2609F42B
:10487000A140A6958FEF811D811D08959F3F31F0C6
:10488000915020F4879577956795B795880F911D7E
:104890009695879597F9089591505040660F771F28
:1048A000881FD2F70895DB018F939F930E94A6245F
:1048B000BF91AF91A29F800D911DA39F900DB29FBC
:1048C000900D1124089597FB072E16F4009407D03D
:1048D00077FD09D00E94B12407FC05D03EF49095E5
:1048E00081959F4F0895709561957F4F0895A1E23E
:1048F0001A2EAA1BBB1BFD010DC0AA1FBB1FEE1F5A
:10490000FF1FA217B307E407F50720F0A21BB30BA4
:10491000E40BF50B661F771F881F991F1A9469F720
:1049200060957095809590959B01AC01BD01CF017C
:104930000895EE0FFF1F0590F491E02D09940E9459
:10494000C524B7FF0895821B930B08950E94C524C8
:10495000A59F900DB49F900DA49F800D911D1124D3
:104960000895AA1BBB1B51E107C0AA1FBB1FA617B6
:10497000B70710F0A61BB70B881F991F5A95A9F708
:1049800080959095BC01CD010895A29FB001B39F81
:10499000C001A39F700D811D1124911DB29F700D48
:1049A000811D1124911D089581E090E0F8940C94EC
:0649B000D924F894FFCFAA
:1049B60000C18081000000FFFFFFFFEB08EB08EB62
:1049C60008EB08EB0800E100000000000000000012
:1049D60000B80A660B2B0B100B00000000451645AD
:1049E6001645169B12971294120000000051120DE4
:1049F600120B129B129712E808B80F0000000088ED
:104A060006230A84099E06EB06A906C706000000CF
:104A160000CA0C460A68146714BF12230CDF120082
:104A2600000000F30C00000000F70D460A6814674A
:104A360014131430002520202000566F6C756D6508
:104A46003A005A6F6F6D005570202F20446F776EB5
:104A5600004D6564696120566F6C756D6500526F17
:104A6600746174696F6E00556E646F202F205265F5
:104A7600646F004D75746500526573657400526508
:104A8600706C616365004F757470757400466C696F
:104A9600700055706C6F6164004465627567002034
:104AA6002F20002B0073643A20002E006D73002027
:084AB60028006D7329200000A7
:2070000055C000006EC000006CC000006AC0000068C0000066C0000064C0000062C0000043
:2070200060C000005EC00000F2C400005AC0000058C0000056C0000054C0000052C00000EE
:2070400050C0000078C000004CC000004AC0000048C0000046C0000044C0000042C00000BE
:2070600040C000003EC000003CC000003AC0000038C0000036C0000034C0000032C0000048
:2070800030C000002EC000002CC000002AC0000028C0000026C0000024C0000022C00000A8
:2070A00020C000001EC000001CC0000011241FBECFEFDAE0DEBFCDBF11E0A0E0B1E0E2E3BC
:2070C000FFE702C005900D92A83AB107D9F711E0A8EAB1E001C01D92AE3BB107E1F78FD30B
:2070E00026C78ECFF89410926F0010928100109285001092840081E085BF15BE47985D98ED
:2071000028980C94000008952091B2013091B3012F5F3F4F3093B3012093B201932F37FFA8
:2071200003C08EEF831B982F990F921710F447980895479A08951F920F920FB60F9211246E
:207140002F938F939F93EF93FF9310928500109284008091A8019091A901009741F00197D3
:207160009093A9018093A801892B09F45D988091AA019091AB01009741F001979093AB0128
:207180008093AA01892B09F42898E0E0F0E0859194918F5F9F4F49F08091AC019091AD0153
:2071A00001969093AD018093AC01FF91EF919F918F912F910F900FBE0F901F90189584E0BC
:2071C0008093E9000DC08091E8008B778093E80003C08EB3882351F08091E80082FFF9CFBE
:2071E0008091E80085FFEFCF8091F1000895982F83E08093E9008091E80085FD0DC0809136
:20720000E8008E778093E80003C08EB3882369F08091E80080FFF9CF9093F1005D9A84E6C9
:2072200090E09093A9018093A80108954F925F926F927F928F929F92AF92BF92CF92DF921E
:20724000EF92FF920F931F93CF93DF9384E08093E9008091E80082FF57C2289A84E690E065
:207260009093AB018093AA01AADF182F853481F48CE49DE19093AD018093AC0107B600FC4B
:20728000FDCFF999FECF81E180935700E89503C0843519F494DF8DE00DC28C34E1F38035F9
:2072A000D1F3843721F484E4A2DF80E003C2813611F489E5FFC18134B1F481DF182F7FDFE3
:2072C00090E0880F991FAA2797FDA095BA2F312F330F20E0442737FD4095542F822B932B68
:2072E000A42BB52BB8C1803711F483E5E3C1833549F4C0E0D1E089917ADF21E0C730D20714
:20730000D1F7D9C1863521F481E371DF80E3D2C1833731F487E86BDF85E969DF8EE1CAC149
:207320008536B9F4E0E0F0E093E085E090935700E89507B600FCFDCF80935700E89507B65D
:2073400000FCFDCFE058FF4FA0E7E030FA0771F7A2CF823739F4E1E0F0E089E08093570024
:207360008491A8C1863439F4E0E0F0E089E08093570084919FC18E3439F4E3E0F0E089E0E5
:2073800080935700849196C1813539F4E2E0F0E089E08093570084918DC1823631F489E521
:2073A00026DF80E024DF80E885C1823419F0873609F0E5C01092AD011092AC0100DF082FE8
:2073C000FEDEF82EFCDE682E8554823008F071C1902F80E0CF2DD0E0C82BD92B10926F00B3
:2073E000173609F04BC081E180935700E895DD24CC24C3943FC0E090AE01F090AF010091CC
:20740000B0011091B101B6E46B16D9F4ED2DF0E0EE29FF29E4918E2FEADEDD2081F082E08D
:2074200090E0A0E0B0E0E80EF91E0A1F1B1FE092AE01F092AF010093B0011093B101DC2470
:2074400018C0D801C701B695A7959795879559D5CEDE82E090E0A0E0B0E0E80EF91E0A1FF2
:207460001B1FE092AE01F092AF010093B0011093B1012197209709F0BECF7DC08090AE01F5
:207480009090AF01A090B001B090B10196E4691609F05DC083E0F40180935700E89507B63E
:2074A00000FCFDCF54C0F6E46F1661F5772031F1E090AE01F090AF010091B0011091B1019E
:2074C0007EDED82ECC24852D90E08C299D29F7010C0140925700E895112482E090E0A0E08B
:2074E000B0E0E80EF91E0A1F1B1FE092AE01F092AF010093B0011093B10102C060DE582E1A
:20750000742423C0E090AE01F090AF010091B0011091B10116950795F794E79450DE682FFA
:20752000C701F7D48091AE019091AF01A091B001B091B1010296A11DB11D8093AE01909349
:20754000AF01A093B001B093B101219704C05524772444244394209709F0A5CF96E46916B6
:2075600041F485E0F40180935700E89507B600FCFDCF8DE03CDE82E080936F009CC0833492
:2075800071F40091AE011091AF0119DE90E021E0F8010C0120935700E89511247CCE8336C8
:2075A00019F5E090AE01F090AF010091B0011091B10105DEF701E16090E021E00C0120938C
:2075C0005700E895112482E090E0A0E0B0E0E80EF91E0A1F1B1FE092AE01F092AF0100936A
:2075E000B0011093B10157CE8D3661F4E091AE01F091AF0185E080935700E89507B600FCF2
:20760000FDCF49CE823551F4E091AE01F091AF0105911491812FEBDD802F4CC0843421F5FE
:20762000E090AE01F090AF010091B0011091B10116950795F794E794C2DD682FC70169D4DE
:207640008091AE019091AF01A091B001B091B1010296A11DB11D8093AE019093AF01A093D8
:20766000B001B093B10117CE843609F5E090AE01F090AF010091B0011091B101D801C70142
:20768000B695A795979587953CD4B1DD82E090E0A0E0B0E0E80EF91E0A1F1B1FE092AE010A
:2076A000F092AF010093B0011093B10104C08B3111F08FE39CDD83E08093E9009091E8002B
:2076C0008091E8008E778093E80095FF04C010C08EB38823C9F08091E80080FFF9CF809193
:2076E000E8008E778093E80003C08EB3882361F08091E80080FFF9CF84E08093E9008091F1
:20770000E8008B778093E800DF91CF911F910F91FF90EF90DF90CF90BF90AF909F908F90AC
:207720007F906F905F904F9008959091B601892F8F77813249F58091B7018032A1F081328A
:2077400019F5913A09F58091E800877F8093E8008DE091E067E070E00BD28091E8008B770B
:207760008093E8000895913279F48091E800877F8093E8008DE091E067E070E05DD2809192
:20778000E8008E778093E800089582E061EC42E0B5D083E061E842E1B1D084E060E842E1EF
:2077A000ADC084B7877F84BF88E10FB6F89480936000109260000FBE20E880E090E00FB63F
:2077C000F89420936100809361000FBE81E085BF92E095BF3F9A209A559AE1E6F0E02083A1
:2077E000108247985D982898109289008AEF8093880090936F0083E080938100F0C040911A
:20780000000850910108109201081092000894B714BE88E10FB6F8948093600010926000D5
:207820000FBE292F30E0F901E270F07091FD18C090FF05C0859194918F5F9F4F81F423FFFF
:207840000FC08091090190910A014817590741F0E0E0F0E0859194918F5F9F4F09F042DC64
:20786000A0DF78941092AD011092AC010CC0DEDC36D38091AC019091AD0181549F4110F00D
:207880001092140141DC80911401882381F78091E00081608093E00025DC80E090E0089598
:2078A000FA01923049F0933061F09130F9F485E191E022E130E01EC087E291E02EE330E04D
:2078C00019C0882329F485E691E024E030E012C0813029F489E691E022E230E00BC0823006
:2078E00029F48DE891E028E130E004C080E090E020E030E091838083C90108958093E9004E
:207900008091EB0081608093EB001092ED006093EC004093ED008091EE00881F8827881F62
:2079200008958091B60188238CF403C08EB38823B1F08091E80082FFF9CF8091E8008B772A
:207940008093E80008958EB3882349F08091E80080FFF9CF8091E8008E778093E800089594
:20796000EF92FF920F931F9345D04CD008ED10E0F80180818F77808380818068808380819B
:207980008F7D808319BC1EBA1092B40180EEE82EF12CF70180818B7F8083F8018081816052
:2079A000808380E060E042E0A9DFE1EEF0E080818E7F8083E2EEF0E0808181608083808144
:2079C00088608083F70180818E7F8083F8018081806180831F910F91FF90EF900895E7ED06
:2079E000F0E08081816080838AE482BF81E08093B501B6CFE8EDF0E080818E7F808310921C
:207A0000E20008951092DA001092E10008951F920F920FB60F9211242F933F934F935F93F6
:207A20006F937F938F939F93AF93BF93EF93FF938091DA0080FF1BC08091D80080FF17C0B2
:207A40008091DA008E7F8093DA008091D90080FF0BC080E189BD82E189BD09B400FEFDCF36
:207A600081E08EBB3BD203C019BC1EBA37D28091E10080FF17C08091E20080FF13C0809138
:207A8000E2008E7F8093E2008091E20080618093E2008091D80080628093D80019BC85E049
:207AA0008EBB1CD28091E10084FF2CC08091E20084FF28C080E189BD82E189BD09B400FEC5
:207AC000FDCF8091D8008F7D8093D8008091E1008F7E8093E1008091E2008F7E8093E20012
:207AE0008091E20081608093E2008091B401882331F48091E30087FD02C081E001C084E067
:207B00008EBBECD18091E10083FF21C08091E20083FF1DC08091E100877F8093E10082E06A
:207B20008EBB1092B4018091E1008E7F8093E1008091E2008E7F8093E2008091E2008061E9
:207B40008093E20080E060E042E0D8DEC7D1FF91EF91BF91AF919F918F917F916F915F9130
:207B60004F913F912F910F900FBE0F901F9018959C014091BC015091BD014617570718F49D
:207B8000F90190E044C06115710511F0AB01F8CF8091E8008E778093E80040E050E0F0CF0F
:207BA0008EB3882309F444C0853009F443C08091E80083FF02C081E008958091E80082FD70
:207BC00031C08091E80080FF22C08091F3009091F200782F60E0292F30E0262B372B07C07A
:207BE00081918093F100415050402F5F3F4F4115510519F02830310598F390E02830310566
:207C000009F491E08091E8008E778093E8004115510531F6992321F605C08EB3882341F075
:207C2000853041F08091E80082FFF7CF80E0089582E0089583E008959C016115710529F47C
:207C40008091E8008B778093E800F90126C08EB3882391F1853091F18091E80083FF02C06C
:207C600081E008958091E80082FFF1CF06C08091F10081936150704059F02091F300809191
:207C8000F200322F20E090E0822B932B892B79F78091E8008B778093E80061157105B9F601
:207CA00005C08EB3882341F0853041F08091E80080FFF7CF80E0089582E0089583E00895C2
:207CC0000F931F93DF93CF9300D0CDB7DEB7E6EBF1E08091F100819381E0EE3BF807C9F792
:207CE00024DD8091E80083FFE4C08091B6019091B701953009F46DC0963040F4913081F1A7
:207D0000913070F0933009F0D4C02AC0983009F4A3C0993009F4B2C0963009F0CAC07CC023
:207D2000803809F4C6C0823809F0C3C08091BA0187708093E9008091EB001092E9002091DB
:207D4000E800277F2093E80090E025E0969587952A95E1F781708093F1001092F10087C0D8
:207D6000882319F0823009F0A4C08F71823009F0A0C08091B801882331F52091BA01277097
:207D800009F497C02093E9008091EB0080FF1BC0933021F48091EB00806213C08091EB0018
:207DA00080618093EB0081E090E002C0880F991F2A95E2F78093EA001092EA008091EB00E5
:207DC00088608093EB001092E9008091E800877F51C0882309F06DC01091B8011F770FB79B
:207DE000F8948091E800877F8093E8009ADD8091E80080FFFCCF8091E3008078812B809398
:207E0000E30080688093E300112311F482E001C083E08EBB0FBF4DC08058823008F049C033
:207E20008091B8019091B9016091BA01AE014F5F5F4F36DDBC01009709F43BC08091E8008E
:207E4000877F8093E80089819A8192DE8091E8008B778093E8002DC0803859F58091E800AA
:207E6000877F8093E8008091B4018093F1008091E8008E778093E80054DD1BC08823C9F4CA
:207E80009091B8019230A8F48091E800877F8093E8009093B40145DD8091B401882331F420
:207EA0008091E30087FD02C081E001C084E08EBB6CDC8091E80083FF0AC08091EB0080624E
:207EC0008093EB008091E800877F8093E8000F900F90CF91DF911F910F91089508951F9360
:207EE0008EB3882361F01091E9001092E9008091E80083FF01C0E4DE17701093E9001F916F
:207F00000895F999FECF92BD81BDF89A992780B50895262FF999FECF1FBA92BD81BD20BDBD
:207F20000FB6F894FA9AF99A0FBE01960895F894FFCF4341544552494E4100777700080031
:207F40000000000000080112011001020000084123370001000201000109023E00020100FE
:207F600080320904000001020201000524001001042402040524060001070582030800FF0C
:207F800009040100020A000000070504021000010705830210000104030904220341007216
:207FA000006400750069006E006F0020004D006900630072006F0020002000200000001810
:1A7FC00003410072006400750069006E006F0020004C004C004300000000D7
:00000001FF
