:100000000C9429050C94D7170C94B0170C948917ED
:100010000C9462170C9451050C9451050C943B17E9
:100020000C9451050C9451050C94FE170C946D180A
:100030000C9451050C9451050C9451050C945105E8
:100040000C9451050C9451050C9451050C945105D8
:100050000C9451050C9451050C9451050C94F11617
:100060000C9451050C9451050C9451050C945105B8
:100070000C9451050C9451050C9451050C945105A8
:100080000C9451050C9451050C9451050C94510598
:100090000C9451050C9451050C9451050C94510588
:1000A0000C9451050C9451050C945105AED580A8C3
:1000B0001FD300408D142002A1C8DA02817FD9F13C
:1000C000DB40A4A6AF000008053009202020202036
:1000D000202020F82020202020202020F820202070
:1000E0002020202020F82020202020202020F82060
:1000F00020202020202020F8202020202020202028
:10010000F82020202020202020F82020202020203F
:100110002020F800030C0F30333C3FC0C3CCCFF09D
:10012000F3FCFF00000000000000000000000000E1
:100130000000002A002B0028000000000000000042
:1001400000000000000000000000000000000000AF
:10015000000000000000000000000000000000009F
:100160000000002C001E0234022002210222022480
:100170000234002602270225022E0236002D003707
:1001800000380027001E001F00200021002200234D
:10019000002400250026003302330036022E0037EB
:1001A0000238021F020402050206020702080209C1
:1001B000020A020B020C020D020E020F02100211C3
:1001C0000212021302140215021602170218021973
:1001D000021A021B021C021D022F003100300023F4
:1001E000022D023500040005000600070008000982
:1001F000000A000B000C000D000E000F0010001193
:100200000012001300140015001600170018001942
:10021000001A001B001C001D002F023102300235A5
:10022000020000080B0002020200000904000001A5
:10023000020200000524001001052401010104242C
:100240000206052406000107058103100040090489
:100250000100020A00000007050202400000070535
:1002600083024000000403090412010002EF0201AE
:100270004041233780000101020301417264756926
:100280006E6F204C4C430041726475696E6F204D57
:100290006963726F00AC001980200000000707300E
:1002A0000A38448280804438384482828240303820
:1002B00044828282440838448282020438384402EC
:1002C0000282443818048282824438204482828226
:1002D00044383840808282443838448282824438AC
:1002E000387CFEFEFE7C3800000507206000000020
:1002F000000000005F00000007000700147F147F6B
:1003000014242A7F2A122313086462364956205087
:100310000008070300001C2241000041221C002AA3
:100320001C7F1C2A08083E0808008070300008085E
:10033000080808000060600020100804023E5149CF
:10034000453E00427F400072494949462141494D9E
:10035000331814127F1027454545393C4A49493125
:1003600041211109073649494936464949291E00A4
:10037000001400000040340000000814224114144E
:10038000141414004122140802015909063E415D6B
:10039000594E7C1211127C7F494949363E414141F8
:1003A000227F4141413E7F494949417F0909090175
:1003B0003E414151737F0808087F00417F41002082
:1003C00040413F017F081422417F404040407F026E
:1003D0001C027F7F0408107F3E4141413E7F090996
:1003E00009063E4151215E7F09192946264949499E
:1003F0003203017F01033F4040403F1F2040201F48
:100400003F4038403F6314081463030478040361D9
:1004100059494D43007F41414102040810200041E9
:1004200041417F0402010204404040404000030774
:10043000080020545478407F2844443838444444C9
:1004400028384444287F385454541800087E090240
:1004500018A4A49C787F0804047800447D40002000
:1004600040403D007F1028440000417F40007C0454
:100470007804787C080404783844444438FC182410
:10048000241818242418FC7C0804040848545454E4
:100490002404043F44243C4040207C1C2040201C79
:1004A0003C4030403C44281028444C9090907C4480
:1004B00064544C44000836410000007700000041BD
:1004C00036080002010204023C2623263C19920A47
:1004D0000C206002010408060B0801030305070253
:1004E00004010506050606070606060606010207BC
:1004F0000707050A08060707060607070304060696
:10050000080708060807060707080B06070603057D
:10051000030808020606050606040606010305018F
:100520000906060606040505060509050505050173
:1005300005080900000000FE200700000700000079
:10054000008090F89690F89610003000003000007F
:10055000001824FF4444842020F02020101C222274
:100560001C80700CC22020C0000000201000001071
:10057000202010DC2222225C80600010202020201D
:100580001010200700F806011060800106F8806056
:10059000100A041F040A0000000000404040F84018
:1005A00040400000003000000000008070404040EB
:1005B000400000000000300000E01C0380700000DC
:1005C00000FC02020202FC1020202020100404FE85
:1005D000000020203020200C824242221C302020AB
:1005E0002020200402222222DC1020202020106063
:1005F000504844FE4040000000003000001E12122F
:100600001212E2102020202010F814121212E01012
:100610002020202010020282621A06002010000012
:1006200000DC22222222DC1020202020103C42422A
:100630004242FC002020201000183000188070403A
:10064000A0A01010080800000010102020505050EA
:10065000505050500000000000000008081010A08A
:10066000A040202010100000000402E2221C000024
:10067000200000F00C04F20A0AFA040CF00030200A
:100680004050505010100000E098868698E00030EE
:1006900000000000000030FE2222223CC03020205A
:1006A000202010F804020202020400102020202062
:1006B00010FE0202020204F830202020201000FE6A
:1006C0002222222222302020202020FE222222222A
:1006D00002300000000000F80402022222E40010B0
:1006E0002020202010FE2020202020FE30000000AE
:1006F00000003002FE02203020000202FE202020F6
:1007000010FE2050880402300000001020FE00007F
:10071000000000302020202020FE0638C0C038060F
:10072000FE3000000000000030FE061820C000FE71
:1007300030000000003030F8040202020204F80029
:1007400010202020201000FE424242423C30000097
:10075000000000F8040202020204F8001020202029
:10076000609080FE222262A21C0030000000001077
:10077000201C22222222C41020202020100202024B
:10078000FE02020200000030000000FE0000000037
:1007900000FE001020202010000638C00000C038E5
:1007A0000600000030300000001EE000C0380638AF
:1007B000C000E01E00003000000000003000000615
:1007C0008870708806300000000030020C10E010C5
:1007D0000C0200000030000000028262120A0630A3
:1007E0002020202020FF0101F08080031C60800079
:1007F00000000030C00101FF8080F01008040202F8
:1008000004081000000000000000000000000000CC
:100810000000008080808080808080010200008055
:1008200048484848F0102020202030FF10080808D1
:10083000F0302020202010F0080808101020202080
:1008400010F008080808FF102020201030F0484859
:1008500048487010202020201008FE0909003000B0
:1008600000F008080808F810A0A0A09070FF100879
:100870000808F0300000000030F9300008F98080EE
:1008800070FF40A010083000001020FF30F808086A
:1008900008F0080808F0300000003000000030F8D0
:1008A00010080808F0300000000030F008080808C0
:1008B000F0102020202010F810080808F0F0202068
:1008C000202010F008080808F81020202010F0F868
:1008D00010080830000000304848488820202020B8
:1008E0001008FE0808080010202020F80000000072
:1008F000F810202020103018E000E0180000300030
:100900000018E000E018E000E018000030000000EF
:1009100030000018A040A018300000003018E0009F
:10092000E018008070000008884828183020202037
:10093000202020DE01010000708080FFF00101DE38
:1009400020208080700000C0202040408080600017
:1009500000000000000000FE02020202020202FE8D
:1009600030202020202020203000000000230026FE
:100970000029002C002F000000000200090F0000D9
:10098000030401000C000000000000000000000053
:1009900000000000000000000000250028002B00DF
:1009A0002E00310000000000240027002A002D0046
:1009B00030000404040404030405020202020403D8
:1009C00002020202060606060606040402020204E9
:1009D000040408020110408040102040804080083C
:1009E00002040180402010020110801020404020AD
:1009F000070605040100080A0B0C0D09050109068C
:100A0000A1018502050719E029E7150025017501F7
:100A100095088102050C95017508150026FF00193F
:100A20000029FF8100050795067508150026E700D7
:100A3000190029E78100C0050C0901A101850415F1
:100A40000026FF0319002AFF03950475108100C0DA
:100A50009F1A11241FBECFEFDAE0DEBFCDBF12E038
:100A6000A0E0B1E0EAE4FAE402C005900D92A630FD
:100A7000B107D9F723E0A6E0B2E001C01D92A63588
:100A8000B207E1F715E0C9E2D5E004C02197FE0105
:100A90000E94E324C832D107C9F70E94671B0C9457
:100AA00023250C9400009093500380934F03FC0186
:100AB00024913196E491F22F319719F410924A0360
:100AC000089581E080934A0308951F93FC0170818B
:100AD00041811281972F990F990F990F35E5292F91
:100AE000239F020E20E0211D1124822F672F6074A6
:100AF000572F507277FD72C061115EC0511105C051
:100B0000922F9095892F90E004C025E5280F90E062
:100B10008BEA4F3F09F424C0442309F480C08823A2
:100B200031F0382F349F030E30E0311D832F222304
:100B300021F0249F020E20E0211D992331F0392F4E
:100B4000349F030E30E0311D932F1124342F309544
:100B5000339F030E30E0311D1124830F230F930FB9
:100B60001F3F09F421C030E0112321F0119F312DE6
:100B700009F03F5F332309F456C0882331F0482F32
:100B8000439F040E40E0411D842F222321F0239F28
:100B9000020E20E0211D992331F0492F439F040EBE
:100BA00040E0411D942F11248093A3022093A402BE
:100BB0009093A5021F91089551110BC0392F2AEA75
:100BC000329F030E30E0311D11249BEA931B280F46
:100BD00099CF90E02095982F80E09BCF611112C0B3
:100BE00051110CC0392F2AEA329F030E30E0311D1B
:100BF00011242BEA231B95E5930FEECF922F9095AE
:100C000020E087CF511106C025E5280F9BEA981BED
:100C1000822FF6CF2AEA280F90E0932FF8CF9FEF8C
:100C20002FEF8FEF9DCF90E020E080E0BDCFE0EF91
:100C3000F9E0E49190917B008E2F880F880F8072ED
:100C40009F7D892B80937B00E770E064E0937C00BC
:100C500080917A00806480937A0080917A0086FD8A
:100C6000FCCF80917800909179000895CF93DF9325
:100C700090E0FC01EF52F64F24918E54964FFC0108
:100C800084918823C1F090E0880F991FFC01EC55F6
:100C9000F64FC591D491FC01EA56F64FA591B49157
:100CA0009FB7F8943881822F809583238883EC91B5
:100CB000E22BEC939FBFDF91CF910895FC018091CF
:100CC000A202882311F13FB7F89482E08093E900F3
:100CD0002091F200822F90E01816190614F481E09A
:100CE00090E0882339F0289A44E64093A10240918D
:100CF000F1004083222339F02091F200211103C03A
:100D00002BE62093E8003FBF08958FEF9FEF0895F3
:100D1000CF93DF931F92CDB7DEB76983DC01ED91EE
:100D2000FC910280F381E02D41E050E0BE016F5F55
:100D30007F4F09950F90DF91CF91089583E08093C5
:100D4000E9008091F200882319F08AE38093E8009B
:100D50000895CF93DF931F92CDB7DEB7FC01848552
:100D6000958597FD08C02FEF3FEF358724870F90BB
:100D7000DF91CF910895CE0101960E945E06019702
:100D800019F4898190E0F3CF8FEF9FEFF0CF0F93AD
:100D90001F93CF93DF931F92CDB7DEB78C01FC0179
:100DA0008485958597FF0BC0CE0101960E945E0653
:100DB000019771F4898190E0F80195878487F801A3
:100DC000848595850F90DF91CF911F910F910895A4
:100DD0008FEF9FEFF1CFFC018485958597FD0BC0C8
:100DE0009FB7F89482E08093E9008091F2009FBF62
:100DF00090E0019608959FB7F89482E08093E9000F
:100E00008091F2009FBF90E00895282F30E0F90113
:100E1000E958F64F9491F901EF52F64F84912E5410
:100E2000364FF9012491222309F45BC09923E9F09C
:100E300091509F30D0F4E92FF0E0EF5DF84F0C9423
:100E4000E3244C07500730074407480735073507A8
:100E50003507530759075D076107670735076B07B4
:100E6000909180009F7790938000E22FF0E0EE0F4A
:100E7000FF1FE759F64FA591B491EC91E82381E06B
:100E800090E089F580E00895909180009F7DEBCF00
:100E900090918000977FE7CF94B59F7794BDE5CF81
:100EA00094B59F7DFBCF909190009F779093900099
:100EB000DCCF909190009F7DF9CF90919000977F2B
:100EC000F5CF9091C0009F779093C000CECF9091C6
:100ED000C0009F7DF9CF9091C200977F9093C20090
:100EE000C4CF80E090E008953FB7F89480919D02D0
:100EF00090919E02A0919F02B091A00226B5A89B5E
:100F000005C02F3F19F00196A11DB11D3FBFBA2F9B
:100F1000A92F982F8827BC01CD01620F711D811D5B
:100F2000911D42E0660F771F881F991F4A95D1F7E0
:100F300008958F929F92AF92BF92CF92DF92EF92DD
:100F4000FF924B015C010E9474076B017C010E94BF
:100F500074076C197D098E099F09683E73408105ED
:100F60009105A8F321E0821A9108A108B10888EE42
:100F7000C80E83E0D81EE11CF11C81149104A10469
:100F8000B10429F7FF90EF90DF90CF90BF90AF9022
:100F90009F908F9008952FB7F89460919902709167
:100FA0009A0280919B0290919C022FBF08954F92CC
:100FB0005F926F927F929F92AF92BF92CF92DF9299
:100FC000EF92FF920F931F93CF93DF9300D01F9266
:100FD000CDB7DEB7F82E8091050390910603A0915E
:100FE0000703B0910803892B8A2B8B2BD9F00E9421
:100FF00074070091AE021091AF022091B0023091BF
:10100000B102601B710B820B930B009105031091D1
:1010100006032091070330910803601771078207C8
:101020009307C8F20E9474076093AE027093AF02F8
:101030008093B0029093B102E0910D03F0910E0302
:10104000309759F04091090350910A0360910B03C6
:1010500070910C038F2D0995F82E0091AC02109120
:10106000AD024F2C512C712C612C0115110509F486
:101070005EC0D8011C96EC901C9780910303909160
:1010800004038436910510F41C961C92D801ED914E
:10109000FC91A280B38019821A821B82FF2089F101
:1010A000F8013696D12CC12C2191222319F192807E
:1010B000992001F130E050E040E02F5F3F4F4F4F6B
:1010C0005F4FC301B2010E949D249B01AC01892D99
:1010D00090E0B0E0A0E0BC01CD016F5F7F4F8F4F8B
:1010E0009F4F0E949D24A1E0B0E0AC0FBD1FAC0D4E
:1010F000BD1D8C93BFEFCB1ADB0A83E0C816D10469
:1011000099F6D8011D964D915C911E9712966D919E
:101110007C919E012F5F3F4FC801F5010995D801D1
:101120001C96EC921C9714960D911C919ECF809169
:10113000AA029091AB028C010F5F1F4F1093AB027C
:101140000093AA0249978CF10E94CB079B01AC0146
:1011500088EE93E0089FB001099F700D189F700DF5
:101160001124072E000C880B990BC090A602D0907A
:10117000A702E090A802F090A9022C193D094E099F
:101180005F090E94C124309304032093030310924B
:10119000AB021092AA020E94CB076093A602709342
:1011A000A7028093A8029093A9020F900F900F902E
:1011B000DF91CF911F910F91FF90EF90DF90CF9033
:1011C000BF90AF909F907F906F905F904F900895E9
:1011D00080E991E0089508954091320250913302E0
:1011E000209130023091310242175307B4F49091AC
:1011F000E8009570E1F39091E80092FD19C08093AA
:10120000F100809132029091330201968F739927F9
:10121000892B19F48EEF8093E8008091320290912F
:1012200033020196909333028093320281E0089555
:1012300080E00895EF92FF920F931F93CF93DF9377
:10124000F82E192FE62E042F81E0860F880F0E94BA
:10125000EC0883E00E94EC08CF2DD12FEC0EFD2E80
:10126000F11CCE15DF05B9F007FF13C0FE01849114
:101270000E94EC08182F80E00E94EC088123219640
:101280008111EFCFDF91CF911F910F91FF90EF90E0
:1012900008958881EDCF81E0F5CFDF92EF92FF9244
:1012A0000F931F93CF93DF93D82E8A01EB017B011D
:1012B000E40EF51ECE15DF0559F0D7FE12C0FE0173
:1012C00084910E94EC0821968111F4CF0FEF1FEF5B
:1012D000C801DF91CF911F910F91FF90EF90DF90A8
:1012E00008958881EECF2FB7F89487708093E90036
:1012F0009091E800892F807295FF04C09091F200D0
:1013000080E4891B2FBF089583E00E94730990E059
:1013100008957F928F929F92AF92BF92CF92DF9269
:10132000EF92FF920F931F93CF93DF93C82E8B0101
:101330007A018091A202811110C08FEF9FEFDF919F
:10134000CF911F910F91FF90EF90DF90CF90BF90C2
:10135000AF909F908F907F9008958091360280FF8C
:1013600005C08091E00082608093E000CE2DDF2DEB
:10137000D12C8AEFB82E8C2D8770982E8C2D8072F0
:10138000882E8C2D8074782E9AE3A92E209719F43C
:10139000DD2009F452C08C2D0E94730981110AC00E
:1013A000BA94BB2051F261E070E080E090E00E94CE
:1013B0009907ECCF8C171D0611F00CF08C2F9FB7FE
:1013C000F8949092E9002091E80025FD02C09FBFAB
:1013D000DDCF282F30E0C21BD30B882029F08150AD
:1013E000A0F01092F100FBCFF801C7FC0AC08150B9
:1013F00050F041914093F100FACF44914093F100B5
:1014000031968150D0F7020F131FDD2021F0A092FA
:10141000E800D12CDCCF8091E80085FD07C0A092C8
:10142000E800DD24D394209791F2F3CF209779F64A
:10143000772069F2A092E800CACF5D9A84E6809393
:101440003502C7017CCFCF93DF93EC0180911C0163
:10145000882331F083E00E9489091816190634F0B8
:1014600081E090E09B838A8380E090E0DF91CF91E0
:101470000895615030F02091F100FC012083019625
:10148000F8CF289A84E68093A1020895AF92BF9284
:10149000CF92DF92EF92FF920F931F93CF93DF9340
:1014A0006C017B018B01040F151FEB015E01AE186F
:1014B000BF08C017D10759F06991D601ED91FC9191
:1014C0000190F081E02DC6010995892B79F7C501BE
:1014D000DF91CF911F910F91FF90EF90DF90CF9010
:1014E000BF90AF9008958091280281110DC082E0D5
:1014F0008093240284E080932502109227021092A8
:10150000260281E08093280284E292E008950F93FE
:101510001F93CF93DF931F92CDB7DEB782E089830D
:1015200042E450E063E272E080E80E944D090E94CC
:10153000730ADC0112960D911C910115110589F0B9
:10154000D801ED91FC910280F381E02DBE016F5F27
:101550007F4FC801099597FD04C0F80100851185EA
:10156000ECCF89810F90DF91CF911F910F9108955A
:10157000DC01FB0112962C9112978481958128172A
:10158000190641F491818081813A31F49D7F81E097
:10159000913009F080E008958132E1F79B3029F421
:1015A00082811F968C9381E008959A3099F7828109
:1015B00050968C93F8CFAF92BF92CF92DF92EF927A
:1015C000FF920F931F93CF93DF931F92CDB7DEB798
:1015D0007C0169836A01590141E050E0BE016F5FFF
:1015E0007F4FFC0183810E9489098C0197FD0BC00C
:1015F000F7018381A501B60180640E948909080F63
:10160000191F97FD8C01C8010F90DF91CF911F9199
:101610000F91FF90EF90DF90CF90BF90AF90089523
:10162000DC01FB0188E4808389E4818384E4828394
:101630001D969C911D979F709F5B93831D968D9126
:101640009C9124E0969587952A95E1F78F708F5BA2
:10165000848385E00895EF92FF920F931F93CF93B9
:10166000DF93FB012081213871F52381223259F566
:10167000DC0112964C91248135814217130619F52D
:10168000EC010B851C85F12CE12C0115110589F06D
:10169000F801448155816281738180E80E944D097F
:1016A0008F3F980749F0E80EF91ED8010D911C9163
:1016B000ECCF81E08F87C701DF91CF911F910F9110
:1016C000FF90EF90089590E080E0F6CFCF93DF9306
:1016D000CDB7DEB769970FB6F894DEBF0FBECDBFAA
:1016E000FC01DB018C918F5F8C939E012D5F3F4F3E
:1016F0008DE0D9011D928A95E9F729E0298384E0DC
:101700008A8391E09D8383E08E832A8721E22B8761
:101710009C879D879F8722E2288B27E02B8B25E0E3
:101720002C8B8E8B20E430E0388F2F8B998F828129
:101730008B8395858685998B8A8B838180688D8B39
:1017400049E150E0BE016F5F7F4F80E00E944D098C
:1017500069960FB6F894DEBF0FBECDBFDF91CF9173
:101760000895CF93DF9380911C02811167C081E0BF
:1017700080930F028093100225E132E03093120231
:1017800020931102109214021092130221E231E010
:1017900030930C0220930B02109217021092160243
:1017A000109219021092180280931A0280931B0261
:1017B00081EC809315020E94730AFC018181909153
:1017C0000F02482F490F5527551F483051059CF5EA
:1017D000A281B381109709F52BE032E03383228395
:1017E000208120930D0280930E0280911002820FBF
:1017F000808320911102A22FB09112028A2F821BA6
:101800008917C8F481813D91C82FD0E0C050DF4FC7
:1018100038838F5F8183F2CFD90118962D913C9147
:10182000199721153105C1F72BE032E019963C9349
:101830002E931897D5CF81E080931C028BE092E025
:10184000DF91CF910895CF93DF93EC010E94B10B0C
:10185000AE014C5F5F4F28E030E062E0DF91CF9156
:101860000C94DB0ACF92DF92FF920F931F93CF93DA
:10187000DF938C01F42EE62FF0E0EE0FFF1FED5DFD
:10188000FE4FC590D490D801ED91FC910484F5856C
:10189000E02D6C2DC8010995EC01892B11F4F11094
:1018A00070C0D0FE0CC0D801ED91FC910484F58588
:1018B000E02D4F2D60EEC8010995C82BD92BD1FE24
:1018C0000CC0D801ED91FC910484F585E02D4F2DDD
:1018D00061EEC8010995C82BD92BD2FE0CC0D801E6
:1018E000ED91FC910484F585E02D4F2D62EEC80149
:1018F0000995C82BD92BD3FE0CC0D801ED91FC91D2
:101900000484F585E02D4F2D63EEC8010995C82BA1
:10191000D92BD4FE0CC0D801ED91FC910484F5853F
:10192000E02D4F2D64EEC8010995C82BD92BD5FEAB
:101930000CC0D801ED91FC910484F585E02D4F2D6C
:1019400065EEC8010995C82BD92BD6FE0CC0D8016D
:10195000ED91FC910484F585E02D4F2D66EEC801D4
:101960000995C82BD92BD7FE0CC0D801ED91FC915D
:101970000484F585E02D4F2D67EEC8010995C82B2D
:10198000D92BCE01DF91CF911F910F91FF90DF9066
:10199000CF900895FF920F931F93CF93DF93EC01A5
:1019A000F62E41E00E94320C8C01892BA9F0E881CF
:1019B000F9810284F385E02DCE01099540E06F2D79
:1019C000CE010E94320C892B39F0E881F981028422
:1019D000F385E02DCE010995C801DF91CF911F91CC
:1019E0000F91FF9008950F931F93CF93DF93EB0117
:1019F0008A010E94B10B9801AE0164E0DF91CF91A2
:101A00001F910F910C94DB0ACF93DF93EC01E9E374
:101A1000F3E090E080E0219131910196232B41F594
:101A2000880F991FFC01E95CFC4FD183C08348E01B
:101A300050E069E373E087E393E00E94F30CE7E38F
:101A4000F3E08FE393E022813381C217D30711F4CF
:101A50001382128232968E179F07A9F748E050E052
:101A600069E373E087E393E0DF91CF910C94F30C8B
:101A70008430910581F6DBCFCF93DF93EC018D8528
:101A8000882329F081508D87DF91CF9108959C8123
:101A90008E819817C8F788896827E881F9810084C2
:101AA000F185E02D42E0CE0109958C818F5F8C831A
:101AB000EBCFDC01ED91FC910084F185E02D40E05D
:101AC00009940F931F93CF938C01FC016483C0850D
:101AD000C60F6C2F6F700E94590D6C2F62956F703E
:101AE0006061C801CF911F910F910C94590DFC01B9
:101AF0002781269526952695621738F465832385D8
:101B0000620F6770606B0C94590D08951F93CF930B
:101B1000DF93EC01142F8E81681718F4CE010E9418
:101B2000610D612FCE01DF91CF911F910C94770D44
:101B3000CF92DF92EF92FF920F931F93CF93DF9399
:101B4000EC01F62EC42ED22E1D868F8186958695A9
:101B50008695081710F00FEF080F1D2D011780F064
:101B6000412F6F2DCE010E94860DEF2CCE1430F048
:101B70006889CE010E943C0DE394F8CF1F5FEECF41
:101B80004D2D6F2DCE01DF91CF911F910F91FF90C1
:101B9000EF90DF90CF900C94860D0F93DC0115969B
:101BA0002C9115971E96ED91FC911F9700E03097B0
:101BB00079F03396E491F0E0379683E0F595E79578
:101BC0008A95E1F751960C9151970E9F002D1124A3
:101BD000EFEFE20F0E0F16964C91169741501496A8
:101BE0006C911497CD010E94980D0F9108952F923A
:101BF0003F924F925F926F927F928F929F92AF929D
:101C0000BF92CF92DF92EF92FF920F931F93CF93E9
:101C1000DF9300D000D000D0CDB7DEB7FC01268521
:101C200037852115310509F44AC19E838D83F90159
:101C30003296649031964491E42EF12CF7E0EF0E49
:101C4000F11C53E0F594E7945A95E1F7E982F90124
:101C5000349654913196E491651748F08E2F90E0B8
:101C6000FC01E50FF11D6E171F060CF469C06D3005
:101C700031F5ED81FE81868181111BC081E090E00C
:101C800026960FB6F894DEBF0FBECDBFDF91CF9181
:101C90001F910F91FF90EF90DF90CF90BF90AF908A
:101CA0009F908F907F906F905F904F903F902F907C
:101CB000089560E08D819E810E94610DDFCF6A30C2
:101CC00009F0FDC0ED81FE818681882321F060E06E
:101CD000CF010E94610DED81FE8181898E9DE02CF6
:101CE000112465816E0D8485882349F0978196952E
:101CF000969596958E2D891B860F18162CF08D8142
:101D00009E810E94770DBACFED81FE812385820FDF
:101D1000877083879E199583CF010E94CD0DED8139
:101D2000FE818485813009F0A9CF6385660F660F37
:101D3000660F6F7362876064CF010E94590D9ECF5A
:101D400089010A5F1F4F651BED81FE8171855189F5
:101D5000759F502D11245C83F90154912F5F3F4FE3
:101D6000F9012491352F2230310508F06AC06E9CAC
:101D7000C0016F9C900D1124689FF001699FF00DC8
:101D800011240E0F1F1F512CED81FE81F481FA8367
:101D9000ED81FE812580F585FB83862C912CAA247C
:101DA000A394B12C312C8981381608F086C0412CBF
:101DB000ED81FE818189481608F078C08B81858786
:101DC000311002C0442041F0ED81FE8145814F5F1A
:101DD0006A81CF010E94860DD12CC12CC61408F057
:101DE00058C0F801EC0DFD1D7490552061F0EA1407
:101DF000FB0449F4E72DF0E0052C02C0F595E795CA
:101E00000A94E2F77E2EED81FE818189823081F491
:101E1000442009F43AC072948FE07822E72DF0E074
:101E2000ED5EFE4F7490672D8D819E810E943C0D6A
:101E3000672D8D819E810E943C0D8FEFC81AD80AB4
:101E4000CDCF477028E0522E541A411101C0512CB9
:101E5000F801612C30E020E0661631F04491240F47
:101E6000311D63943196F8CF600E712E711CF30111
:101E70006490E29EF001E39EF00DF29EF00D1124BD
:101E80008E0F9F1F080F191F7FCFF72DFF707F2E1A
:101E9000C5CFD12CEC81DE1639F060E08D819E81BA
:101EA0000E943C0DD394F6CF439482CF3394080D17
:101EB000191DFFEFAF1ABF0A76CF622D20CF90E039
:101EC00080E0DECE0F93CF93DF93EC011B861A8662
:101ED00060E40E94590D0F81069506950695015004
:101EE0004E81415020E060E0CE010E94980DDF91CC
:101EF000CF910F9108950F931F93CF93DF9320916C
:101F00000A022F5F322F377030930A0220FF2BC056
:101F100020E831FD2064347009F02062205FFC016C
:101F2000EC01239600E011E06485662329F070E05F
:101F3000C8010E94AD246F5F6187322F369F030E68
:101F400030E0311D1124311110C01682662311F0CA
:101F5000615061873196EC17FD0731F7DF91CF9122
:101F60001F910F91089520E0D4CF31503683EECFEA
:101F70004F925F926F927F928F92AF92BF92CF9269
:101F8000DF92EF920F931F93CF93DF933C01EB010E
:101F90000E947407F30127853089621B730B6A3036
:101FA0007105B0F3F894E881F98175B1706265B19B
:101FB0006F7D65B9C9848E812C2D281B822F2E83BD
:101FC000BF844A805B801C850D85DE841F5F0F5FA8
:101FD000D3949F813885AA84EB844081D20120E08C
:101FE000C32F522F322F3081442788943111380F5C
:101FF00008F43FEF8195889410FD430F479588942E
:1020000011FD430F4795889412FD430F479588941F
:1020100013FD430F4795889414FD430F479588940B
:1020200015FD430F4795889416FD430F47958894F7
:1020300017FD430F47958894232F1111242F8C0DE2
:10204000422F002C75B900C047FF65B931812227A6
:10205000889400C000C0002C65B93111390F00C050
:10206000002C75B900C046FF65B908F43FEF9195A3
:10207000889400C000C0002C65B900FD230F00C08B
:10208000002C75B900C045FF65B92795889401FDFE
:10209000230F00C000C0002C65B92795889400C0AC
:1020A000002C75B900C044FF65B902FD230F2795C8
:1020B000889400C000C0002C65B903FD230F00C048
:1020C000002C75B900C043FF65B92795889404FDBD
:1020D000230F00C000C0002C65B92795889400C06C
:1020E000002C75B900C042FF65B905FD230F279587
:1020F000889400C000C0002C65B906FD230F00C005
:10210000002C75B900C041FF65B92795889407FD7B
:10211000230F00C000C0002C65B92795889400C02B
:10212000002C75B900C040FF65B9432F0111422F43
:102130009A0D00C000C0002C65B900C000C0002C82
:1021400075B900C047FF65B932812227889400C065
:1021500000C0002C65B931113C0F00C0002C75B9CE
:1021600000C046FF65B908F43FEFEB0DF11D00C05C
:1021700000C0002C65B9D0FC230F00C0002C75B93D
:1021800000C045FF65B927958894D1FC230F00C096
:1021900000C0002C65B92795889400C0002C75B943
:1021A00000C044FF65B9D2FC230F2795889400C076
:1021B00000C0002C65B9D3FC230F00C0002C75B9FA
:1021C00000C043FF65B927958894D4FC230F00C055
:1021D00000C0002C65B92795889400C0002C75B903
:1021E00000C042FF65B9D5FC230F2795889400C035
:1021F00000C0002C65B9D6FC230F00C0002C75B9B7
:1022000000C041FF65B927958894D7FC230F00C013
:1022100000C0002C65B92795889400C0002C75B9C2
:1022200000C040FF65B9432FD110422FC19500C0B7
:1022300000C0002C65B9CE0D00C000C075B900C04B
:1022400047FF65B930812227889400C000C0002C68
:1022500065B93111380F00C0002C75B900C046FFB8
:1022600065B908F43FEF8195889400C000C0002C48
:1022700065B910FD230F00C0002C75B900C045FFE3
:1022800065B92795889411FD230F00C000C0002C6C
:1022900065B92795889400C0002C75B900C044FF2B
:1022A00065B912FD230F2795889400C000C0002C4B
:1022B00065B913FD230F00C0002C75B900C043FFA2
:1022C00065B92795889414FD230F00C000C0002C29
:1022D00065B92795889400C0002C75B900C042FFED
:1022E00065B915FD230F2795889400C000C0002C08
:1022F00065B916FD230F00C0002C75B900C041FF61
:1023000065B92795889417FD230F00C000C0002CE5
:1023100065B92795889400C0002C75B900C040FFAE
:1023200065B9432F1111422F8C0D00C000C0002C45
:1023300065B9119709F086CE20EE31E0D2010E94F6
:10234000E924DC01CB01F4E0B695A7959795879534
:10235000FA95D1F730E020E0B901EAE94E9E040C8D
:10236000611D5E9E600D711D1124650D711D860F2E
:10237000971FA11DB11D893E43E09407A105B1053A
:1023800008F434C0885E9340A109B10942E0B695D3
:10239000A795979587954A95D1F747E0849F080EB2
:1023A000211D949F200D311D1124290F311D609195
:1023B000090270E0860F971F820F931F40919902C8
:1023C00050919A0260919B0270919C02292F3327B1
:1023D000420F531F611D711D4093990250939A0241
:1023E00060939B0270939C028093090278940E94F0
:1023F0007407F301708B6787DF91CF911F910F9165
:10240000EF90DF90CF90BF90AF908F907F906F90C4
:102410005F904F900895259A08950F931F93CF933F
:10242000DF93CDB7DEB762970FB6F894DEBF0FBE6D
:10243000CDBF8C01F901DC011C968C917A836983F4
:102440005C834B835E834D8390819D8791819E87C2
:1024500092819F878130F1F4CE0101960E947B0F1B
:1024600083E0888B1A8A198AD801ED91FC91048443
:10247000F585E02DBE016F5F7F4FC801099562961B
:102480000FB6F894DEBF0FBECDBFDF91CF911F9185
:102490000F9108951C861B861A86198618861F823E
:1024A000DFCF0F931F93CF93DF93CDB7DEB7629744
:1024B0000FB6F894DEBF0FBECDBF8C01F901DC0171
:1024C0001C968C917A8369835C834B835E834D83F6
:1024D00090819D8791819E8792819F878130E9F4C9
:1024E000CE0101960E947B0F188A1A8A198AD80198
:1024F000ED91FC910484F585E02DBE016F5F7F4F67
:10250000C801099562960FB6F894DEBF0FBECDBF25
:10251000DF91CF911F910F9108951C861B861A861B
:10252000198618861F82E0CF90E080E00895FC01B4
:10253000858596850895CF93DF9300D000D000D095
:10254000CDB7DEB7AB011C821D821E82DC01ED918E
:10255000FC910190F081E02D19821A821B829E016C
:102560002F5F3F4FBE016C5F7F4F099526960FB6D8
:10257000F894DEBF0FBECDBFDF91CF910895FC016F
:102580009C01285F3F4F90E080E04481411101961B
:1025900014823196E217F307C1F70895CF93DF93C2
:1025A0008DE193E00E94BF12EC01892B21F08DE1B7
:1025B00093E00E94230CCE01DF91CF910895CF9339
:1025C000DF93DC0190E2960F9830B0F414968C9172
:1025D000149721E030E001C0220F9A95EAF74423D6
:1025E00041F0282B14962C9381E090E0DF91CF915D
:1025F000089520952823F6CFFD0136964423D1F087
:10260000CD010C96EF012991621771F3C817D90714
:10261000D1F790E080E02191211105C0A80FB91FEA
:1026200016966C93E1CF019686309105A1F790E064
:1026300080E0DCCF90E080E02191621305C0A80F1C
:10264000B91F16961C92D0CF019686309105A1F73E
:10265000EECFCF93DF9341E0682F8DE193E00E94AE
:10266000DF12EC01892B21F08DE193E00E94230C15
:10267000CE01DF91CF9108951F93CF93DF93182F51
:102680000E942913EC01892B61F040E0612F8DE15C
:1026900093E00E94DF12892B21F08DE193E00E94EC
:1026A000230CCE01DF91CF911F910895CF92DF923D
:1026B000EF92FF92CF93DF930E94CB076B017C01D7
:1026C0008091900290919102A0919202B091930218
:1026D000A7019601281B390B4A0B5B0BDA01C901D4
:1026E0000E97A105B10508F444C087E00E940507D4
:1026F000EC0181E00E94050720910602C817D90766
:1027000009F054C0211115C080919002909191025E
:10271000A0919202B0919302A7019601281B390B58
:102720004A0B5B0BDA01C9018E379105A105B10592
:10273000A8F08091610290916202019690936202EA
:102740008093610280917A0290917B020097C1F49C
:1027500082E70E943C1381E08093060281E080932F
:102760006802C0929002D0929102E0929202F0929E
:102770009302DF91CF91FF90EF90DF90CF9008957B
:102780008130910511F48FE4E4CF029721F780EEB8
:102790000E9429138CE10E94291361E170E080E01E
:1027A00090E00E9499070E94CE12D5CF2223A9F073
:1027B0008091900290919102A0919202B091930227
:1027C000A7019601281B390B4A0B5B0BDA01C901E3
:1027D0008E379105A105B10508F2809161029091B3
:1027E00062020197909362028093610280917A0263
:1027F00090917B02009731F481E70E943C13109284
:102800000602ACCF8130910511F480E5F6CF029736
:10281000B1F780EE0E9429138DE10E94291361E136
:1028200070E080E090E00E9499070E94CE12E7CF0E
:10283000FC016093BC008091BC0087FFFCCF9091AD
:10284000B900987F90830895DF92EF92FF920F93E3
:102850001F93CF93DF93EC01D62EF42E8C8988231F
:1028600051F0411108C084E98093BC008091BC0004
:1028700084FDFCCF1C8A8E010E5E1F4F8C89811156
:102880001AC0EB8864EAC8010E9418148A8988304B
:1028900011F0803139F4EE0CE092BB0064E8C8011D
:1028A0000E94181480E0F11080E48093BB0064E87B
:1028B000C8010E941814D092BB0064E8C8010E94AD
:1028C000181482E0F8120BC08C898F5F8C8BDF911B
:1028D000CF911F910F91FF90EF90DF90089584E9C1
:1028E0008093BC008091BC0084FDFCCF1C8AEFCF9C
:1028F000089590E080E008958F929F92AF92BF92EA
:102900000F931F93CF93DF93CDB7DEB7A1970FB689
:10291000F894DEBF0FBECDBF19A2423008F44AE0E2
:102920008E010F5D1F4F842E912CB12CA12CA5017F
:1029300094010E94C124E62FB901CA01EA3044F58E
:10294000E05DD801EE938D01232B242B252B79F705
:1029500090E080E0109769F0FD0101900020E9F718
:102960003197AF014A1B5B0BBD0181E493E00E94EC
:10297000460AA1960FB6F894DEBF0FBECDBFDF9119
:10298000CF911F910F91BF90AF909F908F9008951E
:10299000E95CD7CFFC0101900020E9F73197AF0146
:1029A000481B590BBC0181E493E00C94460ACF927A
:1029B000DF92EF92FF92CF93DF936C01990FEE08B5
:1029C000FF08F7FE19C06DE281E493E00E94F70D65
:1029D000EC0166277727CB016C197D098E099F09C9
:1029E0004AE00E947C148C0F9D1FDF91CF91FF90D5
:1029F000EF90DF90CF9008954AE0C701B601DF91D4
:102A0000CF91FF90EF90DF90CF900C947C14CF93F8
:102A1000DF93EC0142E060E081E493E00E94860DE8
:102A20008BE992E00E945305CE0168E070E00E94BD
:102A3000AD2497FD0896DF91CF910C94D714AF92F7
:102A4000BF92CF92DF92EF92FF920F931F93CF939B
:102A5000DF934F3F540709F45CC07A016B01EC012E
:102A600040E060E081E493E00E94860D85EC90E018
:102A70000E94530510924A038E01D7FF02C0015CE9
:102A80001F4F36E0159507953A95E1F7B12CA12C2B
:102A9000A016B10644F483E891E00E94CA148FEFB7
:102AA000A81AB80AF5CFD7FD2796CE0123E0959551
:102AB00087952A95E1F768E070E00E94AD240196C1
:102AC0000E94D7140F5F1F4F003111052CF483E8CB
:102AD00091E00E94CA14F6CFEF28D9F487EE92E075
:102AE0000E94530541E062E381E493E00E94860D79
:102AF000C6010E94D71485E891E0DF91CF911F9124
:102B00000F91FF90EF90DF90CF90BF90AF900C941B
:102B1000CA14DF91CF911F910F91FF90EF90DF903A
:102B2000CF90BF90AF9008950F931F93CF93DF93F3
:102B300000D01F92CDB7DEB78C010F3F100791F484
:102B40008091630281110EC028985D9881E493E022
:102B50000E94620F0F900F900F90DF91CF911F9105
:102B60000F910895289A5D9A0F3F100779F380918D
:102B70006302811197C08AE5089F802D1124865F2A
:102B800089838FEF8A8380E48B83CE0101960E9434
:102B90006505809102030E94D70787EE92E00E94AC
:102BA000530541E060E081E493E00E94860D81E4FA
:102BB00093E00E94CD0D8AE891E00115110551F0D6
:102BC00082E991E00130110529F00230110521F46C
:102BD00087E991E00E94CA1442E06AE081E493E050
:102BE0000E94860D81E493E00E94CD0D81EA91E080
:102BF0000115110551F08EEA91E00130110529F01F
:102C00000230110521F487EB91E00E94CA1443E0E1
:102C10006AE081E493E00E94860D81E493E00E94E3
:102C2000CD0D83EC91E00115110551F088EC91E098
:102C30000130110529F00230110521F48EEC91E0EC
:102C40000E94CA1443E06AE481E493E00E94860D86
:102C500086ED91E00115110551F08DED91E0013007
:102C6000110529F00230110521F482EE91E00E9455
:102C7000CA148BE992E00E94530543E060E081E4CE
:102C800093E00E94860D89E090E00E94D71443E013
:102C900060E481E493E00E94860D89E090E00E9468
:102CA000D71458CF19821A821B826FCF0E941E251B
:102CB0004F925F926F927F928F929F92AF92BF924C
:102CC000CF92DF92EF92FF92CF93DF93C0915D029C
:102CD000D0915E026091070270910802C53F81E0C9
:102CE000D8070CF069C0BE010D2E000C880B990BA3
:102CF0000E9420236B017C016091590270915A025D
:102D000080915B0290915C020E942023A7019601B2
:102D10000E9476224B015C0160915502709156022F
:102D200080915702909158020E942023A70196019A
:102D30000E9476222B013C01A5019401C501B4013A
:102D40000E94B1239B01AC01C301B2010E94092280
:102D5000A70196010E94B1236B017C01BE01615065
:102D60007109072E000C880B990B0E9420239B01F0
:102D7000AC01C701B6010E9476220E94242420E003
:102D800030E048EC52E40E94B1236B017C0120E06A
:102D900030E0A9010E94AC2320E030E040E05FE396
:102DA00087FD1AC0C701B6010E940A220E94E822CC
:102DB0007093080260930702CB01DF91CF91FF90DF
:102DC000EF90DF90CF90BF90AF909F908F907F90CB
:102DD0006F905F904F900895C701B6010E9409223D
:102DE000E5CF1F920F920FB60F9211242F933F93AE
:102DF0008F939F93AF93BF938091990290919A0282
:102E0000A0919B02B0919C023091980223E0230F85
:102E10002D3758F50196A11DB11D2093980280937E
:102E2000990290939A02A0939B02B0939C02809186
:102E30009D0290919E02A0919F02B091A0020196E6
:102E4000A11DB11D80939D0290939E02A0939F02AD
:102E5000B093A002BF91AF919F918F913F912F911D
:102E60000F900FBE0F901F90189526E8230F029623
:102E7000A11DB11DD2CF1F920F920FB60F92112438
:102E80002F933F934F935F936F937F938F939F9372
:102E9000AF93BF93EF93FF93E0911301F09114016F
:102EA0000995FF91EF91BF91AF919F918F917F9184
:102EB0006F915F914F913F912F910F900FBE0F90A7
:102EC0001F9018951F920F920FB60F9211242F93F7
:102ED0003F934F935F936F937F938F939F93AF93A2
:102EE000BF93EF93FF93E0911101F09112010995C7
:102EF000FF91EF91BF91AF919F918F917F916F91D2
:102F00005F914F913F912F910F900FBE0F901F90A7
:102F100018951F920F920FB60F9211242F933F9383
:102F20004F935F936F937F938F939F93AF93BF93D1
:102F3000EF93FF93E0910F01F09110010995FF913C
:102F4000EF91BF91AF919F918F917F916F915F9121
:102F50004F913F912F910F900FBE0F901F9018959A
:102F60001F920F920FB60F9211242F933F934F93FE
:102F70005F936F937F938F939F93AF93BF93EF93E1
:102F8000FF93E0910D01F0910E010995FF91EF91F2
:102F9000BF91AF919F918F917F916F915F914F9171
:102FA0003F912F910F900FBE0F901F9018951F9279
:102FB0000F920FB60F9211242F933F934F935F936D
:102FC0006F937F938F939F93AF93BF93EF93FF93F1
:102FD000E0910B01F0910C010995FF91EF91BF91E8
:102FE000AF919F918F917F916F915F914F913F91A1
:102FF0002F910F900FBE0F901F9018951F920F9258
:103000000FB60F9211248F939F938091E1009091BE
:10301000E100937F9093E10083FF0FC01092E900DD
:1030200091E09093EB001092EC0092E39093ED000E
:103030001092A20298E09093F00082FF22C093E0E9
:103040009093E9009091F200992319F09AE39093FC
:10305000E80090913502992341F09091350291500A
:1030600090933502911101C05D989091A10299232E
:1030700041F09091A10291509093A102911101C051
:10308000289884FF18C08091E2008E7E8160809332
:10309000E2008091E1008F7E8093E1008091360212
:1030A0008E7E8061809336029F918F910F900FBE2C
:1030B0000F901F90189580FFF7CF8091E2008E7ED1
:1030C00080618093E2008091E1008E7E8093E10038
:1030D000809136028E7E8160E5CF1F920F920FB6EF
:1030E0000F921124CF92DF92EF92FF920F931F93D2
:1030F0002F933F934F935F936F937F938F939F9300
:10310000AF93BF93EF93FF93CF93DF93CDB7DEB72A
:103110006C97DEBFCDBF1092E9008091E80083FF7D
:1031200025C068E0CE0145960E94390A82EF80935F
:10313000E8008D8987FF39C09091E80090FFFCCFAF
:10314000982F907609F034C19E894F89588D2F8928
:10315000F88C911131C0803861F5809137028093ED
:10316000F1001092F1008EEF8093E8006C960FB69C
:10317000F894DEBF0FBECDBFDF91CF91FF91EF91ED
:10318000BF91AF919F918F917F916F915F914F917F
:103190003F912F911F910F91FF90EF90DF90CF9073
:1031A0000F900FBE0F901F9018959EEF9093E80020
:1031B000C7CF1092F100D5CF913059F48111D3CF00
:1031C0004130510581F6809137028D7F809337021F
:1031D000CACF933049F48111C6CF4130510519F659
:1031E000809137028260F2CF953041F48091E800FF
:1031F00080FFFCCF20682093E300B5CF963009F024
:10320000A9C00B8D1C8D22E01092E90010923302B0
:1032100010923202F2122EC010923102109230023D
:103220000E94870A1F8299E09983FA8291E09E8327
:1032300090EA98879AEF9987209132023091330271
:10324000275F3F4F3C832B838D831092E9001092C0
:10325000330210923202109331020093300249E09F
:1032600050E0BE016F5F7F4F80E00E944D090E94D9
:10327000870A79CF10933102009330020E94730ABB
:10328000DC0112960D911C910115110509F451C133
:10329000D801ED91FC910480F581E02DBE016B5EBB
:1032A0007F4FC8010995009709F03EC1F8010085DC
:1032B0001185EACFF3E0FF120EC08F89882309F44D
:1032C00040C0823061F440E86DE087E892E00E94FF
:1032D0001A09811148CF81E28093EB0047CF8130FA
:1032E00029F440E86BE08BE792E0F1CF833099F767
:1032F0000E94730ADC011296ED90FC908E010F5F24
:103300001F4F6801E114F10479F0D701ED91FC91B0
:103310000680F781E02DB801C7010995080F111D3E
:10332000F701E084F184EECFD8011C92F601019000
:103330000020E9F73197BF016C197D0940E0C60113
:10334000C6CF65E672E0FB01449150E080E80E9440
:103350004D0909CF973009F4BECF983021F481E0B0
:103360008093F10000CF993009F0FDCE837009F011
:10337000B2CFE1E0F1E081E031E096E32191222358
:1033800071F08093E9003093EB00DF0111972C91ED
:103390002093EC009093ED008F5F873079F78EE7F4
:1033A0008093EA001092EA008F898093A202DBCE1C
:1033B0008B8D9C8D1092E900109233021092320294
:1033C0009093310280933002898D811192C08E8951
:1033D0009D89913A49F4813209F07DCF47E050E070
:1033E00065E171E080E0B3CF913209F074CF8332B0
:1033F00069F48F89988DB0E0A0E0809307019093E5
:103400000801A0930901B0930A01ADCE803269F49E
:103410008091E80082FFFCCF67E085E191E00E94A7
:10342000390A8BEF8093E8009ECE823209F09BCE62
:103430008F8980931C01EEEFFFE7859194918B3F7C
:103440009C4D51F1E0E0F8E080911501909116015A
:10345000A0911701B0911801803B9440A105B105DE
:10346000F1F480911C0180FD1AC0EE3F8AE0F8075C
:1034700089F587E797E79183808380916000809347
:10348000340288E19BE00FB6F894A8958093600021
:103490000FBE9093600067CEEEEFFAE0D5CF80814B
:1034A00091818737974709F05ECEA895809160009B
:1034B0008861809360008091340280936000EE3FC9
:1034C0002AE0F20789F08091FE0A9091FF0A918329
:1034D000808349CE808191818737980751F29093FC
:1034E000FF0A8093FE0AC5CF1092FF0A1092FE0ACF
:1034F0003ACE0E94730ADC0112960D911C910115BF
:10350000110509F4E8CED801ED91FC910190F0810C
:10351000E02DBE016B5E7F4FC8010995811123CE5E
:10352000F80100851185EBCF181619060CF41BCE97
:10353000D2CEF1E0FF12BECE69E672E004CF109267
:10354000B5021092B40288EE93E0A0E0B0E0809360
:10355000B6029093B702A093B802B093B9028FE479
:1035600091E09093B3028093B2028FEF9FEF90931C
:10357000BF028093BE028093020310920403109254
:10358000030310920E0310920D038FEF9FEFDC01E7
:103590008093090390930A03A0930B03B0930C0349
:1035A0001092200310921F0381E691E090931E0376
:1035B00080931D0380911503811113C01092100395
:1035C00010920F038CEF99E09093120380931103F4
:1035D0008BE390E0909314038093130381E0809336
:1035E00015030E94B10BFC01A385B485109709F067
:1035F00059C08FE093E094878387858596852091D5
:10360000130330911403820F931F9687858783E7F6
:1036100091E0909338038093370380912F038111B9
:1036200013C010922A031092290387E39AE0909323
:103630002C0380932B0389E190E090932E038093D9
:103640002D0381E080932F030E94B10BFC01A38521
:10365000B485109791F589E293E0948783878585F7
:10366000968520912D0330912E03820F931F96870C
:103670008587109244031092430310924D031092D9
:103680004E031092500310924F031092510381E0A9
:103690008093520389E791E0909342038093410322
:1036A0000895DC018D919C9111970097D1F78FE0DF
:1036B00093E08D939C93A1CFDC018D919C91119708
:1036C0000097D1F789E293E08D939C93C8CFCF9375
:1036D000DF9300D01F92CDB7DEB7789484B58260B7
:1036E00084BD84B5816084BD85B5826085BD85B5A6
:1036F000816085BD80916E00816080936E00109224
:10370000810080918100826080938100809181009E
:10371000816080938100809180008160809380002F
:1037200080919100826080939100809191008160EE
:1037300080939100809190008160809390008091AF
:10374000C10084608093C1008091C1008260809339
:10375000C1008091C10081608093C1008091C3004D
:1037600081608093C3008091C00082608093C0001C
:103770008091C20081608093C20080917A00846051
:1037800080937A0080917A00826080937A008091A1
:103790007A00816080937A0080917A0080688093BB
:1037A0007A001092A2021092370210923602809193
:1037B000D70081608093D70080EA8093D80089B5D4
:1037C000806189BD89B5826089BD09B400FEFDCFE5
:1037D00061E070E080E090E00E9499078091D8005D
:1037E0008F7C80618093D8008091E000807F8093FF
:1037F000E0008091E1008E7E8093E1008DE0809377
:10380000E200559A209A5D9828988DE193E00E94F5
:10381000BF128DE193E00E94230C109255038CE3BC
:10382000809354031092B9008CE08093B8001092FA
:10383000450310924603E5E9F2E085919491E82E64
:10384000E7E9F2E0F490E8E9F2E0E491E09347037D
:10385000E9E9F2E0E491E0934803EAE9F2E0E49177
:10386000E09349038C01802F8E198F1548F4F801DD
:10387000649181E493E00E94590D0F5F1F4FF3CFD5
:1038800081E493E00E94620F60EA81E493E00E9489
:10389000590D60EC81E493E00E94590D66EA81E4E1
:1038A00093E00E94590D81E00E94360687E00E9455
:1038B000360686E593E19093120180931101809181
:1038C00069008F7380936900EB9A86E00E94360648
:1038D00085E00E94360684E00E94360680914B0205
:1038E000811145C010923D0210923C028FEF8093EF
:1038F000400280934102809342028093430280936E
:1039000044028093450281E080934602109248026F
:103910001092470210923F0210923E028091AC0238
:103920009091AD02892B31F48AE392E09093AD023D
:103930008093AC02E0913802F0913902309721F087
:103940008AE392E0958384838AE392E0909339023C
:103950008093380210924A02109249028DE391E05E
:1039600090933B0280933A0281E080934B02259A28
:1039700083EA92E090933D0280933C0281E090E0E4
:10398000909348028093470280910503909106032B
:10399000A0910703B0910803843CF9E09F07A105BB
:1039A000B10520F484EC99E0A0E0B0E08093050339
:1039B00090930603A0930703B093080319821A8219
:1039C0001B82CE0101960E9465050E9417067C01AC
:1039D00090936A0280936902BC01990F880B990B3E
:1039E0000E94202320E030E048EC5DE30E94B123F8
:1039F00020E030E040E05FE30E94B1234B015C0136
:103A000020E030E0A9010E94AC2320E030E040E05B
:103A10005FE387FDA4C1C501B4010E940A220E9490
:103A2000E822162F110F1093790281E493E00E948F
:103A3000620F90E080E00E949415612F70E050E0EA
:103A400040E0C7010E941F1580917A0290917B028D
:103A5000019621F090E080E00E940715412C512C46
:103A60003201439404E6202E312C0E94CB07609350
:103A70007C0270937D0280937E0290937F0286E0A9
:103A80000E940507892B09F054C00E94CB070091C2
:103A90008402109185022091860230918702601B7A
:103AA000710B820B930B6D3271408105910508F407
:103AB00040C00E94CB07609384027093850280937C
:103AC00086029093870280917A0290917B028230E5
:103AD00091050CF049C1019690937B0280937A0284
:103AE00080917A0290917B02009709F044C1E090A6
:103AF0006102F09062020091790210E0C0907102C0
:103B0000D090720281E493E00E94620F90E080E026
:103B10000E94941550E040E0B801C6010E941F15B4
:103B200080917A0290917B02019619F0C7010E9460
:103B3000071585E00E940507892B71F50E94CB07C8
:103B4000009188021091890220918A0230918B02A3
:103B5000601B710B820B930B6D32714081059105D7
:103B6000D8F00E94CB0760938802709389028093FB
:103B70008A0290938B0280917A0290917B02009747
:103B800009F0FCC083E70E943C13B5E0EB2EF12C5A
:103B9000F0926702E092660284E00E940507892B9A
:103BA00069F50E94CB0700918C0210918D02209143
:103BB0008E0230918F02601B710B820B930B6D3262
:103BC000714081059105D0F00E94CB0760938C0273
:103BD00070938D0280938E0290938F0280917A026F
:103BE00090917B02009709F0FFC08FE70E943C1381
:103BF00085E090E0909365028093640200917A02E0
:103C000010917B0280916D0290916E0290937002F0
:103C100080936F0280916B0290916C0290936E0280
:103C200080936D028091690290916A0290936C0278
:103C300080936B020E94170690936A028093690238
:103C4000880F991F20916B0230916C02820F931F95
:103C500020916D0230916E02820F931F20916F02AE
:103C600030917002820F931F65E070E00E94AD24D6
:103C70007B017093740260937302603471050CF0E1
:103C8000E9C0EE0CFF1CEE0CFF1CF0927202E092F9
:103C90007102B7010F2C000C880B990B0E94202396
:103CA0009B01AC0160E070E080E094E40E94092296
:103CB00020E030E040EA51E40E9476224B015C01B2
:103CC00020E030E0A9010E94AC2320E030E040E099
:103CD0005FE387FDFDC0C501B4010E940A220E9476
:103CE000E8226093770280917802861B990B90936B
:103CF00054028093530280917502909176028E193E
:103D00009F094896C19720F41092540210925302D2
:103D1000E0905302F0905402E114F10409F443C11D
:103D2000D12CC12CAA24BB24AE18BF08C701F7FCB4
:103D3000C501C816D9060CF0F2C01E141F040CF001
:103D4000D8C00115110509F0C8C089EE90E00E94A5
:103D5000040D809179028E5F80937902C6C0C501FF
:103D6000B4010E9409225BCE2FEF3FEF30937B021C
:103D700020937A02B5CE0E949415DBCE8130910556
:103D800011F481E500CF8230910591F480EE0E941C
:103D9000291382EE0E94291388E10E94291361E110
:103DA00070E080E090E00E9499070E94CE12EDCE74
:103DB000019609F0EACE10925E0210925D02109216
:103DC000590210925A0210925B0210925C021092F9
:103DD0005502109256021092570210925802CC24AB
:103DE000C394C0925F02D1CE81309105C1F482E5C7
:103DF0000E943C1361E170E080E090E00E9499072E
:103E000080EE0E94291387E20E94291361E170E08D
:103E100080E090E00E9499070E94CE12E9CE8230A5
:103E2000910529F480EE0E9429138BE0EDCF0196D5
:103E300009F0DECE8091600221E08227809360024B
:103E40008091630282278093630281E493E00E9461
:103E5000620FCECE072E000C880B990B0E942023F8
:103E6000EFEBEE16E3E0FE060CF52AE534E64BE157
:103E70005FE30E94B12323E333E349E553E40E9467
:103E80000A226B017C0120E030E0A9010E94AC23F2
:103E900020E030E040E05FE387FD15C0C701B601D8
:103EA0000E940A220E94E8227B01EFCE2CE53FE827
:103EB00042E650E40E94B12326E636E642E255E4AB
:103EC0000E940922DECFC701B6010E940922EACF73
:103ED000C501B4010E94092202CF8EE20130110512
:103EE000D9F082E502301105B9F0FFEFCF1ADF0AF1
:103EF0001DCF0115110541F48AEE90E00E94040DDA
:103F000080917902825028CF8DE20130110521F095
:103F10000230110551F781E50E943C13E6CFE09095
:103F20007102F090720280917902853648F1B701F2
:103F30000F2C000C880B990B0E94202320E030E00E
:103F400048EC5DE30E94B12320E030E040E05FE315
:103F50000E94B1234B015C0120E030E0A9010E94E6
:103F6000AC2320E030E040E05FE387FDAFC1C50156
:103F7000B4010E940A220E94E822660F609379022F
:103F80006091790270E0A801C7010E941F1580911D
:103F900071029091720290937602809375028091E3
:103FA0007702809378020E94CB076093800270931F
:103FB0008102809382029093830200917A02109191
:103FC0007B0280916802882359F00F3F100741F06F
:103FD00080916102909162020E940715109268021E
:103FE0008091660290916702009709F074C10F3FBB
:103FF000100771F08BE992E00E94530543E060E402
:1040000081E493E00E94860D89E090E00E94D7143D
:104010008091640290916502009709F082C10F3F80
:104020001F4F71F08BE992E00E94530543E060E07E
:1040300081E493E00E94860D89E090E00E94D7140D
:1040400080917A0290917B02019609F02FC10E9423
:10405000CB0760939402709395028093960290939D
:10406000970220916302211182C120917102309147
:104070007202A901440F551F240F351F37FF02C0DC
:10408000215F3F4F44E0359527954A95E1F710E4CD
:10409000120F009161022AE030E040E050E00E94FF
:1040A000C12429830A831B83CE0101960E946505E2
:1040B000809102030E94D707809160028111F6C0AF
:1040C0008DEC94E00E94530540E060E081E493E0D1
:1040D0000E94860D89EE91E00E94CA1487EE92E05C
:1040E0000E94530540E06DE381E493E00E94860D59
:1040F0008091730290917402883E934024F488E882
:1041000091E00E94CA1480917302909174020E94FF
:10411000D7148FEE91E00E94CA14809171029091A1
:104120007202883E934024F488E891E00E94CA1409
:1041300080917102909172020E94D71441E06DE665
:1041400081E493E00E94860D809161029091620269
:104150008456910989339F4F20F088E891E00E94AE
:10416000CA148091610290916202181619060CF02F
:1041700002C183EF91E00E94CA1480916102909184
:1041800062020E94D71480915F02882399F1809186
:104190005D0290915E02843F31E093070CF4F1C020
:1041A00010925F0242E06FE481E493E00E94860D8A
:1041B00085EF91E00E94CA140E945816B1010E9436
:1041C000AD24CB010E94D7148AEF91E00E94CA145B
:1041D0000E945816B1010E94AD240A9724F483E886
:1041E00091E00E94CA140E945816B1010E94AD24A9
:1041F0000E94D71443E063E481E493E00E94860DBB
:104200000E94CB07AB01BC0180917C0290917D02A2
:10421000A0917E02B0917F0273016201C81AD90A8F
:10422000EA0AFB0AD701C601840F951FA61FB71F14
:104230000A97A105B10520F488E891E00E94CA140C
:104240000E94CB0700917C0210917D0220917E029A
:1042500030917F0273016201C01AD10AE20AF30AA7
:1042600097018601600F711F821F931F4AE00E9411
:104270007C148CEF91E00E94CA148FEF91E00E94B1
:10428000CA140E94CB0700919402109195022091CC
:10429000960230919702601B710B820B930B4AE0E0
:1042A0000E947C1482E092E00E94CA1461E070E0F7
:1042B00080E090E00E94990780E0E82E80E0F82EF0
:1042C000EF2809F4D2CB0E940000CFCBC501B40186
:1042D0000E94092250CE181619060CF099CE0F3FF5
:1042E000100709F495CE8BE992E00E94530543E054
:1042F00060E481E493E00E94860D88E090E00E94F3
:10430000D71485E00E940507892B09F481CE80919E
:10431000660290916702019790936702809366020C
:1043200077CE181619060CF08BCE0F3F1F4F09F4ED
:1043300087CE8BE992E00E94530543E060E081E480
:1043400093E00E94860D88E090E00E94D71484E0FC
:104350000E940507892B09F473CE80916402909125
:1043600065020197909365028093640269CE198279
:104370001A821B8299CE892B09F0FFCE88E891E042
:10438000FACE6091710270917202019690935E0272
:1043900080935D02072E000C880B990B0091590247
:1043A00010915A0220915B0230915C02060F171F98
:1043B000281F391F0093590210935A0220935B0261
:1043C00030935C020E9420236B017C0160915502B6
:1043D0007091560280915702909158020E942023BA
:1043E0004B015C01A7019601C701B6010E94B123F0
:1043F0009B01AC01C501B4010E940A220E94E8227F
:10440000609355027093560280935702909358021E
:10441000C9CE5058BB27AA270E9421220C94722390
:104420000E94642338F00E946B2320F039F49F3FF0
:1044300019F426F40C9461230EF4E095E7FB0C9438
:104440005B23E92F0E94832358F3BA17620773078F
:104450008407950720F079F4A6F50C94A5230EF4B3
:10446000E0950B2EBA2FA02D0B01B90190010C0184
:10447000CA01A0011124FF27591B99F0593F50F49C
:10448000503E68F11A16F040A22F232F342F4427F4
:10449000585FF3CF469537952795A795F0405395EC
:1044A000C9F77EF41F16BA0B620B730B840BBAF0BC
:1044B0009150A1F0FF0FBB1F661F771F881FC2F727
:1044C0000EC0BA0F621F731F841F48F4879577953B
:1044D0006795B795F7959E3F08F0B0CF9395880FF5
:1044E00008F09927EE0F9795879508950E948A22E4
:1044F0000C9472230E946B2358F00E94642340F0B6
:1045000029F45F3F29F00C945B2351110C94A623EE
:104510000C9461230E94832368F39923B1F35523FC
:1045200091F3951B550BBB27AA27621773078407C6
:1045300038F09F5F5F4F220F331F441FAA1FA9F35C
:1045400035D00E2E3AF0E0E832D091505040E6954A
:10455000001CCAF72BD0FE2F29D0660F771F881FAB
:10456000BB1F261737074807AB07B0E809F0BB0B9E
:10457000802DBF01FF2793585F4F3AF09E3F5105B2
:1045800078F00C945B230C94A6235F3FE4F3983EF1
:10459000D4F3869577956795B795F7959F5FC9F79B
:1045A000880F911D9695879597F90895E1E0660F1C
:1045B000771F881FBB1F621773078407BA0720F095
:1045C000621B730B840BBA0BEE1F88F7E0950895FE
:1045D0000E94EF226894B1110C94A62308950E94C2
:1045E0008B2388F09F5798F0B92F9927B751B0F0D7
:1045F000E1F0660F771F881F991F1AF0BA95C9F767
:1046000014C0B13091F00E94A523B1E008950C943C
:10461000A523672F782F8827B85F39F0B93FCCF3EF
:10462000869577956795B395D9F73EF490958095E3
:10463000709561957F4F8F4F9F4F0895E89409C003
:1046400097FB3EF490958095709561957F4F8F4FC5
:104650009F4F9923A9F0F92F96E9BB279395F695DB
:10466000879577956795B795F111F8CFFAF4BB0F59
:1046700011F460FF1BC06F5F7F4F8F4F9F4F16C0BD
:10468000882311F096E911C0772321F09EE8872F47
:10469000762F05C0662371F096E8862F70E060E003
:1046A0002AF09A95660F771F881FDAF7880F96957C
:1046B000879597F9089597F99F6780E870E060E023
:1046C00008959FEF80EC089500240A9416161706AB
:1046D00018060906089500240A94121613061406F3
:1046E00005060895092E0394000C11F4882352F056
:1046F000BB0F40F4BF2B11F460FF04C06F5F7F4F0E
:104700008F4F9F4F089557FD9058440F551F59F0F4
:104710005F3F71F04795880F97FB991F61F09F3FAE
:1047200079F087950895121613061406551FF2CFD7
:104730004695F1DF08C0161617061806991FF1CF27
:1047400086957105610508940895E894BB2766274E
:104750007727CB0197F908950E94642408F48FEF1E
:1047600008950E94C4230C9472230E94642338F09D
:104770000E946B2320F0952311F00C945B230C9482
:10478000612311240C94A6230E94832370F3959F28
:10479000C1F3950F50E0551F629FF001729FBB2738
:1047A000F00DB11D639FAA27F00DB11DAA1F649FD4
:1047B0006627B00DA11D661F829F2227B00DA11D87
:1047C000621F739FB00DA11D621F839FA00D611D0D
:1047D000221F749F3327A00D611D231F849F600D2E
:1047E000211D822F762F6A2F11249F5750409AF057
:1047F000F1F088234AF0EE0FFF1FBB1F661F771FE3
:10480000881F91505040A9F79E3F510580F00C94AD
:104810005B230C94A6235F3FE4F3983ED4F3869584
:1048200077956795B795F795E7959F5FC1F7FE2B4D
:10483000880F911D9695879597F9089519F416F4A8
:104840000C9461230C9488240E948B23B8F3992341
:10485000C9F3B6F39F57550B87FF0E949624002497
:10486000A0E640EA900180585695979528F4805C20
:10487000660F771F881F20F026173707480730F488
:10488000621B730B840B202931294A2BA6951794A0
:104890000794202531254A2758F7660F771F881F70
:1048A00020F026173707480730F4620B730B840B90
:1048B000200D311D411DA09581F7B901842F91581C
:1048C000880F969587950895990F0008550FAA0BA4
:1048D000E0E8FEEF16161706E807F907C0F0121613
:1048E0001306E407F50798F0621B730B840B950B16
:1048F00039F40A2661F0232B242B252B21F408956B
:104900000A2609F4A140A6958FEF811D811D089507
:104910009F3F31F0915020F4879577956795B79533
:10492000880F911D9695879597F90895915050405D
:10493000660F771F881FD2F70895DB018F939F932F
:104940000E94F024BF91AF91A29F800D911DA39F63
:10495000900DB29F900D1124089597FB072E16F429
:10496000009407D077FD09D00E94FB2407FC05D0F6
:104970003EF4909581959F4F0895709561957F4F76
:104980000895A1E21A2EAA1BBB1BFD010DC0AA1F90
:10499000BB1FEE1FFF1FA217B307E407F50720F0A8
:1049A000A21BB30BE40BF50B661F771F881F991F23
:1049B0001A9469F760957095809590959B01AC016C
:1049C000BD01CF010895EE0FFF1F0590F491E02D7A
:1049D00009940E940F25B7FF0895821B930B089539
:1049E0000E940F25A59F900DB49F900DA49F800D50
:1049F000911D11240895AA1BBB1B51E107C0AA1FDA
:104A0000BB1FA617B70710F0A61BB70B881F991F6F
:104A10005A95A9F780959095BC01CD010895A29F64
:104A2000B001B39FC001A39F700D811D1124911D82
:104A3000B29F700D811D1124911D089581E090E0B9
:0A4A4000F8940C942325F894FFCF9E
:104A4A0000C18081000000FFFFFFFFEB08EB08EBCD
:104A5A0008EB08EB0800E10000000000000000007D
:104A6A0000B80A660B2B0B100B00000000561656F6
:104A7A001656169B12971294120000000051120D3E
:104A8A00120B129B129712E808B80F000000008858
:104A9A0006230A84099E06EB06A906C7060000003B
:104AAA0000CA0C460A79147814BF12230CDF1200CC
:104ABA00000000F30C00000000F70D460A79147894
:104ACA0014241430002520202000566F6C756D6563
:104ADA003A005A6F6F6D005570202F20446F776E21
:104AEA00004D6564696120566F6C756D6500526F83
:104AFA00746174696F6E00556E646F202F20526561
:104B0A00646F004D75746500526573657400526573
:104B1A00706C616365004F757470757400466C69DA
:104B2A00700055706C6F616400446562756700209F
:104B3A002F20002B0073643A20002E006D73002092
:064B4A0028006D73290034
:00000001FF
