:100000000C94DB020C94D0140C94A9140C9482145C
:100010000C945B140C9403030C9403030C9434149D
:100020000C9403030C9403030C94F7140C946615BE
:100030000C9403030C9403030C9403030C94030328
:100040000C9403030C9403030C9403030C94030318
:100050000C9403030C9403030C9403030C94EA1311
:100060000C9403030C9403030C9403030C940303F8
:100070000C9403030C9403030C9403030C940303E8
:100080000C9403030C9403030C9403030C940303D8
:100090000C9403030C9403030C9403030C940303C8
:1000A0000C9403030C9403030C940303AED580A8B3
:1000B0001FD300408D142002A1C8DA02817FD9F13C
:1000C000DB40A4A6AF000005072060000000000090
:1000D00000005F00000007000700147F147F142455
:1000E0002A7F2A12231308646236495620500008DA
:1000F000070300001C2241000041221C002A1C7F33
:100100001C2A08083E08080080703000080808080B
:1001100008000060600020100804023E5149453E7E
:1001200000427F400072494949462141494D3318F8
:1001300014127F1027454545393C4A494931412130
:100140001109073649494936464949291E00001414
:10015000000000403400000008142241141414145C
:1001600014004122140802015909063E415D594E0E
:100170007C1211127C7F494949363E414141227F20
:100180004141413E7F494949417F090909013E41B9
:100190004151737F0808087F00417F4100204041A2
:1001A0003F017F081422417F404040407F021C02F3
:1001B0007F7F0408107F3E4141413E7F09090906C7
:1001C0003E4151215E7F091929462649494932039A
:1001D000017F01033F4040403F1F2040201F3F4020
:1001E00038403F63140814630304780403615949D9
:1001F0004D43007F4141410204081020004141412C
:100200007F04020102044040404040000307080010
:1002100020545478407F2844443838444444283893
:100220004444287F385454541800087E090218A406
:10023000A49C787F0804047800447D40002040405E
:100240003D007F1028440000417F40007C0478047A
:10025000787C080404783844444438FC1824241872
:1002600018242418FC7C080404084854545424041A
:10027000043F44243C4040207C1C2040201C3C4047
:1002800030403C44281028444C9090907C44645466
:100290004C44000836410000007700000041360859
:1002A0000002010204023C2623263C00000805301F
:1002B000092020202020202020F82020202020207D
:1002C0002020F82020202020202020F8202020207E
:1002D00020202020F82020202020202020F820206E
:1002E000202020202020F82020202020202020F85E
:1002F0002020202020202020F800030C0F30333C49
:100300003FC0C3CCCFF0F3FCFF00000000000000B2
:100310000000000000000000002A002B0028000060
:1003200000000000000000000000000000000000CD
:1003300000000000000000000000000000000000BD
:100340000000000000000000002C001E023402200B
:100350000221022202240234002602270225022E54
:100360000236002D003700380027001E001F002035
:100370000021002200230024002500260033023340
:100380000036022E00370238021F02040205020660
:10039000020702080209020A020B020C020D020EF9
:1003A000020F0210021102120213021402150216A9
:1003B000021702180219021A021B021C021D022F48
:1003C000003100300023022D023500040005000634
:1003D000000700080009000A000B000C000D000EC9
:1003E000000F001000110012001300140015001679
:1003F000001700180019001A001B001C001D002F18
:10040000023102300235020000080B000202020035
:10041000000904000001020200000524001001058B
:1004200024010101042402060524060001070581B8
:100430000310004009040100020A00000007050241
:100440000240000007058302400000040309041273
:10045000010002EF02014041233780000101020345
:100460000141726475696E6F204C4C4300417264A7
:1004700075696E6F204D6963726F00AC0019802042
:100480000000000707300A3844828080443838442E
:100490008282824030384482828244083844828298
:1004A00002043838440202824438180482828244AA
:1004B00038204482828244383840808282443838EE
:1004C000448282824438387CFEFEFE7C3800000084
:1004D000002300260029002C002F0000000002004D
:1004E000090F0000030401000C00000000000000E0
:1004F00000000000000000000000000000002500D7
:1005000028002B002E0031000000000024002700EE
:100510002A002D0030000404040404030405020230
:10052000020204030202020206060606060604048C
:10053000020202040404080201104080401020401E
:1005400080408008020401804020100201108010C9
:1005500020404020070605040100080A0B0C0D0985
:1005600005010906A1018502050719E029E7150023
:100570002501750195088102050C95017508150086
:1005800026FF00190029FF8100050795067508154B
:100590000026E700190029E78100C0050C0901A128
:1005A000018504150026FF0319002AFF0395047531
:1005B000108100C0981711241FBECFEFDAE0DEBF14
:1005C000CDBF11E0A0E0B1E0EAEEFFE302C005908C
:1005D0000D92AA3EB107D9F723E0AAEEB1E001C01F
:1005E0001D92AF31B207E1F712E0CBEDD2E004C0CB
:1005F0002197FE010E94B31FCA3DD107C9F70E948F
:1006000060180C94F31F0C940000909319038093CE
:100610001803FC0124913196E491F22F319719F4DB
:1006200010921303089581E08093130308951F939C
:10063000FC01708141811281972F990F990F990FB9
:1006400035E5292F239F020E20E0211D1124822F42
:10065000672F6074572F507277FD72C061115EC0B2
:10066000511105C0922F9095892F90E004C025E587
:10067000280F90E08BEA4F3F09F424C0442309F48B
:1006800080C0882331F0382F349F030E30E0311DB5
:10069000832F222321F0249F020E20E0211D992385
:1006A00031F0392F349F030E30E0311D932F112488
:1006B000342F3095339F030E30E0311D1124830F0A
:1006C000230F930F1F3F09F421C030E0112321F0C5
:1006D000119F312D09F03F5F332309F456C0882361
:1006E00031F0482F439F040E40E0411D842F222308
:1006F00021F0239F020E20E0211D992331F0492F84
:10070000439F040E40E0411D942F112480937802F2
:100710002093790290937A021F91089551110BC092
:10072000392F2AEA329F030E30E0311D11249BEA53
:10073000931B280F99CF90E02095982F80E09BCFB6
:10074000611112C051110CC0392F2AEA329F030ED9
:1007500030E0311D11242BEA231B95E5930FEECFDA
:10076000922F909520E087CF511106C025E5280FE4
:100770009BEA981B822FF6CF2AEA280F90E0932F4E
:10078000F8CF9FEF2FEF8FEF9DCF90E020E080E03C
:10079000BDCFE4E5F5E0E49190917B008E2F880FCA
:1007A000880F80729F7D892B80937B00E770E064C7
:1007B000E0937C0080917A00806480937A0080913D
:1007C0007A0086FDFCCF80917800909179000895A1
:1007D000CF93DF9390E0FC01EB5CFA4F24918A5EAB
:1007E0009A4FFC0184918823C1F090E0880F991FF3
:1007F000FC01E85FFA4FC591D491FC01E650FB4F34
:10080000A591B4919FB7F8943881822F8095832366
:100810008883EC91E22BEC939FBFDF91CF910895F9
:10082000FC0180917702882311F13FB7F89482E0B0
:100830008093E9002091F200822F90E018161906AB
:1008400014F481E090E0882339F0289A44E640933C
:1008500076024091F1004083222339F02091F2008A
:10086000211103C02BE62093E8003FBF08958FEFCE
:100870009FEF0895CF93DF931F92CDB7DEB76983C3
:10088000DC01ED91FC910280F381E02D41E050E02C
:10089000BE016F5F7F4F09950F90DF91CF91089553
:1008A00083E08093E9008091F200882319F08AE3C5
:1008B0008093E8000895CF93DF931F92CDB7DEB702
:1008C000FC018485958597FD08C02FEF3FEF3587A4
:1008D00024870F90DF91CF910895CE0101960E9459
:1008E0001004019719F4898190E0F3CF8FEF9FEF07
:1008F000F0CF0F931F93CF93DF931F92CDB7DEB747
:100900008C01FC018485958597FF0BC0CE01019673
:100910000E941004019771F4898190E0F801958795
:100920008487F801848595850F90DF91CF911F9181
:100930000F9108958FEF9FEFF1CFFC01848595858E
:1009400097FD0BC09FB7F89482E08093E9008091F7
:10095000F2009FBF90E0019608959FB7F89482E05F
:100960008093E9008091F2009FBF90E00895282FC6
:1009700030E0F901E552FB4F9491F901EB5CFA4F3D
:1009800084912A5E3A4FF9012491222309F45BC035
:100990009923E9F091509F30D0F4E92FF0E0ED5227
:1009A000FB4F0C94B31FFE040205E204F604FA04A4
:1009B000E704E704E70405050B050F051305190512
:1009C000E7041D05909180009F7790938000E22FAF
:1009D000F0E0EE0FFF1FE353FB4FA591B491EC91B4
:1009E000E82381E090E089F580E00895909180000F
:1009F0009F7DEBCF90918000977FE7CF94B59F7755
:100A000094BDE5CF94B59F7DFBCF909190009F77EB
:100A100090939000DCCF909190009F7DF9CF9091C2
:100A20009000977FF5CF9091C0009F779093C00082
:100A3000CECF9091C0009F7DF9CF9091C200977F5B
:100A40009093C200C4CF80E090E008953FB7F8943F
:100A50008091720290917302A0917402B09175021C
:100A600026B5A89B05C02F3F19F00196A11DB11D09
:100A70003FBFBA2FA92F982F8827BC01CD01620F45
:100A8000711D811D911D42E0660F771F881F991F00
:100A90004A95D1F708958F929F92AF92BF92CF92CD
:100AA000DF92EF92FF924B015C010E9426056B01E1
:100AB0007C010E9426056C197D098E099F09683EFC
:100AC000734081059105A8F321E0821A9108A108DD
:100AD000B10888EEC80E83E0D81EE11CF11C811419
:100AE0009104A104B10429F7FF90EF90DF90CF901B
:100AF000BF90AF909F908F9008952FB7F89460911A
:100B00006E0270916F0280917002909171022FBFFE
:100B1000089580E991E00895089540911E02509152
:100B20001F0220911C0230911D0242175307B4F49A
:100B30009091E8009570E1F39091E80092FD19C062
:100B40008093F10080911E0290911F0201968F7395
:100B50009927892B19F48EEF8093E80080911E026B
:100B600090911F02019690931F0280931E0281E0D4
:100B7000089580E00895EF92FF920F931F93CF9313
:100B8000DF93F82E192FE62E042F81E0860F880FB1
:100B90000E948D0583E00E948D05CF2DD12FEC0E94
:100BA000FD2EF11CCE15DF05B9F007FF13C0FE01C5
:100BB00084910E948D05182F80E00E948D0581236D
:100BC00021968111EFCFDF91CF911F910F91FF906F
:100BD000EF9008958881EDCF81E0F5CFDF92EF921D
:100BE000FF920F931F93CF93DF93D82E8A01EB01CF
:100BF0007B01E40EF51ECE15DF0559F0D7FE12C0BD
:100C0000FE0184910E948D0521968111F4CF0FEF92
:100C10001FEFC801DF91CF911F910F91FF90EF90CF
:100C2000DF9008958881EECF2FB7F8948770809376
:100C3000E9009091E800892F807295FF04C090919F
:100C4000F20080E4891B2FBF089583E00E94140600
:100C500090E008957F928F929F92AF92BF92CF9231
:100C6000DF92EF92FF920F931F93CF93DF93C82EE3
:100C70008B017A0180917702811110C08FEF9FEF75
:100C8000DF91CF911F910F91FF90EF90DF90CF9068
:100C9000BF90AF909F908F907F9008958091220297
:100CA00080FF05C08091E00082608093E000CE2D3F
:100CB000DF2DD12C8AEFB82E8C2D8770982E8C2D9D
:100CC0008072882E8C2D8074782E9AE3A92E20971E
:100CD00019F4DD2009F452C08C2D0E9414068111F4
:100CE0000AC0BA94BB2051F261E070E080E090E06D
:100CF0000E944B05ECCF8C171D0611F00CF08C2FC9
:100D00009FB7F8949092E9002091E80025FD02C079
:100D10009FBFDDCF282F30E0C21BD30B882029F0E6
:100D20008150A0F01092F100FBCFF801C7FC0AC07F
:100D3000815050F041914093F100FACF449140939B
:100D4000F10031968150D0F7020F131FDD2021F002
:100D5000A092E800D12CDCCF8091E80085FD07C08F
:100D6000A092E800DD24D394209791F2F3CF20974E
:100D700079F6772069F2A092E800CACF5D9A84E6FE
:100D800080932102C7017CCFCF93DF93EC01809148
:100D90001C01882331F083E00E942A0618161906E8
:100DA00034F081E090E09B838A8380E090E0DF91E3
:100DB000CF910895615030F02091F100FC01208323
:100DC0000196F8CF289A84E6809376020895AF9230
:100DD000BF92CF92DF92EF92FF920F931F93CF9328
:100DE000DF936C017B018B01040F151FEB015E018A
:100DF000AE18BF08C017D10759F06991D601ED911F
:100E0000FC910190F081E02DC6010995892B79F7BD
:100E1000C501DF91CF911F910F91FF90EF90DF906F
:100E2000CF90BF90AF9008958091140281110DC0B2
:100E300082E08093100284E08093110210921302EA
:100E40001092120281E08093140280E192E00895F2
:100E50000F931F93CF93DF931F92CDB7DEB782E03E
:100E6000898342E450E069E074E080E80E94EE0586
:100E70000E941407DC0112960D911C9101151105B9
:100E800089F0D801ED91FC910280F381E02DBE0143
:100E90006F5F7F4FC801099597FD04C0F801008579
:100EA0001185ECCF89810F90DF91CF911F910F9128
:100EB0000895DC01FB0112962C9112978481958193
:100EC0002817190641F491818081813A31F49D7F80
:100ED00081E0913009F080E008958132E1F79B30A4
:100EE00029F482811F968C9381E008959A3099F7B6
:100EF000828150968C93F8CFAF92BF92CF92DF92BF
:100F0000EF92FF920F931F93CF93DF931F92CDB772
:100F1000DEB77C0169836A01590141E050E0BE01FE
:100F20006F5F7F4FFC0183810E942A068C0197FD31
:100F30000BC0F7018381A501B60180640E942A06D7
:100F4000080F191F97FD8C01C8010F90DF91CF91F9
:100F50001F910F91FF90EF90DF90CF90BF90AF90D7
:100F60000895DC01FB0188E4808389E4818384E4C3
:100F700082831D969C911D979F709F5B93831D9606
:100F80008D919C9124E0969587952A95E1F78F7035
:100F90008F5B848385E00895EF92FF920F931F93F8
:100FA000CF93DF93FB012081213871F52381223219
:100FB00059F5DC0112964C912481358142171306B4
:100FC00019F5EC010B851C85F12CE12C011511059F
:100FD00089F0F801448155816281738180E80E9423
:100FE000EE058F3F980749F0E80EF91ED8010D91E4
:100FF0001C91ECCF81E08F87C701DF91CF911F91CA
:101000000F91FF90EF90089590E080E0F6CFCF939E
:10101000DF93CDB7DEB769970FB6F894DEBF0FBE8A
:10102000CDBFFC01DB018C918F5F8C939E012D5F06
:101030003F4F8DE0D9011D928A95E9F729E0298378
:1010400084E08A8391E09D8383E08E832A8721E276
:101050002B879C879D879F8722E2288B27E02B8BFD
:1010600025E02C8B8E8B20E430E0388F2F8B998FEE
:1010700082818B8395858685998B8A8B8381806815
:101080008D8B49E150E0BE016F5F7F4F80E00E9491
:10109000EE0569960FB6F894DEBF0FBECDBFDF91A7
:1010A000CF910895CF93DF9380910802811167C09B
:1010B00081E08093FB018093FC0121E032E03093DA
:1010C000FE012093FD01109200021092FF0121E227
:1010D00031E03093F8012093F7011092030210924F
:1010E000020210920502109204028093060280937D
:1010F000070281EC809301020E941407FC018181A8
:101100009091FB01482F490F5527551F4830510535
:101110009CF5A281B381109709F527EF31E0338365
:10112000228320812093F9018093FA018091FC01B0
:10113000820F80832091FD01A22FB091FE018A2FA2
:10114000821B8917C8F481813D91C82FD0E0C0501F
:10115000DF4F38838F5F8183F2CFD90118962D91AD
:101160003C91199721153105C1F727EF31E0199608
:101170003C932E931897D5CF81E08093080287EF98
:1011800091E0DF91CF910895CF93DF93EC010E941E
:101190005208AE014C5F5F4F28E030E062E0DF9123
:1011A000CF910C947C07CF92DF92FF920F931F9305
:1011B000CF93DF938C01F42EE62FF0E0EE0FFF1FAC
:1011C000E75FFC4FC590D490D801ED91FC91048469
:1011D000F585E02D6C2DC8010995EC01892B11F4E2
:1011E000F11070C0D0FE0CC0D801ED91FC910484C8
:1011F000F585E02D4F2D60EEC8010995C82BD92B40
:10120000D1FE0CC0D801ED91FC910484F585E02D50
:101210004F2D61EEC8010995C82BD92BD2FE0CC009
:10122000D801ED91FC910484F585E02D4F2D62EEFF
:10123000C8010995C82BD92BD3FE0CC0D801ED915C
:10124000FC910484F585E02D4F2D63EEC8010995CE
:10125000C82BD92BD4FE0CC0D801ED91FC9104848D
:10126000F585E02D4F2D64EEC8010995C82BD92BCB
:10127000D5FE0CC0D801ED91FC910484F585E02DDC
:101280004F2D65EEC8010995C82BD92BD6FE0CC091
:10129000D801ED91FC910484F585E02D4F2D66EE8B
:1012A000C8010995C82BD92BD7FE0CC0D801ED91E8
:1012B000FC910484F585E02D4F2D67EEC80109955A
:1012C000C82BD92BCE01DF91CF911F910F91FF90A9
:1012D000DF90CF900895FF920F931F93CF93DF93EA
:1012E000EC01F62E41E00E94D3088C01892BA9F075
:1012F000E881F9810284F385E02DCE01099540E073
:101300006F2DCE010E94D308892B39F0E881F98135
:101310000284F385E02DCE010995C801DF91CF91BC
:101320001F910F91FF9008950F931F93CF93DF9319
:10133000EB018A010E9452089801AE0164E0DF913E
:10134000CF911F910F910C947C07CF93DF93EC0109
:10135000E2E0F3E090E080E0219131910196232BCF
:1013600041F5880F991FFC01E050FD4FD183C083E8
:1013700048E050E062E073E080E093E00E9494096E
:10138000E0E0F3E088E093E022813381C217D307E5
:1013900011F41382128232968E179F07A9F748E044
:1013A00050E062E073E080E093E0DF91CF910C9435
:1013B00094098430910581F6DBCFCF93DF93EC0164
:1013C0008D85882329F081508D87DF91CF910895F5
:1013D0009C818E819817C8F788896827E881F981F0
:1013E0000084F185E02D42E0CE0109958C818F5F6C
:1013F0008C83EBCFDC01ED91FC910084F185E02D35
:1014000040E009940F931F93CF938C01FC016483F8
:10141000C085C60F6C2F6F700E94FA096C2F629501
:101420006F706061C801CF911F910F910C94FA0900
:10143000FC012781269526952695621738F4658349
:101440002385620F6770606B0C94FA0908951F93EF
:10145000CF93DF93EC01142F8E81681718F4CE011F
:101460000E94020A612FCE01DF91CF911F910C944F
:10147000180ACF92DF92EF92FF920F931F93CF93B0
:10148000DF93EC01F62EC42ED22E1D868F81869519
:1014900086958695081710F00FEF080F1D2D011780
:1014A00080F0412F6F2DCE010E94270AEF2CCE1421
:1014B00030F06889CE010E94DD09E394F8CF1F5F08
:1014C000EECF4D2D6F2DCE01DF91CF911F910F915A
:1014D000FF90EF90DF90CF900C94270A0F93DC01E0
:1014E00015962C9115971E96ED91FC911F9700E093
:1014F000309779F03396E491F0E0379683E0F595F4
:10150000E7958A95E1F751960C9151970E9F002D22
:101510001124EFEFE20F0E0F16964C9116974150E3
:1015200014966C911497CD010E94390A0F91089579
:101530002F923F924F925F926F927F928F929F92E3
:10154000AF92BF92CF92DF92EF92FF920F931F93D1
:10155000CF93DF9300D000D000D0CDB7DEB7FC0131
:10156000268537852115310509F44AC19E838D836F
:10157000F9013296649031964491E42EF12CF7E013
:10158000EF0EF11C53E0F594E7945A95E1F7E982E8
:10159000F901349654913196E491651748F08E2FF5
:1015A00090E0FC01E50FF11D6E171F060CF469C0F9
:1015B0006D3031F5ED81FE81868181111BC081E0A6
:1015C00090E026960FB6F894DEBF0FBECDBFDF9138
:1015D000CF911F910F91FF90EF90DF90CF90BF9030
:1015E000AF909F908F907F906F905F904F903F90C3
:1015F0002F90089560E08D819E810E94020ADFCFC6
:101600006A3009F0FDC0ED81FE818681882321F0DA
:1016100060E0CF010E94020AED81FE8181898E9DEA
:10162000E02C112465816E0D8485882349F0978113
:101630009695969596958E2D891B860F18162CF0EB
:101640008D819E810E94180ABACFED81FE8123858B
:10165000820F877083879E199583CF010E946E0A3F
:10166000ED81FE818485813009F0A9CF6385660F05
:10167000660F660F6F7362876064CF010E94FA097C
:101680009ECF89010A5F1F4F651BED81FE81718529
:101690005189759F502D11245C83F90154912F5F5E
:1016A0003F4FF9012491352F2230310508F06AC0EF
:1016B0006E9CC0016F9C900D1124689FF001699F82
:1016C000F00D11240E0F1F1F512CED81FE81F481AE
:1016D000FA83ED81FE812580F585FB83862C912C94
:1016E000AA24A394B12C312C8981381608F086C025
:1016F000412CED81FE818189481608F078C08B81EC
:101700008587311002C0442041F0ED81FE81458182
:101710004F5F6A81CF010E94270AD12CC12CC614C9
:1017200008F058C0F801EC0DFD1D7490552061F0D3
:10173000EA14FB0449F4E72DF0E0052C02C0F5950E
:10174000E7950A94E2F77E2EED81FE818189823051
:1017500081F4442009F43AC072948FE07822E72D96
:10176000F0E0E750FD4F7490672D8D819E810E94BF
:10177000DD09672D8D819E810E94DD098FEFC81ADA
:10178000D80ACDCF477028E0522E541A411101C01B
:10179000512CF801612C30E020E0661631F04491C4
:1017A000240F311D63943196F8CF600E712E711C99
:1017B000F3016490E29EF001E39EF00DF29EF00DC5
:1017C00011248E0F9F1F080F191F7FCFF72DFF7059
:1017D0007F2EC5CFD12CEC81DE1639F060E08D81F3
:1017E0009E810E94DD09D394F6CF439482CF339437
:1017F000080D191DFFEFAF1ABF0A76CF622D20CF5B
:1018000090E080E0DECE0F93CF93DF93EC011B8658
:101810001A8660E40E94FA090F81069506950695DE
:1018200001504E81415020E060E0CE010E94390A13
:10183000DF91CF910F9108950F931F93CF93DF9373
:101840002091F6012F5F322F37703093F60120FF81
:101850002BC020E831FD2064347009F02062205F45
:10186000FC01EC01239600E011E06485662329F079
:1018700070E0C8010E947D1F6F5F6187322F369F25
:10188000030E30E0311D1124311110C01682662381
:1018900011F0615061873196EC17FD0731F7DF9148
:1018A000CF911F910F91089520E0D4CF315036830E
:1018B000EECF4F925F926F927F928F92AF92BF92D4
:1018C000CF92DF92EF920F931F93CF93DF933C0160
:1018D000EB010E942605F30127853089621B730BFB
:1018E0006A307105B0F3F894E881F98175B17062DE
:1018F00065B16F7D65B9C9848E812C2D281B822F1F
:101900002E83BF844A805B801C850D85DE841F5F2B
:101910000F5FD3949F813885AA84EB844081D201E4
:1019200020E0C32F522F322F308144278894311169
:10193000380F08F43FEF8195889410FD430F4795C9
:10194000889411FD430F4795889412FD430F4795E6
:10195000889413FD430F4795889414FD430F4795D2
:10196000889415FD430F4795889416FD430F4795BE
:10197000889417FD430F47958894232F1111242F26
:101980008C0D422F002C75B900C047FF65B931811D
:101990002227889400C000C0002C65B93111390F8E
:1019A00000C0002C75B900C046FF65B908F43FEFD0
:1019B0009195889400C000C0002C65B900FD230FEC
:1019C00000C0002C75B900C045FF65B92795889403
:1019D00001FD230F00C000C0002C65B92795889435
:1019E00000C0002C75B900C044FF65B902FD230F8B
:1019F0002795889400C000C0002C65B903FD230F13
:101A000000C0002C75B900C043FF65B927958894C4
:101A100004FD230F00C000C0002C65B927958894F1
:101A200000C0002C75B900C042FF65B905FD230F49
:101A30002795889400C000C0002C65B906FD230FCF
:101A400000C0002C75B900C041FF65B92795889486
:101A500007FD230F00C000C0002C65B927958894AE
:101A600000C0002C75B900C040FF65B9432F0111BB
:101A7000422F9A0D00C000C0002C65B900C000C004
:101A8000002C75B900C047FF65B9328122278894C0
:101A900000C000C0002C65B931113C0F00C0002C03
:101AA00075B900C046FF65B908F43FEFEB0DF11DB5
:101AB00000C000C0002C65B9D0FC230F00C0002C72
:101AC00075B900C045FF65B927958894D1FC230FEF
:101AD00000C000C0002C65B92795889400C0002C78
:101AE00075B900C044FF65B9D2FC230F27958894CF
:101AF00000C000C0002C65B9D3FC230F00C0002C2F
:101B000075B900C043FF65B927958894D4FC230FAD
:101B100000C000C0002C65B92795889400C0002C37
:101B200075B900C042FF65B9D5FC230F279588948D
:101B300000C000C0002C65B9D6FC230F00C0002CEB
:101B400075B900C041FF65B927958894D7FC230F6C
:101B500000C000C0002C65B92795889400C0002CF7
:101B600075B900C040FF65B9432FD110422FC19510
:101B700000C000C0002C65B9CE0D00C000C075B912
:101B800000C047FF65B930812227889400C000C09B
:101B9000002C65B93111380F00C0002C75B900C098
:101BA00046FF65B908F43FEF8195889400C000C0F6
:101BB000002C65B910FD230F00C0002C75B900C0C2
:101BC00045FF65B92795889411FD230F00C000C01B
:101BD000002C65B92795889400C0002C75B900C009
:101BE00044FF65B912FD230F2795889400C000C0FB
:101BF000002C65B913FD230F00C0002C75B900C07F
:101C000043FF65B92795889414FD230F00C000C0D9
:101C1000002C65B92795889400C0002C75B900C0C8
:101C200042FF65B915FD230F2795889400C000C0B9
:101C3000002C65B916FD230F00C0002C75B900C03B
:101C400041FF65B92795889417FD230F00C000C098
:101C5000002C65B92795889400C0002C75B900C088
:101C600040FF65B9432F1111422F8C0D00C000C0F9
:101C7000002C65B9119709F086CE20EE31E0D20133
:101C80000E94B91FDC01CB01F4E0B695A7959795AA
:101C90008795FA95D1F730E020E0B901EAE94E9E48
:101CA000040C611D5E9E600D711D1124650D711D7A
:101CB000860F971FA11DB11D893E43E09407A10522
:101CC000B10508F434C0885E9340A109B10942E02F
:101CD000B695A795979587954A95D1F747E0849F44
:101CE000080E211D949F200D311D1124290F311D37
:101CF0006091F50170E0860F971F820F931F40914E
:101D00006E0250916F026091700270917102292FE2
:101D10003327420F531F611D711D40936E02509374
:101D20006F0260937002709371028093F501789452
:101D30000E942605F301708B6787DF91CF911F9179
:101D40000F91EF90DF90CF90BF90AF908F907F90EA
:101D50006F905F904F900895259A08950F931F9369
:101D6000CF93DF93CDB7DEB762970FB6F894DEBF9F
:101D70000FBECDBF8C01F901DC011C968C917A83DA
:101D800069835C834B835E834D8390819D879181C2
:101D90009E8792819F878130F1F4CE0101960E9447
:101DA0001C0C83E0888B1A8A198AD801ED91FC916A
:101DB0000484F585E02DBE016F5F7F4FC801099552
:101DC00062960FB6F894DEBF0FBECDBFDF91CF9104
:101DD0001F910F9108951C861B861A8619861886F6
:101DE0001F82DFCF0F931F93CF93DF93CDB7DEB763
:101DF00062970FB6F894DEBF0FBECDBF8C01F9011C
:101E0000DC011C968C917A8369835C834B835E83AF
:101E10004D8390819D8791819E8792819F8781309C
:101E2000E9F4CE0101960E941C0C188A1A8A198ABC
:101E3000D801ED91FC910484F585E02DBE016F5F22
:101E40007F4FC801099562960FB6F894DEBF0FBEAA
:101E5000CDBFDF91CF911F910F9108951C861B86F6
:101E60001A86198618861F82E0CF90E080E00895D8
:101E7000FC01858596850895CF93DF9300D000D02F
:101E800000D0CDB7DEB7AB011C821D821E82DC0103
:101E9000ED91FC910190F081E02D19821A821B8254
:101EA0009E012F5F3F4FBE016C5F7F4F09952696C5
:101EB0000FB6F894DEBF0FBECDBFDF91CF9108956E
:101EC000FC019C01285F3F4F90E080E0448141117C
:101ED000019614823196E217F307C1F70895CF9364
:101EE000DF9386EE92E00E94600FEC01892B21F0D7
:101EF00086EE92E00E94C408CE01DF91CF91089552
:101F0000CF93DF93DC0190E2960F9830B0F41496F3
:101F10008C91149721E030E001C0220F9A95EAF7E6
:101F2000442341F0282B14962C9381E090E0DF911C
:101F3000CF91089520952823F6CFFD0136964423AE
:101F4000D1F0CD010C96EF012991621771F3C817FA
:101F5000D907D1F790E080E02191211105C0A80FA9
:101F6000B91F16966C93E1CF019686309105A1F7C3
:101F700090E080E0DCCF90E080E02191621305C02A
:101F8000A80FB91F16961C92D0CF019686309105E6
:101F9000A1F7EECFCF93DF9341E0682F86EE92E07A
:101FA0000E94800FEC01892B21F086EE92E00E94C6
:101FB000C408CE01DF91CF9108951F93CF93DF9393
:101FC000182F0E94CA0FEC01892B61F040E0612FAD
:101FD00086EE92E00E94800F892B21F086EE92E03F
:101FE0000E94C408CE01DF91CF911F910895CF9236
:101FF000DF92EF92FF92CF93DF930E947D056B01FA
:102000007C018091690290916A02A7019601281BC8
:10201000390B41095109DA01C9010E97A105B10532
:10202000E0F187E00E94B704EC0181E00E94B70470
:102030002091EA01C817D90709F04CC0211111C03D
:102040008091690290916A02A7019601281B390BC1
:1020500041095109DA01C9018E379105A105B10580
:10206000A8F0809145029091460201969093460215
:102070008093450280915D0290915E020097A1F4E9
:1020800082E70E94DD0F81E08093EA0181E0809386
:102090004B02D0926A02C0926902DF91CF91FF9009
:1020A000EF90DF90CF9008958130910511F48FE487
:1020B000E8CF029741F780EE0E94CA0F8CE10E94A0
:1020C000CA0F61E170E080E090E00E944B050E9441
:1020D0006F0FD9CF222389F08091690290916A0213
:1020E000A7019601281B390B41095109DA01C901E1
:1020F0008E379105A105B10548F280914502909176
:1021000046020197909346028093450280915D02BA
:1021100090915E02009731F481E70E94DD0F1092EA
:10212000EA01B4CF8130910511F480E5F6CF029732
:10213000B1F780EE0E94CA0F8DE10E94CA0F61E1E3
:1021400070E080E090E00E944B050E946F0FE7CFA7
:10215000FC016093BC008091BC0087FFFCCF909194
:10216000B900987F90830895DF92EF92FF920F93CA
:102170001F93CF93DF93EC01D62EF42E8C89882306
:1021800051F0411108C084E98093BC008091BC00EB
:1021900084FDFCCF1C8A8E010E5E1F4F8C8981113D
:1021A0001AC0EB8864EAC8010E94A8108A898830A6
:1021B00011F0803139F4EE0CE092BB0064E8C80104
:1021C0000E94A81080E0F11080E48093BB0064E8D6
:1021D000C8010E94A810D092BB0064E8C8010E9408
:1021E000A81082E0F8120BC08C898F5F8C8BDF9176
:1021F000CF911F910F91FF90EF90DF90089584E9A8
:102200008093BC008091BC0084FDFCCF1C8AEFCF82
:10221000089590E080E008958F929F92AF92BF92D0
:102220000F931F93CF93DF93CDB7DEB7A1970FB670
:10223000F894DEBF0FBECDBF19A2423008F44AE0C9
:102240008E010F5D1F4F842E912CB12CA12CA50166
:1022500094010E94911FE62FB901CA01EA3044F5AA
:10226000E05DD801EE938D01232B242B252B79F7EC
:1022700090E080E0109769F0FD0101900020E9F7FF
:102280003197AF014A1B5B0BBD018AE093E00E94CE
:10229000E706A1960FB6F894DEBF0FBECDBFDF9163
:1022A000CF911F910F91BF90AF909F908F90089505
:1022B000E95CD7CFFC0101900020E9F73197AF012D
:1022C000481B590BBC018AE093E00C94E706CF92BF
:1022D000DF92EF92FF92CF93DF936C01990FEE089C
:1022E000FF08F7FE19C06DE28AE093E00E94980AA9
:1022F000EC0166277727CB016C197D098E099F09B0
:102300004AE00E940C118C0F9D1FDF91CF91FF902E
:10231000EF90DF90CF9008954AE0C701B601DF91BA
:10232000CF91FF90EF90DF90CF900C940C11CF9352
:10233000DF93EC0142E060E08AE093E00E94270A2C
:1023400081E894E00E940503CE0168E070E00E94FD
:102350007D1F97FD0896DF91CF910C946711AF9286
:10236000BF92CF92DF92EF92FF920F931F93CF9382
:10237000DF934F3F540709F45CC07A016B01EC0115
:1023800040E060E08AE093E00E94270A8BEA92E056
:102390000E940503109213038E01D7FF02C0015C57
:1023A0001F4F36E0159507953A95E1F7B12CA12C12
:1023B000A016B10644F483E891E00E945A118FEF11
:1023C000A81AB80AF5CFD7FD2796CE0123E0959538
:1023D00087952A95E1F768E070E00E947D1F0196DD
:1023E0000E9467110F5F1F4F003111052CF483E825
:1023F00091E00E945A11F6CFEF28D9F485EC90E0D5
:102400000E94050341E062E38AE093E00E94270A0C
:10241000C6010E94671185E891E0DF91CF911F917D
:102420000F91FF90EF90DF90CF90BF90AF900C9402
:102430005A11DF91CF911F910F91FF90EF90DF9094
:10244000CF90BF90AF9008953F924F925F926F925E
:102450007F928F929F92AF92BF92CF92DF92EF9234
:10246000FF920F931F93CF93DF9300D01F92CDB7AE
:10247000DEB78C010196F9F48091410281111BC0F5
:1024800028985D988AE093E00E94030C0F900F90CB
:102490000F90DF91CF911F910F91FF90EF90DF9000
:1024A000CF90BF90AF909F908F907F906F905F90F4
:1024B0004F903F900895289A5D9A0F3F100711F3AF
:1024C000809141028111BCC08AE5089F802D1124B2
:1024D000865F89838FEF8A8380E48B83CE010196A8
:1024E0000E941703D090CB028091CE029091CF0230
:1024F000A091D002B091D102892B8A2B8B2BD9F0DD
:102500000E9426058090F1019090F201A090F301C5
:10251000B090F401681979098A099B098090CE026C
:102520009090CF02A090D002B090D10268157905AA
:102530008A059B05C8F20E9426056093F1017093FD
:10254000F2018093F3019093F401E091D602F091AF
:10255000D702309759F04091D2025091D302609146
:10256000D4027091D5028D2D0995D82EE0902602C7
:10257000F09027024D2C512C712C612CE114F104A8
:1025800009F462C0D7011C96CC901C978091CC02B4
:102590009091CD028436910510F41C961C92D701BF
:1025A000ED91FC918280938019821A821B82DD203A
:1025B00089F1F7013696B12CA12C2191222319F132
:1025C0003280332001F130E050E040E02F5F3F4F98
:1025D0004F4F5F4FC301B2010E946D1F9B01AC01C1
:1025E000832D90E0B0E0A0E0BC01CD016F5F7F4F94
:1025F0008F4F9F4F0E946D1FA1E0B0E0AC0FBD1F39
:10260000AA0DBB1D8C93BFEFAB1ABB0A23E0A21629
:10261000B10499F6D7011D964D915C911E971296C3
:102620006D917C919E012F5F3F4FC701F401099589
:10263000D7011C96CC921C971496ED90FC909ECFDF
:1026400019821A821B824ACF8091EF019091F0018A
:102650007C01BFEFEB1AFB0AF092F001E092EF0170
:1026600049978CF10E947D059B01AC0188EE93E0B7
:10267000E89EB001E99E700DF89E700D1124072EA2
:10268000000C880B990BC090EB01D090EC01E0900E
:10269000ED01F090EE012C193D094E095F090E94F1
:1026A000911F3093CD022093CC021092F001109232
:1026B000EF010E947D056093EB017093EC01809324
:1026C000ED019093EE0185EC90E00E94050341E05E
:1026D00060E08AE093E00E94270A8AE093E00E948B
:1026E0006E0A8AE891E00115110551F082E991E046
:1026F0000130110529F00230110521F487E991E03C
:102700000E945A1142E06AE08AE093E00E94270AA0
:102710008AE093E00E946E0A81EA91E001151105BA
:1027200051F08EEA91E00130110529F002301105D7
:1027300021F487EB91E00E945A1143E06AE08AE0BD
:1027400093E00E94270A8AE093E00E946E0A83ECDD
:1027500091E00115110551F088EC91E0013011056F
:1027600029F00230110521F48EEC91E00E945A11FB
:1027700043E06AE48AE093E00E94270A86ED91E054
:102780000115110551F08DED91E00130110529F091
:102790000230110521F482EE91E00E945A1181E885
:1027A00094E00E94050343E060E08AE093E00E9429
:1027B000270A89E090E00E94671143E060E48AE024
:1027C00093E00E94270A89E090E00E9467115ECEA4
:1027D0000E94EE1F1F920F920FB60F9211242F939B
:1027E0003F938F939F93AF93BF9380916E0290918D
:1027F0006F02A0917002B091710230916D0223E0DE
:10280000230F2D3758F50196A11DB11D20936D02A0
:1028100080936E0290936F02A0937002B093710246
:102820008091720290917302A0917402B09175022E
:102830000196A11DB11D8093720290937302A09323
:102840007402B0937502BF91AF919F918F913F91A8
:102850002F910F900FBE0F901F90189526E8230F11
:102860000296A11DB11DD2CF1F920F920FB60F92EB
:1028700011242F933F934F935F936F937F938F9385
:102880009F93AF93BF93EF93FF93E0911301F09168
:1028900014010995FF91EF91BF91AF919F918F9195
:1028A0007F916F915F914F913F912F910F900FBE4C
:1028B0000F901F9018951F920F920FB60F92112430
:1028C0002F933F934F935F936F937F938F939F9338
:1028D000AF93BF93EF93FF93E0911101F091120139
:1028E0000995FF91EF91BF91AF919F918F917F914A
:1028F0006F915F914F913F912F910F900FBE0F906D
:102900001F9018951F920F920FB60F9211242F93BC
:102910003F934F935F936F937F938F939F93AF9367
:10292000BF93EF93FF93E0910F01F0911001099590
:10293000FF91EF91BF91AF919F918F917F916F9197
:102940005F914F913F912F910F900FBE0F901F906D
:1029500018951F920F920FB60F9211242F933F9349
:102960004F935F936F937F938F939F93AF93BF9397
:10297000EF93FF93E0910D01F0910E010995FF9106
:10298000EF91BF91AF919F918F917F916F915F91E7
:102990004F913F912F910F900FBE0F901F90189560
:1029A0001F920F920FB60F9211242F933F934F93C4
:1029B0005F936F937F938F939F93AF93BF93EF93A7
:1029C000FF93E0910B01F0910C010995FF91EF91BC
:1029D000BF91AF919F918F917F916F915F914F9137
:1029E0003F912F910F900FBE0F901F9018951F923F
:1029F0000F920FB60F9211248F939F938091E10055
:102A00009091E100937F9093E10083FF0FC01092BB
:102A1000E90091E09093EB001092EC0092E3909328
:102A2000ED001092770298E09093F00082FF22C0B0
:102A300093E09093E9009091F200992319F09AE3C2
:102A40009093E80090912102992341F09091210206
:102A5000915090932102911101C05D98909176025E
:102A6000992341F0909176029150909376029111C2
:102A700001C0289884FF18C08091E2008E7E81609A
:102A80008093E2008091E1008F7E8093E10080914D
:102A900022028E7E8061809322029F918F910F90FF
:102AA0000FBE0F901F90189580FFF7CF8091E20026
:102AB0008E7E80618093E2008091E1008E7E809323
:102AC000E100809122028E7E8160E5CF1F920F92FD
:102AD0000FB60F921124CF92DF92EF92FF920F93D5
:102AE0001F932F933F934F935F936F937F938F9396
:102AF0009F93AF93BF93EF93FF93CF93DF93CDB7A4
:102B0000DEB76C97DEBFCDBF1092E9008091E80080
:102B100083FF25C068E0CE0145960E94DA0682EF69
:102B20008093E8008D8987FF39C09091E80090FF7D
:102B3000FCCF982F907609F034C19E894F89588D2B
:102B40002F89F88C911131C0803861F58091230272
:102B50008093F1001092F1008EEF8093E8006C9664
:102B60000FB6F894DEBF0FBECDBFDF91CF91FF91BE
:102B7000EF91BF91AF919F918F917F916F915F91F5
:102B80004F913F912F911F910F91FF90EF90DF9008
:102B9000CF900F900FBE0F901F9018959EEF9093BF
:102BA000E800C7CF1092F100D5CF913059F48111D0
:102BB000D3CF4130510581F6809123028D7F8093E0
:102BC0002302CACF933049F48111C6CF4130510559
:102BD00019F6809123028260F2CF953041F4809102
:102BE000E80080FFFCCF20682093E300B5CF96304B
:102BF00009F0A9C00B8D1C8D22E01092E900109203
:102C00001F0210921E02F2122EC010921D0210928C
:102C10001C020E9428071F8299E09983FA8291E0A2
:102C20009E8390EA98879AEF998720911E023091AF
:102C30001F02275F3F4F3C832B838D831092E90057
:102C400010921F0210921E0210931D0200931C028C
:102C500049E050E0BE016F5F7F4F80E00E94EE05CB
:102C60000E94280779CF10931D0200931C020E9436
:102C70001407DC0112960D911C910115110509F440
:102C800051C1D801ED91FC910480F581E02DBE0188
:102C90006B5E7F4FC8010995009709F03EC1F801AE
:102CA00000851185EACFF3E0FF120EC08F898823DB
:102CB00009F440C0823061F440E86DE08DE694E0B4
:102CC0000E94BB05811148CF81E28093EB0047CF82
:102CD000813029F440E86BE081E694E0F1CF833065
:102CE00099F70E941407DC011296ED90FC908E017A
:102CF0000F5F1F4F6801E114F10479F0D701ED91E6
:102D0000FC910680F781E02DB801C7010995080FF5
:102D1000111DF701E084F184EECFD8011C92F60179
:102D200001900020E9F73197BF016C197D0940E05F
:102D3000C601C6CF6BE474E0FB01449150E080E82B
:102D40000E94EE0509CF973009F4BECF983021F4E8
:102D500081E08093F10000CF993009F0FDCE8370BF
:102D600009F0B2CFE1E0F1E081E031E096E32191BA
:102D7000222371F08093E9003093EB00DF0111977B
:102D80002C912093EC009093ED008F5F873079F7C2
:102D90008EE78093EA001092EA008F898093770291
:102DA000DBCE8B8D9C8D1092E90010921F02109249
:102DB0001E0290931D0280931C02898D811192C086
:102DC0008E899D89913A49F4813209F07DCF47E09F
:102DD00050E065E171E080E0B3CF913209F074CF4B
:102DE000833269F48F89988DB0E0A0E08093070169
:102DF00090930801A0930901B0930A01ADCE8032EF
:102E000069F48091E80082FFFCCF67E085E191E002
:102E10000E94DA068BEF8093E8009ECE823209F0A2
:102E20009BCE8F8980931C01EEEFFFE785919491F3
:102E30008B3F9C4D51F1E0E0F8E0809115019091BD
:102E40001601A0911701B0911801803B9440A10593
:102E5000B105F1F480911C0180FD1AC0EE3F8AE0BB
:102E6000F80789F587E797E7918380838091600071
:102E70008093200288E19BE00FB6F894A895809398
:102E800060000FBE9093600067CEEEEFFAE0D5CF02
:102E9000808191818737974709F05ECEA895809110
:102EA00060008861809360008091200280936000C0
:102EB000EE3F2AE0F20789F08091FE0A9091FF0A26
:102EC0009183808349CE808191818737980751F221
:102ED0009093FF0A8093FE0AC5CF1092FF0A1092CA
:102EE000FE0A3ACE0E941407DC0112960D911C9145
:102EF0000115110509F4E8CED801ED91FC9101907E
:102F0000F081E02DBE016B5E7F4FC80109958111F4
:102F100023CEF80100851185EBCF181619060CF4A5
:102F20001BCED2CEF1E0FF12BECE6FE474E004CF30
:102F300010927E0210927D0288EE93E0A0E0B0E055
:102F400080937F0290938002A0938102B0938202CB
:102F50008FE491E090937C0280937B028FEF9FEF50
:102F600090938802809387028093CB021092CD02C7
:102F70001092CC021092D7021092D6028FEF9FEFE0
:102F8000DC018093D2029093D302A093D402B09339
:102F9000D5021092E9021092E80281E691E0909346
:102FA000E7028093E6028091DE02811113C0109245
:102FB000D9021092D80280E695E09093DB028093CC
:102FC000DA028BE390E09093DD028093DC0281E0F3
:102FD0008093DE020E945208FC01A385B4851097FD
:102FE00009F059C088ED92E094878387858596859E
:102FF0002091DC023091DD02820F931F9687858736
:1030000083E791E090930103809300038091F8029D
:10301000811113C01092F3021092F2028BE995E035
:103020009093F5028093F40289E190E09093F70287
:103030008093F60281E08093F8020E945208FC011E
:10304000A385B485109791F582EF92E094878387EA
:10305000858596852091F6023091F702820F931FA5
:103060009687858710920D0310920C031092160319
:1030700010921703109219031092180310921A035A
:1030800081E080931B0389E791E090930B03809389
:103090000A030895DC018D919C9111970097D1F757
:1030A00088ED92E08D939C93A1CFDC018D919C9152
:1030B00011970097D1F782EF92E08D939C93C8CF40
:1030C000CF93DF9300D01F92CDB7DEB7789484B54D
:1030D000826084BD84B5816084BD85B5826085BD14
:1030E00085B5816085BD80916E00816080936E00A2
:1030F0001092810080918100826080938100809194
:103100008100816080938100809180008160809344
:103110008000809191008260809391008091910065
:1031200081608093910080919000816080939000F5
:103130008091C10084608093C1008091C100826051
:103140008093C1008091C10081608093C100809113
:10315000C30081608093C3008091C000826080932F
:10316000C0008091C20081608093C20080917A008B
:10317000846080937A0080917A00826080937A00E4
:1031800080917A00816080937A0080917A008068D3
:1031900080937A00109277021092230210922202FA
:1031A0008091D70081608093D70080EA8093D80017
:1031B00089B5806189BD89B5826089BD09B400FE89
:1031C000FDCF61E070E080E090E00E944B058091CF
:1031D000D8008F7C80618093D8008091E000807F50
:1031E0008093E0008091E1008E7E8093E1008DE08D
:1031F0008093E200559A209A5D98289886EE92E096
:103200000E94600F86EE92E00E94C40810921E0396
:103210008CE380931D031092B9008CE08093B8007A
:1032200010920E0310920F03EBE7F4E08591949156
:10323000E82EEDE7F4E0F490EEE7F4E0E491E093BB
:103240001003EFE7F4E0E491E0931103E0E8F4E029
:10325000E491E09312038C01802F8E198F1548F4AE
:10326000F80164918AE093E00E94FA090F5F1F4F12
:10327000F3CF8AE093E00E94030C60EA8AE093E0D7
:103280000E94FA0960EC8AE093E00E94FA0966EA7B
:103290008AE093E00E94FA0981E00E94E80387E057
:1032A0000E94E80387EF9FE0909312018093110141
:1032B000809169008F7380936900EB9A86E00E9489
:1032C000E80385E00E94E80384E00E94E80380911F
:1032D0003902811145C010922B0210922A028FEF01
:1032E00080932E0280932F028093300280933102CC
:1032F000809332028093330281E0809334021092F3
:1033000036021092350210922D0210922C028091FA
:10331000260290912702892B31F488E292E0909363
:10332000270280932602E0912402F0912502309733
:1033300021F088E292E09583848388E292E0909382
:1033400025028093240210923802109237028DE3F6
:1033500091E0909329028093280281E080933902C2
:10336000259A88E792E090932B0280932A0281E0CD
:1033700090E090933602809335028091CE02909136
:10338000CF02A091D002B091D102843CF9E09F0716
:10339000A105B10520F484EC99E0A0E0B0E08093B1
:1033A000CE029093CF02A093D002B093D1021982A3
:1033B0001A821B82CE0101960E9417030E94C90344
:1033C0007C0190934D0280934C02BC01990F880BB5
:1033D000990B0E944B1E20E030E048EC5DE30E9418
:1033E000DC1E20E030E040E05FE30E94DC1E4B0189
:1033F0005C0120E030E0A9010E94D71E20E030E00F
:1034000040E05FE387FD88C1C501B4010E94351D1E
:103410000E94131E162F110F10935C028AE093E096
:103420000E94030C90E080E00E942412612F70E063
:1034300050E040E0C7010E94AF1180915D02909181
:103440005E02019621F090E080E00E94971135E045
:10345000432E512C40E0242E40E0342E66246A9402
:10346000762C0E947D057093600260935F0286E077
:103470000E94B704892B09F04BC00E947D05209162
:10348000630230916402621B730B810991096D32F2
:10349000714081059105E0F10E947D057093640201
:1034A0006093630280915D0290915E02823091058B
:1034B0000CF037C1019690935E0280935D0280917B
:1034C0005D0290915E02009709F030C1E0904502E4
:1034D000F090460200915C0210E0C0905402D0903F
:1034E00055028AE093E00E94030C90E080E00E9485
:1034F000241250E040E0B801C6010E94AF11809153
:103500005D0290915E02019619F0C7010E94971129
:1035100085E00E94B704892B29F50E947D05209142
:10352000650230916602621B730B810991096D324D
:10353000714081059105B0F00E947D05709366028F
:103540006093650280915D0290915E02009709F0A0
:10355000F0C083E70E94DD0F85E090E090934A027F
:103560008093490284E00E94B704892B29F50E94C8
:103570007D052091670230916802621B730B8109FF
:1035800091096D32714081059105B0F00E947D0571
:10359000709368026093670280915D0290915E0271
:1035A000009709F0E0C08FE70E94DD0F85E090E012
:1035B000909348028093470200915D0210915E0251
:1035C0008091500290915102909353028093520245
:1035D00080914E0290914F0290935102809350023D
:1035E00080914C0290914D0290934F0280934E0235
:1035F0000E94C90390934D0280934C02880F991F3B
:1036000020914E0230914F02820F931F2091500261
:1036100030915102820F931F209152023091530238
:10362000820F931FB2010E947D1F7B01709357028E
:1036300060935602603471050CF0CBC0EE0CFF1C99
:10364000EE0CFF1CF0925502E0925402B7010F2CD1
:10365000000C880B990B0E944B1E9B01AC0160E093
:1036600070E080E094E40E94341D20E030E040EA05
:1036700051E40E94A11D4B015C0120E030E0A90152
:103680000E94D71E20E030E040E05FE387FDDFC00E
:10369000C501B4010E94351D0E94131E60935A0299
:1036A00080915B02861B990B9093440280934302A6
:1036B00080915802909159028E199F094896C1979E
:1036C00020F41092440210924302E0904302F090E2
:1036D0004402E114F10409F425C1D12CC12C882441
:1036E00099248E189F08C701F7FCC401C816D90693
:1036F0000CF0D4C01E141F040CF0BAC00115110543
:1037000009F0AAC089EE90E00E94A50980915C02B0
:103710008E5F80935C02A8C0C501B4010E94341D75
:1037200077CE70925E0260925D02C9CE0E94241232
:10373000EFCE8130910511F481E50CCF029709F0AD
:103740000BCF80EE0E94CA0F82EE0E94CA0F88E162
:103750000E94CA0F61E170E080E090E00E944B059A
:103760000E946F0FF9CE81309105C1F482E50E946D
:10377000DD0F61E170E080E090E00E944B0580EE9B
:103780000E94CA0F87E20E94CA0F61E170E080E0E8
:1037900090E00E944B050E946F0F08CF8230910588
:1037A00029F480EE0E94CA0F8BE0EDCF019609F05C
:1037B000FDCE8091420221E08227809342028091D7
:1037C00041028227809341028AE093E00E94030C29
:1037D000EDCE072E000C880B990B0E944B1EEFEBD1
:1037E000EE16E3E0FE060CF52AE534E64BE15FE376
:1037F0000E94DC1E23E333E349E553E40E94351DB8
:103800006B017C0120E030E0A9010E94D71E20E07E
:1038100030E040E05FE387FD15C0C701B6010E94BC
:10382000351D0E94131E7B010DCF2CE53FE842E6BB
:1038300050E40E94DC1E26E636E642E255E40E9491
:10384000341DDECFC701B6010E94341DEACFC50189
:10385000B4010E94341D20CF8EE201301105D9F051
:1038600082E502301105B9F0FFEFCF1ADF0A3BCF36
:103870000115110541F48AEE90E00E94A50980919E
:103880005C02825046CF8DE20130110521F00230FA
:10389000110551F781E50E94DD0FE6CFE09054025B
:1038A000F090550280915C02853648F1B7010F2CEB
:1038B000000C880B990B0E944B1E20E030E048EC76
:1038C0005DE30E94DC1E20E030E040E05FE30E9408
:1038D000DC1E4B015C0120E030E0A9010E94D71EF4
:1038E00020E030E040E05FE387FD71C0C501B40136
:1038F0000E94351D0E94131E660F60935C0260914A
:103900005C0270E0A801C7010E94AF1180915402CF
:1039100090915502909359028093580280915A02D7
:1039200080935B020E947D05709362026093610246
:1039300000915D0210915E0280914B02882359F044
:103940000F3F100741F080914502909146020E947E
:10395000971110924B028091490290914A02009770
:10396000D9F50F3F100771F081E894E00E9405033C
:1039700043E060E48AE093E00E94270A89E090E057
:103980000E9467118091470290914802009709F0C8
:1039900047C00F3F1F4F71F081E894E00E9405037C
:1039A00043E060E08AE093E00E94270A89E090E02B
:1039B0000E94671161E070E080E090E00E944B059A
:1039C0002114310409F44DCD0E9400004ACDC501F7
:1039D000B4010E94341D8ECF181619069CF60F3FB5
:1039E000100781F281E894E00E94050343E060E45F
:1039F0008AE093E00E94270A88E090E00E94671125
:103A000085E00E94B704892B09F4BCCF809149025C
:103A100090914A02019790934A0280934902B2CF53
:103A2000181619063CF60F3F1F4F21F281E894E06B
:103A30000E94050343E060E08AE093E00E94270AC9
:103A400088E090E00E94671184E00E94B704892B0F
:103A500009F4B0CF8091470290914802019790936A
:103A6000480280934702A6CF5058BB27AA270E943E
:103A70004C1D0C949D1E0E948F1E38F00E94961EB5
:103A800020F039F49F3F19F426F40C948C1E0EF4A8
:103A9000E095E7FB0C94861EE92F0E94AE1E58F3BA
:103AA000BA17620773078407950720F079F4A6F523
:103AB0000C94D01E0EF4E0950B2EBA2FA02D0B0106
:103AC000B90190010C01CA01A0011124FF27591B63
:103AD00099F0593F50F4503E68F11A16F040A22F69
:103AE000232F342F4427585FF3CF469537952795DA
:103AF000A795F0405395C9F77EF41F16BA0B620BD9
:103B0000730B840BBAF09150A1F0FF0FBB1F661F1F
:103B1000771F881FC2F70EC0BA0F621F731F841F62
:103B200048F4879577956795B795F7959E3F08F088
:103B3000B0CF9395880F08F09927EE0F979587954A
:103B400008950E94B51D0C949D1E0E94961E58F06B
:103B50000E948F1E40F029F45F3F29F00C94861ECE
:103B600051110C94D11E0C948C1E0E94AE1E68F351
:103B70009923B1F3552391F3951B550BBB27AA2726
:103B800062177307840738F09F5F5F4F220F331F60
:103B9000441FAA1FA9F335D00E2E3AF0E0E832D028
:103BA00091505040E695001CCAF72BD0FE2F29D02B
:103BB000660F771F881FBB1F261737074807AB07FD
:103BC000B0E809F0BB0B802DBF01FF2793585F4F72
:103BD0003AF09E3F510578F00C94861E0C94D11E4D
:103BE0005F3FE4F3983ED4F3869577956795B79554
:103BF000F7959F5FC9F7880F911D9695879597F95F
:103C00000895E1E0660F771F881FBB1F62177307D7
:103C10008407BA0720F0621B730B840BBA0BEE1FEC
:103C200088F7E09508950E941A1E6894B1110C94CB
:103C3000D11E08950E94B61E88F09F5798F0B92FA4
:103C40009927B751B0F0E1F0660F771F881F991FD1
:103C50001AF0BA95C9F714C0B13091F00E94D01E85
:103C6000B1E008950C94D01E672F782F8827B85F95
:103C700039F0B93FCCF3869577956795B395D9F729
:103C80003EF490958095709561957F4F8F4F9F4F33
:103C90000895E89409C097FB3EF49095809570953F
:103CA00061957F4F8F4F9F4F9923A9F0F92F96E988
:103CB000BB279395F695879577956795B795F111FD
:103CC000F8CFFAF4BB0F11F460FF1BC06F5F7F4F9A
:103CD0008F4F9F4F16C0882311F096E911C07723AC
:103CE00021F09EE8872F762F05C0662371F096E8B5
:103CF000862F70E060E02AF09A95660F771F881F84
:103D0000DAF7880F9695879597F9089597F99F6741
:103D100080E870E060E008959FEF80EC0895002453
:103D20000A941616170618060906089500240A9420
:103D300012161306140605060895092E0394000CA6
:103D400011F4882352F0BB0F40F4BF2B11F460FF35
:103D500004C06F5F7F4F8F4F9F4F089557FD90585E
:103D6000440F551F59F05F3F71F04795880F97FB3F
:103D7000991F61F09F3F79F08795089512161306F9
:103D80001406551FF2CF4695F1DF08C01616170628
:103D90001806991FF1CF869571056105089408955D
:103DA000E894BB2766277727CB0197F908950E94EF
:103DB000491F08F48FEF08950E94EF1E0C949D1E7A
:103DC0000E948F1E38F00E94961E20F0952311F05D
:103DD0000C94861E0C948C1E11240C94D11E0E94EF
:103DE000AE1E70F3959FC1F3950F50E0551F629F73
:103DF000F001729FBB27F00DB11D639FAA27F00D44
:103E0000B11DAA1F649F6627B00DA11D661F829F6A
:103E10002227B00DA11D621F739FB00DA11D621F4F
:103E2000839FA00D611D221F749F3327A00D611D6C
:103E3000231F849F600D211D822F762F6A2F11244E
:103E40009F5750409AF0F1F088234AF0EE0FFF1F81
:103E5000BB1F661F771F881F91505040A9F79E3FD8
:103E6000510580F00C94861E0C94D11E5F3FE4F344
:103E7000983ED4F3869577956795B795F795E7952E
:103E80009F5FC1F7FE2B880F911D9695879597F937
:103E90000895990F0008550FAA0BE0E8FEEF1616DB
:103EA0001706E807F907C0F012161306E407F5072E
:103EB00098F0621B730B840B950B39F40A2661F0A2
:103EC000232B242B252B21F408950A2609F4A14045
:103ED000A6958FEF811D811D0895DB018F939F9320
:103EE0000E94C01FBF91AF91A29F800D911DA39F03
:103EF000900DB29F900D1124089597FB072E16F494
:103F0000009407D077FD09D00E94CB1F07FC05D095
:103F10003EF4909581959F4F0895709561957F4FE0
:103F20000895A1E21A2EAA1BBB1BFD010DC0AA1FFA
:103F3000BB1FEE1FFF1FA217B307E407F50720F012
:103F4000A21BB30BE40BF50B661F771F881F991F8D
:103F50001A9469F760957095809590959B01AC01D6
:103F6000BD01CF010895EE0FFF1F0590F491E02DE4
:103F700009940E94DF1FB7FF0895821B930B0895D9
:103F80000E94DF1FA59F900DB49F900DA49F800DF0
:103F9000911D11240895AA1BBB1B51E107C0AA1F44
:103FA000BB1FA617B70710F0A61BB70B881F991FDA
:103FB0005A95A9F780959095BC01CD010895A29FCF
:103FC000B001B39FC001A39F700D811D1124911DED
:103FD000B29F700D811D1124911D089581E090E024
:0A3FE000F8940C94F31FF894FFCF3F
:103FEA0000C18081000000FFFFFFFF8C058C058C5B
:103FFA00058C058C0500E1000000000000000000AF
:10400A000059070708CC07B10700000000E813E8C9
:10401A0013E8133C0F380F350F00000000F20EAE04
:10402A000EAC0E3C0F380F8905590C000000003AFF
:10403A0004C406250650049D045B047904000000AC
:10404A00006B09E70609110811600FC408800F0008
:10405A00000000940900000000980AE70609110808
:10406A0011B41030002520202000566F6C756D6544
:10407A003A005A6F6F6D005570202F20446F776E8B
:10408A00004D6564696120566F6C756D6500526FED
:10409A00746174696F6E00556E646F202F205265CB
:1040AA00646F004D757465005265736574005265DE
:1040BA00706C616365004F757470757400466C6945
:0A40CA00700055706C6F6164000017
:2070000055C000006EC000006CC000006AC0000068C0000066C0000064C0000062C0000043
:2070200060C000005EC00000F2C400005AC0000058C0000056C0000054C0000052C00000EE
:2070400050C0000078C000004CC000004AC0000048C0000046C0000044C0000042C00000BE
:2070600040C000003EC000003CC000003AC0000038C0000036C0000034C0000032C0000048
:2070800030C000002EC000002CC000002AC0000028C0000026C0000024C0000022C00000A8
:2070A00020C000001EC000001CC0000011241FBECFEFDAE0DEBFCDBF11E0A0E0B1E0E2E3BC
:2070C000FFE702C005900D92A83AB107D9F711E0A8EAB1E001C01D92AE3BB107E1F78FD30B
:2070E00026C78ECFF89410926F0010928100109285001092840081E085BF15BE47985D98ED
:2071000028980C94000008952091B2013091B3012F5F3F4F3093B3012093B201932F37FFA8
:2071200003C08EEF831B982F990F921710F447980895479A08951F920F920FB60F9211246E
:207140002F938F939F93EF93FF9310928500109284008091A8019091A901009741F00197D3
:207160009093A9018093A801892B09F45D988091AA019091AB01009741F001979093AB0128
:207180008093AA01892B09F42898E0E0F0E0859194918F5F9F4F49F08091AC019091AD0153
:2071A00001969093AD018093AC01FF91EF919F918F912F910F900FBE0F901F90189584E0BC
:2071C0008093E9000DC08091E8008B778093E80003C08EB3882351F08091E80082FFF9CFBE
:2071E0008091E80085FFEFCF8091F1000895982F83E08093E9008091E80085FD0DC0809136
:20720000E8008E778093E80003C08EB3882369F08091E80080FFF9CF9093F1005D9A84E6C9
:2072200090E09093A9018093A80108954F925F926F927F928F929F92AF92BF92CF92DF921E
:20724000EF92FF920F931F93CF93DF9384E08093E9008091E80082FF57C2289A84E690E065
:207260009093AB018093AA01AADF182F853481F48CE49DE19093AD018093AC0107B600FC4B
:20728000FDCFF999FECF81E180935700E89503C0843519F494DF8DE00DC28C34E1F38035F9
:2072A000D1F3843721F484E4A2DF80E003C2813611F489E5FFC18134B1F481DF182F7FDFE3
:2072C00090E0880F991FAA2797FDA095BA2F312F330F20E0442737FD4095542F822B932B68
:2072E000A42BB52BB8C1803711F483E5E3C1833549F4C0E0D1E089917ADF21E0C730D20714
:20730000D1F7D9C1863521F481E371DF80E3D2C1833731F487E86BDF85E969DF8EE1CAC149
:207320008536B9F4E0E0F0E093E085E090935700E89507B600FCFDCF80935700E89507B65D
:2073400000FCFDCFE058FF4FA0E7E030FA0771F7A2CF823739F4E1E0F0E089E08093570024
:207360008491A8C1863439F4E0E0F0E089E08093570084919FC18E3439F4E3E0F0E089E0E5
:2073800080935700849196C1813539F4E2E0F0E089E08093570084918DC1823631F489E521
:2073A00026DF80E024DF80E885C1823419F0873609F0E5C01092AD011092AC0100DF082FE8
:2073C000FEDEF82EFCDE682E8554823008F071C1902F80E0CF2DD0E0C82BD92B10926F00B3
:2073E000173609F04BC081E180935700E895DD24CC24C3943FC0E090AE01F090AF010091CC
:20740000B0011091B101B6E46B16D9F4ED2DF0E0EE29FF29E4918E2FEADEDD2081F082E08D
:2074200090E0A0E0B0E0E80EF91E0A1F1B1FE092AE01F092AF010093B0011093B101DC2470
:2074400018C0D801C701B695A7959795879559D5CEDE82E090E0A0E0B0E0E80EF91E0A1FF2
:207460001B1FE092AE01F092AF010093B0011093B1012197209709F0BECF7DC08090AE01F5
:207480009090AF01A090B001B090B10196E4691609F05DC083E0F40180935700E89507B63E
:2074A00000FCFDCF54C0F6E46F1661F5772031F1E090AE01F090AF010091B0011091B1019E
:2074C0007EDED82ECC24852D90E08C299D29F7010C0140925700E895112482E090E0A0E08B
:2074E000B0E0E80EF91E0A1F1B1FE092AE01F092AF010093B0011093B10102C060DE582E1A
:20750000742423C0E090AE01F090AF010091B0011091B10116950795F794E79450DE682FFA
:20752000C701F7D48091AE019091AF01A091B001B091B1010296A11DB11D8093AE01909349
:20754000AF01A093B001B093B101219704C05524772444244394209709F0A5CF96E46916B6
:2075600041F485E0F40180935700E89507B600FCFDCF8DE03CDE82E080936F009CC0833492
:2075800071F40091AE011091AF0119DE90E021E0F8010C0120935700E89511247CCE8336C8
:2075A00019F5E090AE01F090AF010091B0011091B10105DEF701E16090E021E00C0120938C
:2075C0005700E895112482E090E0A0E0B0E0E80EF91E0A1F1B1FE092AE01F092AF0100936A
:2075E000B0011093B10157CE8D3661F4E091AE01F091AF0185E080935700E89507B600FCF2
:20760000FDCF49CE823551F4E091AE01F091AF0105911491812FEBDD802F4CC0843421F5FE
:20762000E090AE01F090AF010091B0011091B10116950795F794E794C2DD682FC70169D4DE
:207640008091AE019091AF01A091B001B091B1010296A11DB11D8093AE019093AF01A093D8
:20766000B001B093B10117CE843609F5E090AE01F090AF010091B0011091B101D801C70142
:20768000B695A795979587953CD4B1DD82E090E0A0E0B0E0E80EF91E0A1F1B1FE092AE010A
:2076A000F092AF010093B0011093B10104C08B3111F08FE39CDD83E08093E9009091E8002B
:2076C0008091E8008E778093E80095FF04C010C08EB38823C9F08091E80080FFF9CF809193
:2076E000E8008E778093E80003C08EB3882361F08091E80080FFF9CF84E08093E9008091F1
:20770000E8008B778093E800DF91CF911F910F91FF90EF90DF90CF90BF90AF909F908F90AC
:207720007F906F905F904F9008959091B601892F8F77813249F58091B7018032A1F081328A
:2077400019F5913A09F58091E800877F8093E8008DE091E067E070E00BD28091E8008B770B
:207760008093E8000895913279F48091E800877F8093E8008DE091E067E070E05DD2809192
:20778000E8008E778093E800089582E061EC42E0B5D083E061E842E1B1D084E060E842E1EF
:2077A000ADC084B7877F84BF88E10FB6F89480936000109260000FBE20E880E090E00FB63F
:2077C000F89420936100809361000FBE81E085BF92E095BF3F9A209A559AE1E6F0E02083A1
:2077E000108247985D982898109289008AEF8093880090936F0083E080938100F0C040911A
:20780000000850910108109201081092000894B714BE88E10FB6F8948093600010926000D5
:207820000FBE292F30E0F901E270F07091FD18C090FF05C0859194918F5F9F4F81F423FFFF
:207840000FC08091090190910A014817590741F0E0E0F0E0859194918F5F9F4F09F042DC64
:20786000A0DF78941092AD011092AC010CC0DEDC36D38091AC019091AD0181549F4110F00D
:207880001092140141DC80911401882381F78091E00081608093E00025DC80E090E0089598
:2078A000FA01923049F0933061F09130F9F485E191E022E130E01EC087E291E02EE330E04D
:2078C00019C0882329F485E691E024E030E012C0813029F489E691E022E230E00BC0823006
:2078E00029F48DE891E028E130E004C080E090E020E030E091838083C90108958093E9004E
:207900008091EB0081608093EB001092ED006093EC004093ED008091EE00881F8827881F62
:2079200008958091B60188238CF403C08EB38823B1F08091E80082FFF9CF8091E8008B772A
:207940008093E80008958EB3882349F08091E80080FFF9CF8091E8008E778093E800089594
:20796000EF92FF920F931F9345D04CD008ED10E0F80180818F77808380818068808380819B
:207980008F7D808319BC1EBA1092B40180EEE82EF12CF70180818B7F8083F8018081816052
:2079A000808380E060E042E0A9DFE1EEF0E080818E7F8083E2EEF0E0808181608083808144
:2079C00088608083F70180818E7F8083F8018081806180831F910F91FF90EF900895E7ED06
:2079E000F0E08081816080838AE482BF81E08093B501B6CFE8EDF0E080818E7F808310921C
:207A0000E20008951092DA001092E10008951F920F920FB60F9211242F933F934F935F93F6
:207A20006F937F938F939F93AF93BF93EF93FF938091DA0080FF1BC08091D80080FF17C0B2
:207A40008091DA008E7F8093DA008091D90080FF0BC080E189BD82E189BD09B400FEFDCF36
:207A600081E08EBB3BD203C019BC1EBA37D28091E10080FF17C08091E20080FF13C0809138
:207A8000E2008E7F8093E2008091E20080618093E2008091D80080628093D80019BC85E049
:207AA0008EBB1CD28091E10084FF2CC08091E20084FF28C080E189BD82E189BD09B400FEC5
:207AC000FDCF8091D8008F7D8093D8008091E1008F7E8093E1008091E2008F7E8093E20012
:207AE0008091E20081608093E2008091B401882331F48091E30087FD02C081E001C084E067
:207B00008EBBECD18091E10083FF21C08091E20083FF1DC08091E100877F8093E10082E06A
:207B20008EBB1092B4018091E1008E7F8093E1008091E2008E7F8093E2008091E2008061E9
:207B40008093E20080E060E042E0D8DEC7D1FF91EF91BF91AF919F918F917F916F915F9130
:207B60004F913F912F910F900FBE0F901F9018959C014091BC015091BD014617570718F49D
:207B8000F90190E044C06115710511F0AB01F8CF8091E8008E778093E80040E050E0F0CF0F
:207BA0008EB3882309F444C0853009F443C08091E80083FF02C081E008958091E80082FD70
:207BC00031C08091E80080FF22C08091F3009091F200782F60E0292F30E0262B372B07C07A
:207BE00081918093F100415050402F5F3F4F4115510519F02830310598F390E02830310566
:207C000009F491E08091E8008E778093E8004115510531F6992321F605C08EB3882341F075
:207C2000853041F08091E80082FFF7CF80E0089582E0089583E008959C016115710529F47C
:207C40008091E8008B778093E800F90126C08EB3882391F1853091F18091E80083FF02C06C
:207C600081E008958091E80082FFF1CF06C08091F10081936150704059F02091F300809191
:207C8000F200322F20E090E0822B932B892B79F78091E8008B778093E80061157105B9F601
:207CA00005C08EB3882341F0853041F08091E80080FFF7CF80E0089582E0089583E00895C2
:207CC0000F931F93DF93CF9300D0CDB7DEB7E6EBF1E08091F100819381E0EE3BF807C9F792
:207CE00024DD8091E80083FFE4C08091B6019091B701953009F46DC0963040F4913081F1A7
:207D0000913070F0933009F0D4C02AC0983009F4A3C0993009F4B2C0963009F0CAC07CC023
:207D2000803809F4C6C0823809F0C3C08091BA0187708093E9008091EB001092E9002091DB
:207D4000E800277F2093E80090E025E0969587952A95E1F781708093F1001092F10087C0D8
:207D6000882319F0823009F0A4C08F71823009F0A0C08091B801882331F52091BA01277097
:207D800009F497C02093E9008091EB0080FF1BC0933021F48091EB00806213C08091EB0018
:207DA00080618093EB0081E090E002C0880F991F2A95E2F78093EA001092EA008091EB00E5
:207DC00088608093EB001092E9008091E800877F51C0882309F06DC01091B8011F770FB79B
:207DE000F8948091E800877F8093E8009ADD8091E80080FFFCCF8091E3008078812B809398
:207E0000E30080688093E300112311F482E001C083E08EBB0FBF4DC08058823008F049C033
:207E20008091B8019091B9016091BA01AE014F5F5F4F36DDBC01009709F43BC08091E8008E
:207E4000877F8093E80089819A8192DE8091E8008B778093E8002DC0803859F58091E800AA
:207E6000877F8093E8008091B4018093F1008091E8008E778093E80054DD1BC08823C9F4CA
:207E80009091B8019230A8F48091E800877F8093E8009093B40145DD8091B401882331F420
:207EA0008091E30087FD02C081E001C084E08EBB6CDC8091E80083FF0AC08091EB0080624E
:207EC0008093EB008091E800877F8093E8000F900F90CF91DF911F910F91089508951F9360
:207EE0008EB3882361F01091E9001092E9008091E80083FF01C0E4DE17701093E9001F916F
:207F00000895F999FECF92BD81BDF89A992780B50895262FF999FECF1FBA92BD81BD20BDBD
:207F20000FB6F894FA9AF99A0FBE01960895F894FFCF4341544552494E4100777700080031
:207F40000000000000080112011001020000084123370001000201000109023E00020100FE
:207F600080320904000001020201000524001001042402040524060001070582030800FF0C
:207F800009040100020A000000070504021000010705830210000104030904220341007216
:207FA000006400750069006E006F0020004D006900630072006F0020002000200000001810
:1A7FC00003410072006400750069006E006F0020004C004C004300000000D7
:00000001FF
