:100000000C9429050C9478120C9451120C942A1219
:100010000C9403120C9451050C9451050C94DC11B2
:100020000C9451050C9451050C949F120C940E13D2
:100030000C9451050C9451050C9451050C945105E8
:100040000C9451050C9451050C9451050C945105D8
:100050000C9451050C9451050C9451050C9492117B
:100060000C9451050C9451050C9451050C945105B8
:100070000C9451050C9451050C9451050C945105A8
:100080000C9451050C9451050C9451050C94510598
:100090000C9451050C9451050C9451050C94510588
:1000A0000C9451050C9451050C945105AED580A8C3
:1000B0001FD300408D142002A1C8DA02817FD9F13C
:1000C000DB40A4A6AF000008053009202020202036
:1000D000202020F82020202020202020F820202070
:1000E0002020202020F82020202020202020F82060
:1000F00020202020202020F8202020202020202028
:10010000F82020202020202020F82020202020203F
:100110002020F800030C0F30333C3FC0C3CCCFF09D
:10012000F3FCFF00000000000000000000000000E1
:100130000000002A002B0028000000000000000042
:1001400000000000000000000000000000000000AF
:10015000000000000000000000000000000000009F
:100160000000002C001E0234022002210222022480
:100170000234002602270225022E0236002D003707
:1001800000380027001E001F00200021002200234D
:10019000002400250026003302330036022E0037EB
:1001A0000238021F020402050206020702080209C1
:1001B000020A020B020C020D020E020F02100211C3
:1001C0000212021302140215021602170218021973
:1001D000021A021B021C021D022F003100300023F4
:1001E000022D023500040005000600070008000982
:1001F000000A000B000C000D000E000F0010001193
:100200000012001300140015001600170018001942
:10021000001A001B001C001D002F023102300235A5
:10022000020000080B0002020200000904000001A5
:10023000020200000524001001052401010104242C
:100240000206052406000107058103100040090489
:100250000100020A00000007050202400000070535
:1002600083024000000403090412010002EF0201AE
:100270004041233780000101020301417264756926
:100280006E6F204C4C430041726475696E6F204D57
:100290006963726F00AC0019802000000005072020
:1002A00060000000000000005F0000000700070081
:1002B000147F147F14242A7F2A12231308646236C1
:1002C000495620500008070300001C22410000414D
:1002D000221C002A1C7F1C2A08083E080800807087
:1002E00030000808080808000060600020100804BA
:1002F000023E5149453E00427F400072494949460D
:100300002141494D331814127F1027454545393C8A
:100310004A49493141211109073649494936464977
:1003200049291E0000140000004034000000081499
:100330002241141414141400412214080201590912
:10034000063E415D594E7C1211127C7F4949493667
:100350003E414141227F4141413E7F494949417FE0
:10036000090909013E414151737F0808087F004196
:100370007F41002040413F017F081422417F4040DF
:1003800040407F021C027F7F0408107F3E414141B4
:100390003E7F090909063E4151215E7F0919294620
:1003A000264949493203017F01033F4040403F1F36
:1003B0002040201F3F4038403F631408146303046B
:1003C0007804036159494D43007F414141020408CB
:1003D0001020004141417F0402010204404040409E
:1003E00040000307080020545478407F28444438D4
:1003F0003844444428384444287F3854545418001E
:10040000087E090218A4A49C787F0804047800449C
:100410007D40002040403D007F1028440000417F87
:1004200040007C047804787C080404783844444410
:1004300038FC1824241818242418FC7C0804040808
:10044000485454542404043F44243C4040207C1C21
:100450002040201C3C4030403C44281028444C9014
:1004600090907C4464544C4400083641000000776E
:100470000000004136080002010204023C26232647
:100480003C19920A0C206002010408060B080103C3
:10049000030507020401050605060607060606060B
:1004A000060102070707050A0806070706060707E9
:1004B00003040606080708060807060707080B06D0
:1004C00007060305030808020606050606040606D5
:1004D00001030501090606060604050506050905CA
:1004E0000505050105080900000000FE20070000C1
:1004F00007000000008090F89690F89610003000F9
:1005000000300000001824FF4444842020F0202004
:10051000101C22221C80700CC22020C00000002071
:1005200010000010202010DC2222225C80600010CD
:10053000202020201010200700F806011060800104
:1005400006F88060100A041F040A00000000004042
:100550004040F840404000000030000000000080B3
:1005600070404040400000000000300000E01C03EC
:100570008070000000FC02020202FC1020202020FB
:10058000100404FE000020203020200C8242422271
:100590001C3020202020200402222222DC102020D7
:1005A00020201060504844FE404000000000300011
:1005B000001E12121212E2102020202010F8141235
:1005C0001212E0102020202010020282621A06007F
:1005D0002010000000DC22222222DC10202020201B
:1005E000103C42424242FC00202020100018300003
:1005F00018807040A0A01010080800000010102003
:100600002050505050505050000000000000000892
:10061000081010A0A040202010100000000402E2EA
:10062000221C0000200000F00C04F20A0AFA040C5C
:10063000F00030204050505010100000E0988686A6
:1006400098E0003000000000000030FE2222223C32
:10065000C0302020202010F8040202020204001002
:100660002020202010FE0202020204F83020202068
:10067000201000FE2222222222302020202020FED4
:100680002222222202300000000000F8040202228E
:1006900022E400102020202010FE2020202020FE18
:1006A0003000000000003002FE0220302000020274
:1006B000FE20202010FE2050880402300000001090
:1006C00020FE0000000000302020202020FE063800
:1006D000C0C03806FE3000000000000030FE0618E2
:1006E00020C000FE30000000003030F8040202029A
:1006F0000204F80010202020201000FE4242424256
:100700003C300000000000F8040202020204F8007D
:1007100010202020609080FE222262A21C00300067
:1007200000000010201C22222222C41020202020A1
:1007300010020202FE02020200000030000000FE71
:100740000000000000FE001020202010000638C02D
:100750000000C0380600000030300000001EE0003D
:10076000C0380638C000E01E000030000000000065
:1007700030000006887070880630000000003002EB
:100780000C10E0100C020000003000000002826239
:10079000120A06302020202020FF0101F080800373
:1007A0001C60800000000030C00101FF8080F0105C
:1007B000080402020408100000000000000000000D
:1007C0000000000000000080808080808080800128
:1007D0000200008048484848F0102020202030FFC8
:1007E00010080808F0302020202010F00808081019
:1007F0001020202010F008080808FF1020202010EA
:1008000030F0484848487010202020201008FE0989
:100810000900300000F008080808F810A0A0A09017
:1008200070FF10080808F0300000000030F93000B8
:1008300008F9808070FF40A010083000001020FFF1
:1008400030F8080808F0080808F030000000300010
:10085000000030F810080808F0300000000030F008
:1008600008080808F0102020202010F810080808B8
:10087000F0F02020202010F008080808F8102020B0
:100880002010F0F810080830000000304848488870
:10089000202020201008FE0808080010202020F842
:1008A00000000000F810202020103018E000E018B0
:1008B000000030000018E000E018E000E018000040
:1008C0003000000030000018A040A01830000000E8
:1008D0003018E000E01800807000000888482818F0
:1008E00030202020202020DE01010000708080FFC9
:1008F000F00101DE20208080700000C020204040F8
:100900008080600000000000000000FE0202020281
:10091000020202FE3020202020202020300000078C
:1009200007300A38448280804438384482828240CA
:100930003038448282824408384482820204383843
:10094000440202824438180482828244382044825D
:10095000828244383840808282443838448282829D
:100960004438387CFEFEFE7C380000000023002660
:100970000029002C002F000000000200090F0000D9
:10098000030401000C000000000000000000000053
:1009900000000000000000000000250028002B00DF
:1009A0002E00310000000000240027002A002D0046
:1009B00030000404040404030405020202020403D8
:1009C00002020202060606060606040402020204E9
:1009D000040408020110408040102040804080083C
:1009E00002040180402010020110801020404020AD
:1009F000070605040100080A0B0C0D09050109068C
:100A0000A1018502050719E029E7150025017501F7
:100A100095088102050C95017508150026FF00193F
:100A20000029FF8100050795067508150026E700D7
:100A3000190029E78100C0050C0901A101850415F1
:100A40000026FF0319002AFF03950475108100C0DA
:100A5000401511241FBECFEFDAE0DEBFCDBF11E09D
:100A6000A0E0B1E0E4E7FEE302C005900D92A23EF3
:100A7000B107D9F722E0A2EEB1E001C01D92A53F77
:100A8000B207E1F715E0C9E2D5E004C02197FE0105
:100A90000E94191FC832D107C9F70E94F3150C94A0
:100AA000381F0C9400009093EF028093EE02FC013B
:100AB00024913196E491F22F319719F41092E902C2
:100AC000089581E08093E9020895E0EFF9E0E49170
:100AD00090917B008E2F880F880F80729F7D892BCD
:100AE00080937B00E770E064E0937C0080917A0063
:100AF000806480937A0080917A0086FDFCCF80919B
:100B00007800909179000895CF93DF9390E0FC01F5
:100B1000EF52F64F24918E54964FFC018491882316
:100B2000C1F090E0880F991FFC01EC55F64FC5917C
:100B3000D491FC01EA56F64FA591B4919FB7F89471
:100B40003881822F809583238883EC91E22BEC936C
:100B50009FBFDF91CF910895FC0180915D028823B2
:100B600011F13FB7F89482E08093E9002091F20000
:100B7000822F90E01816190614F481E090E0882383
:100B800039F0289A44E640935C024091F10040839A
:100B9000222339F02091F200211103C02BE620938B
:100BA000E8003FBF08958FEF9FEF0895CF93DF9345
:100BB0001F92CDB7DEB76983DC01ED91FC91028015
:100BC000F381E02D41E050E0BE016F5F7F4F09955A
:100BD0000F90DF91CF91089583E08093E900809199
:100BE000F200882319F08AE38093E8000895CF93F8
:100BF000DF931F92CDB7DEB7FC018485958597FD05
:100C000008C02FEF3FEF358724870F90DF91CF91FA
:100C10000895CE0101960E94AC05019719F48981CF
:100C200090E0F3CF8FEF9FEFF0CF0F931F93CF9311
:100C3000DF931F92CDB7DEB78C01FC0184859585CB
:100C400097FF0BC0CE0101960E94AC05019771F48D
:100C5000898190E0F80195878487F80184859585DE
:100C60000F90DF91CF911F910F9108958FEF9FEF1C
:100C7000F1CFFC018485958597FD0BC09FB7F89453
:100C800082E08093E9008091F2009FBF90E001969E
:100C900008959FB7F89482E08093E9008091F20074
:100CA0009FBF90E00895282F30E0F901E958F64FF2
:100CB0009491F901EF52F64F84912E54364FF90179
:100CC0002491222309F45BC09923E9F091509F30CD
:100CD000D0F4E92FF0E0E159F94F0C94191F9A066E
:100CE0009E067E0692069606830683068306A10666
:100CF000A706AB06AF06B5068306B906909180003D
:100D00009F7790938000E22FF0E0EE0FFF1FE759EE
:100D1000F64FA591B491EC91E82381E090E089F53C
:100D200080E00895909180009F7DEBCF90918000AE
:100D3000977FE7CF94B59F7794BDE5CF94B59F7D1E
:100D4000FBCF909190009F7790939000DCCF909193
:100D500090009F7DF9CF90919000977FF5CF909173
:100D6000C0009F779093C000CECF9091C0009F7D30
:100D7000F9CF9091C200977F9093C200C4CF80E0DA
:100D800090E008953FB7F8948091580290915902ED
:100D9000A0915A02B0915B0226B5A89B05C02F3FD7
:100DA00019F00196A11DB11D3FBFBA2FA92F982F91
:100DB0008827BC01CD01620F711D811D911D42E08C
:100DC000660F771F881F991F4A95D1F708958F9254
:100DD0009F92AF92BF92CF92DF92EF92FF924B0120
:100DE0005C010E94C2066B017C010E94C2066C1964
:100DF0007D098E099F09683E734081059105A8F31E
:100E000021E0821A9108A108B10888EEC80E83E09B
:100E1000D81EE11CF11C81149104A104B10429F72E
:100E2000FF90EF90DF90CF90BF90AF909F908F900A
:100E300008952FB7F89460915402709155028091F3
:100E40005602909157022FBF0895089540910C02C9
:100E500050910D0220910A0230910B024217530764
:100E6000B4F49091E8009570E1F39091E80092FD60
:100E700019C08093F10080910C0290910D020196AF
:100E80008F739927892B19F48EEF8093E800809156
:100E90000C0290910D02019690930D0280930C022A
:100EA00081E0089580E00895EF92FF920F931F93E1
:100EB000CF93DF93F82E192FE62E042F81E0860FB3
:100EC000880F0E94260783E00E942607CF2DD12F8E
:100ED000EC0EFD2EF11CCE15DF05B9F007FF13C097
:100EE000FE0184910E942607182F80E00E942607A9
:100EF000812321968111EFCFDF91CF911F910F9127
:100F0000FF90EF9008958881EDCF81E0F5CFDF92DB
:100F1000EF92FF920F931F93CF93DF93D82E8A0106
:100F2000EB017B01E40EF51ECE15DF0559F0D7FE6F
:100F300012C0FE0184910E94260721968111F4CFF0
:100F40000FEF1FEFC801DF91CF911F910F91FF901D
:100F5000EF90DF9008958881EECF2FB7F8948770D7
:100F60008093E9009091E800892F807295FF04C07A
:100F70009091F20080E4891B2FBF089583E00E94C6
:100F8000AD0790E008957F928F929F92AF92BF92AB
:100F9000CF92DF92EF92FF920F931F93CF93DF9345
:100FA000C82E8B017A0180915D02811110C08FEFF4
:100FB0009FEFDF91CF911F910F91FF90EF90DF9006
:100FC000CF90BF90AF909F908F907F900895809129
:100FD000100280FF05C08091E00082608093E000F5
:100FE000CE2DDF2DD12C8AEFB82E8C2D8770982E28
:100FF0008C2D8072882E8C2D8074782E9AE3A92EE9
:10100000209719F4DD2009F452C08C2D0E94AD0701
:1010100081110AC0BA94BB2051F261E070E080E017
:1010200090E00E94E706ECCF8C171D0611F00CF043
:101030008C2F9FB7F8949092E9002091E80025FD4D
:1010400002C09FBFDDCF282F30E0C21BD30B88200A
:1010500029F08150A0F01092F100FBCFF801C7FCFD
:101060000AC0815050F041914093F100FACF449171
:101070004093F10031968150D0F7020F131FDD200D
:1010800021F0A092E800D12CDCCF8091E80085FD12
:1010900007C0A092E800DD24D394209791F2F3CF0B
:1010A000209779F6772069F2A092E800CACF5D9A7E
:1010B00084E680930F02C7017CCFCF93DF93EC01CE
:1010C00080911C01882331F083E00E94C307181629
:1010D000190634F081E090E09B838A8380E090E001
:1010E000DF91CF910895615030F02091F100FC0123
:1010F00020830196F8CF289A84E680935C020895B5
:10110000AF92BF92CF92DF92EF92FF920F931F9315
:10111000CF93DF936C017B018B01040F151FEB0153
:101120005E01AE18BF08C017D10759F06991D6010A
:10113000ED91FC910190F081E02DC6010995892B7C
:1011400079F7C501DF91CF911F910F91FF90EF903B
:10115000DF90CF90BF90AF900895809102028111EF
:101160000DC082E08093FE0184E08093FF01109225
:1011700001021092000281E0809302028EEF91E062
:1011800008950F931F93CF93DF931F92CDB7DEB7D0
:1011900082E0898342E450E063E272E080E80E94EA
:1011A00087070E94AD08DC0112960D911C91011574
:1011B000110589F0D801ED91FC910280F381E02DB9
:1011C000BE016F5F7F4FC801099597FD04C0F8010C
:1011D00000851185ECCF89810F90DF91CF911F9110
:1011E0000F910895DC01FB0112962C9112978481D6
:1011F00095812817190641F491818081813A31F453
:101200009D7F81E0913009F080E008958132E1F71F
:101210009B3029F482811F968C9381E008959A3047
:1012200099F7828150968C93F8CFAF92BF92CF926C
:10123000DF92EF92FF920F931F93CF93DF931F9252
:10124000CDB7DEB77C0169836A01590141E050E006
:10125000BE016F5F7F4FFC0183810E94C3078C0139
:1012600097FD0BC0F7018381A501B60180640E9440
:10127000C307080F191F97FD8C01C8010F90DF915C
:10128000CF911F910F91FF90EF90DF90CF90BF9083
:10129000AF900895DC01FB0188E4808389E48183B9
:1012A00084E482831D969C911D979F709F5B93831E
:1012B0001D968D919C9124E0969587952A95E1F74E
:1012C0008F708F5B848385E00895EF92FF920F9378
:1012D0001F93CF93DF93FB012081213871F5238188
:1012E000223259F5DC0112964C9124813581421746
:1012F000130619F5EC010B851C85F12CE12C011569
:10130000110589F0F801448155816281738180E87B
:101310000E9487078F3F980749F0E80EF91ED80111
:101320000D911C91ECCF81E08F87C701DF91CF91A8
:101330001F910F91FF90EF90089590E080E0F6CF1D
:10134000CF93DF93CDB7DEB769970FB6F894DEBFC2
:101350000FBECDBFFC01DB018C918F5F8C939E0192
:101360002D5F3F4F8DE0D9011D928A95E9F729E065
:10137000298384E08A8391E09D8383E08E832A879A
:1013800021E22B879C879D879F8722E2288B27E07D
:101390002B8B25E02C8B8E8B20E430E0388F2F8B2D
:1013A000998F82818B8395858685998B8A8B8381A2
:1013B00080688D8B49E150E0BE016F5F7F4F80E018
:1013C0000E94870769960FB6F894DEBF0FBECDBFA7
:1013D000DF91CF910895CF93DF938091F601811132
:1013E00067C081E08093E9018093EA012FEE31E04C
:1013F0003093EC012093EB011092EE011092ED017D
:1014000021E231E03093E6012093E5011092F101F1
:101410001092F0011092F3011092F2018093F40106
:101420008093F50181EC8093EF010E94AD08FC01EF
:1014300081819091E901482F490F5527551F483068
:1014400051059CF5A281B381109709F525EE31E095
:101450003383228320812093E7018093E8018091E8
:10146000EA01820F80832091EB01A22FB091EC0161
:101470008A2F821B8917C8F481813D91C82FD0E043
:10148000C050DF4F38838F5F8183F2CFD901189628
:101490002D913C91199721153105C1F725EE31E0C9
:1014A00019963C932E931897D5CF81E08093F6013F
:1014B00085EE91E0DF91CF910895CF93DF93EC011A
:1014C0000E94EB09AE014C5F5F4F28E030E062E024
:1014D000DF91CF910C941509CF92DF92FF920F9379
:1014E0001F93CF93DF938C01F42EE62FF0E0EE0FE5
:1014F000FF1FED5DFE4FC590D490D801ED91FC919A
:101500000484F585E02D6C2DC8010995EC01892B2B
:1015100011F4F11070C0D0FE0CC0D801ED91FC9117
:101520000484F585E02D4F2D60EEC8010995C82B88
:10153000D92BD1FE0CC0D801ED91FC910484F58526
:10154000E02D4F2D61EEC8010995C82BD92BD2FE95
:101550000CC0D801ED91FC910484F585E02D4F2D50
:1015600062EEC8010995C82BD92BD3FE0CC0D80157
:10157000ED91FC910484F585E02D4F2D63EEC801BB
:101580000995C82BD92BD4FE0CC0D801ED91FC9144
:101590000484F585E02D4F2D64EEC8010995C82B14
:1015A000D92BD5FE0CC0D801ED91FC910484F585B2
:1015B000E02D4F2D65EEC8010995C82BD92BD6FE1D
:1015C0000CC0D801ED91FC910484F585E02D4F2DE0
:1015D00066EEC8010995C82BD92BD7FE0CC0D801DF
:1015E000ED91FC910484F585E02D4F2D67EEC80147
:1015F0000995C82BD92BCE01DF91CF911F910F9167
:10160000FF90DF90CF900895FF920F931F93CF9399
:10161000DF93EC01F62E41E00E946C0A8C01892BCD
:10162000A9F0E881F9810284F385E02DCE010995C6
:1016300040E06F2DCE010E946C0A892B39F0E881C1
:10164000F9810284F385E02DCE010995C801DF916F
:10165000CF911F910F91FF9008950F931F93CF93F8
:10166000DF93EB018A010E94EB099801AE0164E06F
:10167000DF91CF911F910F910C941509CF93DF93B8
:10168000EC01E8EDF2E090E080E0219131910196EB
:10169000232B41F5880F991FFC01EA52FD4FD1839E
:1016A000C08348E050E068ED72E086ED92E00E9471
:1016B0002D0BE6EDF2E08EED92E022813381C21730
:1016C000D30711F41382128232968E179F07A9F75F
:1016D00048E050E068ED72E086ED92E0DF91CF9156
:1016E0000C942D0B8430910581F6DBCFCF93DF93E3
:1016F000EC018D85882329F081508D87DF91CF9172
:1017000008959C818E819817C8F788896827E88199
:10171000F9810084F185E02D42E0CE0109958C81AC
:101720008F5F8C83EBCFDC01ED91FC910084F18520
:10173000E02D40E009940F931F93CF938C01FC019F
:101740006483C085C60F6C2F6F700E94930B6C2F43
:1017500062956F706061C801CF911F910F910C94D9
:10176000930BFC012781269526952695621738F460
:1017700065832385620F6770606B0C94930B0895EB
:101780001F93CF93DF93EC01142F8E81681718F409
:10179000CE010E949B0B612FCE01DF91CF911F9153
:1017A0000C94B10BCF92DF92EF92FF920F931F93A5
:1017B000CF93DF93EC01F62EC42ED22E1D868F819F
:1017C000869586958695081710F00FEF080F1D2D4A
:1017D000011780F0412F6F2DCE010E94C00BEF2C1E
:1017E000CE1430F06889CE010E94760BE394F8CFD6
:1017F0001F5FEECF4D2D6F2DCE01DF91CF911F9149
:101800000F91FF90EF90DF90CF900C94C00B0F934F
:10181000DC0115962C9115971E96ED91FC911F9762
:1018200000E0309779F03396E491F0E0379683E06A
:10183000F595E7958A95E1F751960C9151970E9F92
:10184000002D1124EFEFE20F0E0F16964C91169714
:10185000415014966C911497CD010E94D20B0F91B8
:1018600008952F923F924F925F926F927F928F9244
:101870009F92AF92BF92CF92DF92EF92FF920F931F
:101880001F93CF93DF9300D000D000D0CDB7DEB749
:10189000FC01268537852115310509F44AC19E834F
:1018A0008D83F9013296649031964491E42EF12CA7
:1018B000F7E0EF0EF11C53E0F594E7945A95E1F749
:1018C000E982F901349654913196E491651748F014
:1018D0008E2F90E0FC01E50FF11D6E171F060CF432
:1018E00069C06D3031F5ED81FE81868181111BC0AB
:1018F00081E090E026960FB6F894DEBF0FBECDBF14
:10190000DF91CF911F910F91FF90EF90DF90CF90DB
:10191000BF90AF909F908F907F906F905F904F900F
:101920003F902F90089560E08D819E810E949B0BD7
:10193000DFCF6A3009F0FDC0ED81FE81868188230A
:1019400021F060E0CF010E949B0BED81FE81818937
:101950008E9DE02C112465816E0D8485882349F0CD
:1019600097819695969596958E2D891B860F1816BC
:101970002CF08D819E810E94B10BBACFED81FE814A
:101980002385820F877083879E199583CF010E94DC
:10199000070CED81FE818485813009F0A9CF638534
:1019A000660F660F660F6F7362876064CF010E94D7
:1019B000930B9ECF89010A5F1F4F651BED81FE814E
:1019C00071855189759F502D11245C83F9015491C3
:1019D0002F5F3F4FF9012491352F2230310508F058
:1019E0006AC06E9CC0016F9C900D1124689FF0012D
:1019F000699FF00D11240E0F1F1F512CED81FE81E8
:101A0000F481FA83ED81FE812580F585FB83862CA8
:101A1000912CAA24A394B12C312C8981381608F07A
:101A200086C0412CED81FE818189481608F078C07E
:101A30008B818587311002C0442041F0ED81FE8109
:101A400045814F5F6A81CF010E94C00BD12CC12C10
:101A5000C61408F058C0F801EC0DFD1D7490552017
:101A600061F0EA14FB0449F4E72DF0E0052C02C014
:101A7000F595E7950A94E2F77E2EED81FE81818946
:101A8000823081F4442009F43AC072948FE07822C5
:101A9000E72DF0E0ED5EFE4F7490672D8D819E8105
:101AA0000E94760B672D8D819E810E94760B8FEFB1
:101AB000C81AD80ACDCF477028E0522E541A4111C7
:101AC00001C0512CF801612C30E020E0661631F0A5
:101AD0004491240F311D63943196F8CF600E712E1E
:101AE000711CF3016490E29EF001E39EF00DF29E02
:101AF000F00D11248E0F9F1F080F191F7FCFF72D98
:101B0000FF707F2EC5CFD12CEC81DE1639F060E05E
:101B10008D819E810E94760BD394F6CF439482CF21
:101B20003394080D191DFFEFAF1ABF0A76CF622D4F
:101B300020CF90E080E0DECE0F93CF93DF93EC01D7
:101B40001B861A8660E40E94930B0F81069506950A
:101B5000069501504E81415020E060E0CE010E9488
:101B6000D20BDF91CF910F910895FC019C01285F6A
:101B70003F4F90E080E044814111019614823196FC
:101B8000E217F307C1F70895CF93DF938CEB92E050
:101B90000E94B50DEC01892B21F08CEB92E00E94A4
:101BA0005D0ACE01DF91CF910895CF93DF93DC01E1
:101BB00090E2960F9830B0F414968C91149721E02F
:101BC00030E001C0220F9A95EAF7442341F0282B18
:101BD00014962C9381E090E0DF91CF9108952095A9
:101BE0002823F6CFFD0136964423D1F0CD010C9683
:101BF000EF012991621771F3C817D907D1F790E067
:101C000080E02191211105C0A80FB91F16966C9391
:101C1000E1CF019686309105A1F790E080E0DCCF1E
:101C200090E080E02191621305C0A80FB91F1696BD
:101C30001C92D0CF019686309105A1F7EECFCF93BD
:101C4000DF9341E0682F8CEB92E00E94D50DEC0110
:101C5000892B21F08CEB92E00E945D0ACE01DF918E
:101C6000CF9108951F93CF93DF93182F0E941F0EDB
:101C7000EC01892B61F040E0612F8CEB92E00E9437
:101C8000D50D892B21F08CEB92E00E945D0ACE01EC
:101C9000DF91CF911F9108958F929F92AF92BF9243
:101CA000CF92DF92EF92FF92CF93DF930E941907BA
:101CB0006B017C018091430290914402A091450206
:101CC000B091460246015701881A990AAA0ABB0A2E
:101CD0008EE088169104A104B104A8F187E00E9467
:101CE0005306EC0181E00E9453062091E201C817DF
:101CF000D90709F049C0211106C08EE78816910462
:101D0000A104B104A8F080913702909138020196A5
:101D100090933802809337028091390290913A0271
:101D20000097E1F482E70E94320E81E08093E201A5
:101D300081E080931C02C0924302D0924402E09260
:101D40004502F0924602DF91CF91FF90EF90DF9035
:101D5000CF90BF90AF909F908F9008958130910564
:101D600011F48FE4E0CF029701F780EE0E941F0E7E
:101D70008CE10E941F0E61E170E080E090E00E9423
:101D8000E7060E94C40DD1CF222331F08EE78816DA
:101D90009104A104B10460F280913702909138025D
:101DA0000197909338028093370280913902909185
:101DB0003A02009731F481E70E94320E1092E2015C
:101DC000B7CF8130910511F480E5F6CF0297B1F7D6
:101DD00080EE0E941F0E8DE10E941F0E61E170E0F7
:101DE00080E090E00E94E7060E94C40DE7CFFC016E
:101DF0006093BC008091BC0087FFFCCF9091B9003C
:101E0000987F90830895DF92EF92FF920F931F9334
:101E1000CF93DF93EC01D62EF42E8C89882351F0DA
:101E2000411108C084E98093BC008091BC0084FD0E
:101E3000FCCF1C8A8E010E5E1F4F8C8981111AC047
:101E4000EB8864EAC8010E94F70E8A89883011F095
:101E5000803139F4EE0CE092BB0064E8C8010E94C6
:101E6000F70E80E0F11080E48093BB0064E8C801C5
:101E70000E94F70ED092BB0064E8C8010E94F70EE2
:101E800082E0F8120BC08C898F5F8C8BDF91CF9131
:101E90001F910F91FF90EF90DF90089584E9809358
:101EA000BC008091BC0084FDFCCF1C8AEFCF08955C
:101EB00090E080E008958F929F92AF92BF920F932F
:101EC0001F93CF93DF93CDB7DEB7A1970FB6F894EA
:101ED000DEBF0FBECDBF19A2423008F44AE08E012A
:101EE0000F5D1F4F842E912CB12CA12CA5019401C4
:101EF0000E94F71EE62FB901CA01EA3044F5E05D01
:101F0000D801EE938D01232B242B252B79F790E01C
:101F100080E0109769F0FD0101900020E9F731970A
:101F2000AF014A1B5B0BBD0180EE92E00E9480086E
:101F3000A1960FB6F894DEBF0FBECDBFDF91CF9153
:101F40001F910F91BF90AF909F908F900895E95C83
:101F5000D7CFFC0101900020E9F73197AF01481B72
:101F6000590BBC0180EE92E00C948008CF92DF9276
:101F7000EF92FF92CF93DF936C01990FEE08FF0869
:101F8000F7FE19C06DE280EE92E00E94310CEC0188
:101F900066277727CB016C197D098E099F094AE0D6
:101FA0000E945B0F8C0F9D1FDF91CF91FF90EF90F0
:101FB000DF90CF9008954AE0C701B601DF91CF913D
:101FC000FF90EF90DF90CF900C945B0FCF93DF9357
:101FD000EC0142E060E080EE92E00E94C00B8DE1F7
:101FE00099E00E945305CE0168E070E00E94E31E74
:101FF00097FD0896DF91CF910C94B60FCF93DF93A6
:10200000EC018BE992E00E94530541E060E080EE34
:1020100092E00E94C00B80EE92E00E94070C81E6E5
:1020200091E0209751F089E691E0C130D10529F087
:10203000C230D10521F48EE691E00E94A90F42E062
:102040006AE080EE92E00E94C00B80EE92E00E9477
:10205000070C88E791E0209751F085E891E0C130C6
:10206000D10529F0C230D10521F48EE891E00E941B
:10207000A90F43E06AE080EE92E00E94C00B80EE80
:1020800092E00E94070C8AE991E0209751F08FE9D5
:1020900091E0C130D10529F0C230D10521F485EAA3
:1020A00091E00E94A90F43E06AE480EE92E00E9472
:1020B000C00B8DEA91E0209749F084EB91E0C130AC
:1020C000D10521F0229721F489EB91E00E94A90F1C
:1020D0008DE199E00E94530543E060E080EE92E0DC
:1020E0000E94C00B89E090E00E94B60F43E060E4DC
:1020F00080EE92E00E94C00B89E090E0DF91CF91EA
:102100000C94B60FAF92BF92CF92DF92EF92FF92F4
:102110000F931F93CF93DF934F3F540709F45CC095
:102120007A016B01EC0140E060E080EE92E00E94F9
:10213000C00B85EC90E00E9453051092E9028E01DD
:10214000D7FF02C0015C1F4F36E0159507953A9501
:10215000E1F7B12CA12CA016B10644F480EC91E07B
:102160000E94A90F8FEFA81AB80AF5CFD7FD2796BE
:10217000CE0123E0959587952A95E1F768E070E018
:102180000E94E31E01960E94B60F0F5F1F4F0031A1
:1021900011052CF480EC91E00E94A90FF6CFEF28F6
:1021A000D9F48BE992E00E94530541E062E380EEAE
:1021B00092E00E94C00BC6010E94B60F82EC91E033
:1021C000DF91CF911F910F91FF90EF90DF90CF9013
:1021D000BF90AF900C94A90FDF91CF911F910F91F9
:1021E000FF90EF90DF90CF90BF90AF9008950E9446
:1021F000331F4F925F926F927F928F929F92AF9216
:10220000BF92CF92DF92EF92FF92CF93DF93C09174
:102210001A02D0911B026091E3017091E401C53F65
:1022200081E0D8070CF069C0BE010D2E000C880BB0
:10223000990B0E94661D6B017C01609116027091E2
:10224000170280911802909119020E94661DA70141
:1022500096010E94BC1C4B015C01609112027091BE
:10226000130280911402909115020E94661DA7012D
:1022700096010E94BC1C2B013C01A5019401C501E3
:10228000B4010E94F71D9B01AC01C301B2010E9481
:102290004F1CA70196010E94F71D6B017C01BE0136
:1022A00061507109072E000C880B990B0E94661D66
:1022B0009B01AC01C701B6010E94BC1C0E946A1EB2
:1022C00020E030E048EC52E40E94F71D6B017C01F5
:1022D00020E030E0A9010E94F21D20E030E040E063
:1022E0005FE387FD1AC0C701B6010E94501C0E941F
:1022F0002E1D7093E4016093E301CB01DF91CF9138
:10230000FF90EF90DF90CF90BF90AF909F908F9015
:102310007F906F905F904F900895C701B6010E9423
:102320004F1CE5CF1F920F920FB60F9211242F93DF
:102330003F938F939F93AF93BF938091540290915B
:102340005502A0915602B09157023091530223E0FA
:10235000230F2D3758F50196A11DB11D209353026F
:102360008093540290935502A0935602B093570263
:102370008091580290915902A0915A02B0915B024B
:102380000196A11DB11D8093580290935902A0930C
:102390005A02B0935B02BF91AF919F918F913F9191
:1023A0002F910F900FBE0F901F90189526E8230FC6
:1023B0000296A11DB11DD2CF1F920F920FB60F92A0
:1023C00011242F933F934F935F936F937F938F933A
:1023D0009F93AF93BF93EF93FF93E0911301F0911D
:1023E00014010995FF91EF91BF91AF919F918F914A
:1023F0007F916F915F914F913F912F910F900FBE01
:102400000F901F9018951F920F920FB60F921124E4
:102410002F933F934F935F936F937F938F939F93EC
:10242000AF93BF93EF93FF93E0911101F0911201ED
:102430000995FF91EF91BF91AF919F918F917F91FE
:102440006F915F914F913F912F910F900FBE0F9021
:102450001F9018951F920F920FB60F9211242F9371
:102460003F934F935F936F937F938F939F93AF931C
:10247000BF93EF93FF93E0910F01F0911001099545
:10248000FF91EF91BF91AF919F918F917F916F914C
:102490005F914F913F912F910F900FBE0F901F9022
:1024A00018951F920F920FB60F9211242F933F93FE
:1024B0004F935F936F937F938F939F93AF93BF934C
:1024C000EF93FF93E0910D01F0910E010995FF91BB
:1024D000EF91BF91AF919F918F917F916F915F919C
:1024E0004F913F912F910F900FBE0F901F90189515
:1024F0001F920F920FB60F9211242F933F934F9379
:102500005F936F937F938F939F93AF93BF93EF935B
:10251000FF93E0910B01F0910C010995FF91EF9170
:10252000BF91AF919F918F917F916F915F914F91EB
:102530003F912F910F900FBE0F901F9018951F92F3
:102540000F920FB60F9211248F939F938091E10009
:102550009091E100937F9093E10083FF0FC0109270
:10256000E90091E09093EB001092EC0092E39093DD
:10257000ED0010925D0298E09093F00082FF22C07F
:1025800093E09093E9009091F200992319F09AE377
:102590009093E80090910F02992341F090910F02DF
:1025A000915090930F02911101C05D9890915C023F
:1025B000992341F090915C02915090935C029111AB
:1025C00001C0289884FF18C08091E2008E7E81604F
:1025D0008093E2008091E1008F7E8093E100809102
:1025E00010028E7E8061809310029F918F910F90D8
:1025F0000FBE0F901F90189580FFF7CF8091E200DB
:102600008E7E80618093E2008091E1008E7E8093D7
:10261000E100809110028E7E8160E5CF1F920F92C3
:102620000FB60F921124CF92DF92EF92FF920F9389
:102630001F932F933F934F935F936F937F938F934A
:102640009F93AF93BF93EF93FF93CF93DF93CDB758
:10265000DEB76C97DEBFCDBF1092E9008091E80035
:1026600083FF25C068E0CE0145960E94730882EF83
:102670008093E8008D8987FF39C09091E80090FF32
:10268000FCCF982F907609F034C19E894F89588DE0
:102690002F89F88C911131C0803861F58091110239
:1026A0008093F1001092F1008EEF8093E8006C9619
:1026B0000FB6F894DEBF0FBECDBFDF91CF91FF9173
:1026C000EF91BF91AF919F918F917F916F915F91AA
:1026D0004F913F912F911F910F91FF90EF90DF90BD
:1026E000CF900F900FBE0F901F9018959EEF909374
:1026F000E800C7CF1092F100D5CF913059F4811185
:10270000D3CF4130510581F6809111028D7F8093A6
:102710001102CACF933049F48111C6CF413051051F
:1027200019F6809111028260F2CF953041F48091C8
:10273000E80080FFFCCF20682093E300B5CF9630FF
:1027400009F0A9C00B8D1C8D22E01092E9001092B7
:102750000D0210920C02F2122EC010920B02109277
:102760000A020E94C1081F8299E09983FA8291E0CF
:102770009E8390EA98879AEF998720910C02309176
:102780000D02275F3F4F3C832B838D831092E9001E
:1027900010920D0210920C0210930B0200930A0289
:1027A00049E050E0BE016F5F7F4F80E00E948707E5
:1027B0000E94C10879CF10930B0200930A020E9475
:1027C000AD08DC0112960D911C910115110509F45B
:1027D00051C1D801ED91FC910480F581E02DBE013D
:1027E0006B5E7F4FC8010995009709F03EC1F80163
:1027F00000851185EACFF3E0FF120EC08F89882390
:1028000009F440C0823061F440E86DE087E892E06E
:102810000E945407811148CF81E28093EB0047CF9B
:10282000813029F440E86BE08BE792E0F1CF833010
:1028300099F70E94AD08DC011296ED90FC908E0194
:102840000F5F1F4F6801E114F10479F0D701ED919A
:10285000FC910680F781E02DB801C7010995080FAA
:10286000111DF701E084F184EECFD8011C92F6012E
:1028700001900020E9F73197BF016C197D0940E014
:10288000C601C6CF65E672E0FB01449150E080E8E6
:102890000E94870709CF973009F4BECF983021F402
:1028A00081E08093F10000CF993009F0FDCE837074
:1028B00009F0B2CFE1E0F1E081E031E096E321916F
:1028C000222371F08093E9003093EB00DF01119730
:1028D0002C912093EC009093ED008F5F873079F777
:1028E0008EE78093EA001092EA008F8980935D0260
:1028F000DBCE8B8D9C8D1092E90010920D02109210
:102900000C0290930B0280930A02898D811192C070
:102910008E899D89913A49F4813209F07DCF47E053
:1029200050E065E171E080E0B3CF913209F074CFFF
:10293000833269F48F89988DB0E0A0E0809307011D
:1029400090930801A0930901B0930A01ADCE8032A3
:1029500069F48091E80082FFFCCF67E085E191E0B7
:102960000E9473088BEF8093E8009ECE823209F0BC
:102970009BCE8F8980931C01EEEFFFE785919491A8
:102980008B3F9C4D51F1E0E0F8E080911501909172
:102990001601A0911701B0911801803B9440A10548
:1029A000B105F1F480911C0180FD1AC0EE3F8AE070
:1029B000F80789F587E797E7918380838091600026
:1029C00080930E0288E19BE00FB6F894A89580935F
:1029D00060000FBE9093600067CEEEEFFAE0D5CFB7
:1029E000808191818737974709F05ECEA8958091C5
:1029F000600088618093600080910E028093600087
:102A0000EE3F2AE0F20789F08091FE0A9091FF0ADA
:102A10009183808349CE808191818737980751F2D5
:102A20009093FF0A8093FE0AC5CF1092FF0A10927E
:102A3000FE0A3ACE0E94AD08DC0112960D911C915F
:102A40000115110509F4E8CED801ED91FC91019032
:102A5000F081E02DBE016B5E7F4FC80109958111A9
:102A600023CEF80100851185EBCF181619060CF45A
:102A70001BCED2CEF1E0FF12BECE69E672E004CFEB
:102A8000109261021092600288EE93E0A0E0B0E044
:102A90008093620290936302A0936402B0936502F4
:102AA0008DE291E090935F0280935E028FEF9FEF43
:102AB00090936B0280936A021092BF021092BE0242
:102AC0008FE391E09093BD028093BC028091B402A9
:102AD000811113C01092AF021092AE028CEF99E0F8
:102AE0009093B1028093B0028BE390E09093B30295
:102AF0008093B20281E08093B4020E94EB09FC0152
:102B0000A385B485109709F059C08EEA92E09487A6
:102B10008387858596852091B2023091B302820F1A
:102B2000931F9687858781E591E09093D7028093E4
:102B3000D6028091CE02811113C01092C902109268
:102B4000C80287E39AE09093CB028093CA0289E19E
:102B500090E09093CD028093CC0281E08093CE02EE
:102B60000E94EB09FC01A385B485109791F588ECD0
:102B700092E094878387858596852091CC02309159
:102B8000CD02820F931F968785871092E3021092E1
:102B9000E2021092EC021092ED021092EF021092FB
:102BA000EE021092F00281E08093F10287E591E05D
:102BB0009093E1028093E0020895DC018D919C9155
:102BC00011970097D1F78EEA92E08D939C93A1CF55
:102BD000DC018D919C9111970097D1F788EC92E0E0
:102BE0008D939C93C8CFCF93DF9300D000D0CDB707
:102BF000DEB7789484B5826084BD84B5816084BD7D
:102C000085B5826085BD85B5816085BD80916E008A
:102C1000816080936E0010928100809181008260BB
:102C200080938100809181008160809381008091F8
:102C30008000816080938000809191008260809309
:102C4000910080919100816080939100809190002B
:102C50008160809390008091C10084608093C10066
:102C60008091C10082608093C1008091C100816029
:102C70008093C1008091C30081608093C3008091E4
:102C8000C00082608093C0008091C2008160809308
:102C9000C20080917A00846080937A0080917A00EB
:102CA000826080937A0080917A00816080937A00BC
:102CB00080917A00806880937A0010925D02109271
:102CC0001102109210028091D70081608093D7008A
:102CD00080EA8093D80089B5806189BD89B582601A
:102CE00089BD09B400FEFDCF61E070E080E090E0B6
:102CF0000E94E7068091D8008F7C80618093D80085
:102D00008091E000807F8093E0008091E1008E7EE2
:102D10008093E1008DE08093E200559A209A5D98BF
:102D200028988CEB92E00E94B50D8CEB92E00E940B
:102D30005D0A1092F4028CE38093F3021092B900C2
:102D40008CE08093B8001092E4021092E502E5E96D
:102D5000F2E085919491082FE7E9F2E01491E8E917
:102D6000F2E0E491E093E602E9E9F2E0E491E09335
:102D7000E702EAE9F2E0E491E093E80289839A83CA
:102D80008981801B811770F4E981FA81649180EE5A
:102D900092E00E94930B29813A812F5F3F4F3A8343
:102DA0002983EECF80EE92E00E949C0D60EA80EED7
:102DB00092E00E94930B60EC80EE92E00E94930BF5
:102DC00066EA80EE92E00E94930B81E00E94840507
:102DD00087E00E9484058CE49EE09093120180932A
:102DE0001101809169008F7380936900EB9A86E0EE
:102DF0000E94840585E00E94840584E00E94840589
:102E00000E94650590932C0280932B02BC01990FC0
:102E1000880B990B0E94661D20E030E048EC5DE3D2
:102E20000E94F71D20E030E040E05FE30E94F71DC4
:102E30006B017C0120E030E0A9010E94F21D20E03E
:102E400030E040E05FE387FDC0C1C701B6010E94EA
:102E5000501C0E942E1D660F771F709334026093E2
:102E6000330200912F0210913002C0902502D090C1
:102E70002602DA82C98280EE92E00E949C0D90E0E8
:102E800080E00E94FE0F50E040E0B80189819A8105
:102E90000E9482108091390290913A02019621F0AD
:102EA00090E080E00E94E60F412C512C32014394C7
:102EB0000E94190760933B0270933C0280933D028D
:102EC00090933E0286E00E945306892B09F05AC077
:102ED000C0903902D0903A020E941907009147022F
:102EE000109148022091490230914A02601B710BF7
:102EF000820B930B6D3271408105910508F442C03D
:102F00000E94190760934702709348028093490218
:102F100090934A028601023011050CF05BC10F5FED
:102F20001F4F10933A020093390280913902909119
:102F30003A02009709F055C1C0903702D09038028C
:102F4000DA82C982E0903302F090340200912302C9
:102F50001091240280EE92E00E949C0D90E080E0AF
:102F60000E94FE0F50E040E0B701C8010E948210AD
:102F70008091390290913A02019621F089819A81DB
:102F80000E94E60F85E00E945306009139021091DD
:102F90003A02892B71F50E941907C0904B02D0901C
:102FA0004C02E0904D02F0904E026C197D098E09A2
:102FB0009F096D32714081059105D8F00E94190773
:102FC00060934B0270934C0280934D0290934E029B
:102FD00083E70115110529F00130110509F00CC135
:102FE00081E50E94320E85E090E09093220280936A
:102FF000210284E00E945306892B59F50E9419078B
:10300000C0904F02D0905002E0905102F0905202D6
:103010006C197D098E099F096D32714081059105FA
:10302000C0F00E94190760934F0270935002809382
:103030005102909352020115110509F00BC18FE75F
:103040000E94320E65E0C62ED12CD0922002C09292
:103050001F02E0902F02F0903002FA82E982F09293
:103060003202E0923102E0902D02F0902E02F092B6
:103070003002E0922F02C0902B02D0902C02D0920E
:103080002E02C0922D020E94650590932C0280931F
:103090002B02880F991F8C0D9D1D8E0D9F1DC980C1
:1030A000DA808C0D9D1D65E070E00E94E31E7A833E
:1030B000698370933602609335029B016034710519
:1030C0000CF0ECC0220F331F220F331F3C832B83E5
:1030D000CB80DC80D0922402C0922302B601DD0CAA
:1030E000880B990B0E94661D4B015C01AC019B0192
:1030F00060E070E080E094E40E944F1C20E030E04B
:1031000040EA51E40E94BC1C6B017C0120E030E0ED
:10311000A9010E94F21D20E030E040E05FE387FD5E
:10312000FFC0C701B6010E94501C0E942E1D709363
:103130002602609325028091270290912802861B27
:10314000970B90931E0280931D028091290290910B
:103150002A02EB80FC808E199F094896C19720F4C3
:1031600010921E0210921D02E0901D02F0901E02AD
:10317000E114F10409F43FC1D12CC12C22273327DB
:103180002E193F093A83298320903302309034026C
:10319000C701F7FE02C089819A81C816D9060CF0D2
:1031A000E6C01E141F040CF0CCC00115110509F077
:1031B000BCC089EE90E00E943E0B32E0230E311C31
:1031C0003092340220923302B8C0C701B6010E9487
:1031D0004F1C3FCE2FEF3FEF30933A02209339023E
:1031E000A4CE8F3F980729F480EE92E00E949C0DB8
:1031F000C9CE0E94FE0FC6CE0230110591F480EEBA
:103200000E941F0E82EE0E941F0E88E10E941F0E78
:1032100061E170E080E090E00E94E7060E94C40D4A
:10322000E2CE0F3F100709F0DECE10921B02109283
:103230001A0210921602109217021092180210929F
:10324000190210921202109213021092140210929C
:103250001502C9CE01301105C1F482E50E94320E7B
:1032600061E170E080E090E00E94E70680EE0E945D
:103270001F0E87E20E941F0E61E170E080E090E087
:103280000E94E7060E94C40DDDCE0230110509F050
:10329000D9CE80EE0E941F0E8BE0ECCFC980DA8081
:1032A000B6010D2C000C880B990B0E94661D2FEBAC
:1032B000C21623E0D20614F52AE534E64BE15FE3BB
:1032C0000E94F71D23E333E349E553E40E94501CB9
:1032D0006B017C0120E030E0A9010E94F21D20E09A
:1032E00030E040E05FE387FD16C0C701B6010E94F1
:1032F000501C0E942E1D7C836B83EACE2CE53FE898
:1033000042E650E40E94F71D26E636E642E255E426
:103310000E944F1CDDCFC701B6010E944F1CE9CFB0
:10332000C701B6010E944F1C00CF8EE2013011058B
:10333000D9F082E502301105B9F08FEFC81AD80A2A
:1033400023CF0115110541F48AEE90E00E943E0B57
:1033500042E0241A310834CF8DE20130110521F00A
:103360000230110551F781E50E94320EE6CF95E655
:103370002916310438F120E030E048EC5DE3C50166
:10338000B4010E94F71D20E030E040E05FE30E94BE
:10339000F71D6B017C0120E030E0A9010E94F21DC5
:1033A00020E030E040E05FE387FD1AC2C701B601CC
:1033B0000E94501C0E942E1D660F771F70933402CE
:1033C000609333026091330270913402A8018B81C3
:1033D0009C810E94821080912502909126029093F8
:1033E00028028093270280912302909124029093D7
:1033F0002A02809329020E94190760933F0270936A
:103400004002809341029093420280913902909150
:103410003A02009709F0E9C1289A5D9A80911C024E
:10342000882371F08091390290913A02019641F01F
:1034300080913702909138020E94E60F10921C0290
:1034400020912102309122028091390290913A021A
:103450002115310509F0D9C1019671F08DE199E08E
:103460000E94530543E060E480EE92E00E94C00BAE
:1034700089E090E00E94B60F20911F023091200257
:103480008091390290913A022115310509F0E2C18B
:103490000196A9F08DE199E00E94530543E060E0B8
:1034A00080EE92E00E94C00B89E090E00E94B60F8F
:1034B0008091390290913A02019609F081C10E94EF
:1034C000190760934F0270935002809351029093BA
:1034D000520280911A0290911B02853FE1E09E0703
:1034E0000CF047C0609123027091240201969093E2
:1034F0001B0280931A02072E000C880B990B009177
:103500001602109117022091180230911902060F2D
:10351000171F281F391F00931602109317022093BC
:103520001802309319020E94661D6B017C016091A4
:1035300012027091130280911402909115020E9460
:10354000661D4B015C01A7019601C701B6010E94EF
:10355000F71D9B01AC01C501B4010E94501C0E94E3
:103560002E1D6093120270931302809314029093A5
:10357000150281E894E00E94530540E060E080EE8F
:1035800092E00E94C00B87EC91E00E94A90F8BE9AA
:1035900092E00E94530540E06DE380EE92E00E94CD
:1035A000C00B80913502909136020A9724F485EC85
:1035B00091E00E94A90F80913502909136028436E5
:1035C000910524F485EC91E00E94A90F80913502C9
:1035D00090913602883E934024F485EC91E00E945D
:1035E000A90F80913502909136020E94B60F8DECA2
:1035F00091E00E94A90F80912302909124020A97E2
:1036000024F485EC91E00E94A90F8091230290910F
:1036100024028436910524F485EC91E00E94A90FE0
:103620008091230290912402883E934024F485ECFB
:1036300091E00E94A90F80912302909124020E94A0
:10364000B60F41E067E680EE92E00E94C00B8091E9
:1036500037029091380297FD04C085EC91E00E94FA
:10366000A90F80913702909138020996439720F470
:1036700085EC91E00E94A90F809137029091380269
:103680008D599F4F873C910520F485EC91E00E9475
:10369000A90F80913702909138020E94B60F42E044
:1036A0006FE480EE92E00E94C00B81ED91E00E94F9
:1036B000A90F0E94F91064E670E00E94E31ECB019E
:1036C0000E94B60F86ED91E00E94A90F0E94F910AA
:1036D00064E670E00E94E31E0A9724F480EC91E017
:1036E0000E94A90F0E94F91064E670E00E94E31E98
:1036F0000E94B60F43E063E480EE92E00E94C00BAC
:103700000E941907AB01BC0180913B0290913C02E1
:10371000A0913D02B0913E0273016201C81AD90A1C
:10372000EA0AFB0AD701C601840F951FA61FB71F1F
:103730000A97A105B10520F485EC91E00E94A90F3C
:103740000E94190700913B0210913C0220913D021A
:1037500030913E0273016201C01AD10AE20AF30AF3
:1037600097018601600F711F821F931F4AE00E941C
:103770005B0F88ED91E00E94A90F8BED91E00E9414
:10378000A90F60914F027091500280915102909167
:1037900052026F5F7F4F8F4F9F4F00913B021091FE
:1037A0003C0220913D0230913E02601B710B820B66
:1037B000930B4AE00E945B0F8EED91E00E94A90FEF
:1037C00061E070E080E090E00E94E70680E0E82E93
:1037D00080E0F82EEF2809F46BCB0E94000068CB44
:1037E000C701B6010E944F1CE5CD8130910519F447
:1037F000289A5D9813CE8230910511F428980DCE49
:10380000019609F00BCE2898F4CF121613060CF08F
:1038100033CE019609F430CE8DE199E00E94530534
:1038200043E060E480EE92E00E94C00B88E090E00C
:103830000E94B60F85E00E945306892B09F41CCE26
:10384000809121029091220201979093220280930D
:10385000210212CE121613060CF02ACE019609F49C
:103860002ECE8DE199E00E94530543E060E080EEAA
:1038700092E00E94C00B88E090E00E94B60F84E0C6
:103880000E945306892B09F413CE80911F02909158
:10389000200201979093200280931F0209CE505876
:1038A000BB27AA270E94671C0C94B81D0E94AA1D62
:1038B00038F00E94B11D20F039F49F3F19F426F42E
:1038C0000C94A71D0EF4E095E7FB0C94A11DE92FC5
:1038D0000E94C91D58F3BA1762077307840795073A
:1038E00020F079F4A6F50C94EB1D0EF4E0950B2E68
:1038F000BA2FA02D0B01B90190010C01CA01A00142
:103900001124FF27591B99F0593F50F4503E68F19C
:103910001A16F040A22F232F342F4427585FF3CFDD
:10392000469537952795A795F0405395C9F77EF4AE
:103930001F16BA0B620B730B840BBAF09150A1F0F7
:10394000FF0FBB1F661F771F881FC2F70EC0BA0F7D
:10395000621F731F841F48F4879577956795B79505
:10396000F7959E3F08F0B0CF9395880F08F0992700
:10397000EE0F9795879508950E94D01C0C94B81D62
:103980000E94B11D58F00E94AA1D40F029F45F3F2B
:1039900029F00C94A11D51110C94EC1D0C94A71D41
:1039A0000E94C91D68F39923B1F3552391F3951B28
:1039B000550BBB27AA2762177307840738F09F5F50
:1039C0005F4F220F331F441FAA1FA9F335D00E2EBD
:1039D0003AF0E0E832D091505040E695001CCAF72A
:1039E0002BD0FE2F29D0660F771F881FBB1F2617ED
:1039F00037074807AB07B0E809F0BB0B802DBF01C4
:103A0000FF2793585F4F3AF09E3F510578F00C9492
:103A1000A11D0C94EC1D5F3FE4F3983ED4F3869512
:103A200077956795B795F7959F5FC9F7880F911DB3
:103A30009695879597F90895E1E0660F771F881F9F
:103A4000BB1F621773078407BA0720F0621B730B52
:103A5000840BBA0BEE1F88F7E09508950E94351D80
:103A60006894B1110C94EC1D08950E94D11D88F04A
:103A70009F5798F0B92F9927B751B0F0E1F0660F32
:103A8000771F881F991F1AF0BA95C9F714C0B13073
:103A900091F00E94EB1DB1E008950C94EB1D672F8F
:103AA000782F8827B85F39F0B93FCCF386957795A2
:103AB0006795B395D9F73EF490958095709561958B
:103AC0007F4F8F4F9F4F0895E89409C097FB3EF4B6
:103AD00090958095709561957F4F8F4F9F4F99235B
:103AE000A9F0F92F96E9BB279395F69587957795D9
:103AF0006795B795F111F8CFFAF4BB0F11F460FF99
:103B00001BC06F5F7F4F8F4F9F4F16C0882311F0F0
:103B100096E911C0772321F09EE8872F762F05C004
:103B2000662371F096E8862F70E060E02AF09A959F
:103B3000660F771F881FDAF7880F9695879597F994
:103B4000089597F99F6780E870E060E008959FEF1F
:103B500080EC089500240A94161617061806090624
:103B6000089500240A9412161306140605060895F3
:103B7000092E0394000C11F4882352F0BB0F40F47B
:103B8000BF2B11F460FF04C06F5F7F4F8F4F9F4FBB
:103B9000089557FD9058440F551F59F05F3F71F03D
:103BA0004795880F97FB991F61F09F3F79F08795A4
:103BB0000895121613061406551FF2CF4695F1DF2D
:103BC00008C0161617061806991FF1CF86957105BD
:103BD000610508940895E894BB2766277727CB01F1
:103BE00097F908950E94AA1E08F48FEF08950E9485
:103BF0000A1E0C94B81D0E94AA1D38F00E94B11D27
:103C000020F0952311F00C94A11D0C94A71D1124F4
:103C10000C94EC1D0E94C91D70F3959FC1F3950F84
:103C200050E0551F629FF001729FBB27F00DB11D40
:103C3000639FAA27F00DB11DAA1F649F6627B00DD0
:103C4000A11D661F829F2227B00DA11D621F739FB9
:103C5000B00DA11D621F839FA00D611D221F749FC7
:103C60003327A00D611D231F849F600D211D822F0E
:103C7000762F6A2F11249F5750409AF0F1F0882335
:103C80004AF0EE0FFF1FBB1F661F771F881F915062
:103C90005040A9F79E3F510580F00C94A11D0C9453
:103CA000EC1D5F3FE4F3983ED4F3869577956795D6
:103CB000B795F795E7959F5FC1F7FE2B880F911D8C
:103CC0009695879597F9089519F416F40C94A71D05
:103CD0000C94CE1E0E94D11DB8F39923C9F3B6F3FC
:103CE0009F57550B87FF0E94DC1E0024A0E640EA88
:103CF000900180585695979528F4805C660F771F41
:103D0000881F20F026173707480730F4621B730B13
:103D1000840B202931294A2BA69517940794202536
:103D200031254A2758F7660F771F881F20F026177E
:103D30003707480730F4620B730B840B200D311DDD
:103D4000411DA09581F7B901842F9158880F969550
:103D500087950895990F0008550FAA0BE0E8FEEF2C
:103D600016161706E807F907C0F012161306E4073F
:103D7000F50798F0621B730B840B950B39F40A2638
:103D800061F0232B242B252B21F408950A2609F416
:103D9000A140A6958FEF811D811D08959F3F31F0B1
:103DA000915020F4879577956795B795880F911D69
:103DB0009695879597F9089591505040660F771F13
:103DC000881FD2F7089597FB072E16F4009407D0AA
:103DD00077FD09D00E941F1F07FC05D03EF4909587
:103DE00081959F4F0895709561957F4F0895A1E249
:103DF0001A2EAA1BBB1BFD010DC0AA1FBB1FEE1F65
:103E0000FF1FA217B307E407F50720F0A21BB30BAF
:103E1000E40BF50B661F771F881F991F1A9469F72B
:103E200060957095809590959B01AC01BD01CF0187
:103E30000895EE0FFF1F0590F491E02D0994AA1B41
:103E4000BB1B51E107C0AA1FBB1FA617B70710F085
:103E5000A61BB70B881F991F5A95A9F780959095B7
:103E6000BC01CD01089581E090E0F8940C94381FD6
:043E7000F894FFCFF4
:103E740000C18081000000FFFFFFFF250725072503
:103E8400072507250700E1000000000000000000EE
:103E940000F208A00965094A0900000000D6055D82
:103EA40008BE07EC053906F70515060000000004F6
:103EB4000B8008580F570FB50D5D0AD50D00000093
:103EC400002D0B00000000310C8008580F570F0321
:103ED4000F566F6C756D653A005A6F6F6D005570B3
:103EE400202F20446F776E004D6564696120566F02
:103EF4006C756D6500526F746174696F6E00556EF8
:103F0400646F202F205265646F004D7574650052F4
:103F140065736574005265706C616365004F7574F8
:103F240070757400466C69700055706C6F61640044
:103F340030002520202000446562756700202F2072
:103F44000073643A20002E006D73002028006D7306
:023F5400290042
:00000001FF
